:020000040800F2
:100000000000022009630008B13C0008B73C00086A
:10001000BD3C0008C33C0008C93C000800000000CB
:1000200000000000000000000000000081B2000895
:10003000CF3C000800000000D1B40008018F000888
:1000400059630008596300085963000859630008A0
:100050005963000859630008596300085963000890
:100060005963000859630008596300085963000880
:100070005963000859630008596300085963000870
:100080005963000859630008596300085963000860
:100090005963000859630008596300085963000850
:1000A00059630008DD3C0008F93C0008596300086A
:1000B00059630008596300080D3D000859630008A2
:1000C0005963000859630008596300085963000820
:1000D0005963000859630008596300085963000810
:1000E0005963000859630008596300085963000800
:1000F000213D0008353D0008596300085963000898
:1001000059630008596300085963000859630008DF
:1001100059630008596300085963000859630008CF
:1001200059630008596300085963000859630008BF
:1001300059630008596300085963000859630008AF
:10014000596300085963000859630008596300089F
:10015000596300085963000859630008596300088F
:10016000596300085963000859630008596300087F
:100170005963000859630008596300080000000033
:080180005963000859630008EF
:1001900010B5054C237833B9044B13B10448AFF3C1
:1001A00000800123237010BD7007002000000000B4
:1001B00068F8000808B5034B1BB103490348AFF3C7
:1001C000008008BD000000007407002068F80008E7
:1001D00001F0FF01102A2BDB10F0070F08D010F8F8
:1001E000013B013A8B422DD010F0070F42B3F6D1FC
:1001F000F0B441EA012141EA014122F007047FF015
:1002000000070023F0E80256083C85EA010586EA6B
:10021000010685FA47F5A3FA87F586FA47F6A5FAA7
:1002200087F68EB9EED1F0BC01F0FF0102F00702B3
:1002300032B110F8013B013A83EA010313B1F8D15E
:100240000020704701387047002D06BF354603383F
:10025000073815F0010F07D1013015F4807F02BF78
:10026000013015F4C03F0130F0BC0138704700BFC9
:10027000034613F8012B002AFBD1181A01387047E6
:1002800081F0004102E000BF83F0004330B54FEA47
:1002900041044FEA430594EA050F08BF90EA020FB4
:1002A0001FBF54EA000C55EA020C7FEA645C7FEA47
:1002B000655C00F0E2804FEA5454D4EB5555B8BF6A
:1002C0006D420CDD2C4480EA020281EA030382EADB
:1002D000000083EA010180EA020281EA0303362D6D
:1002E00088BF30BD11F0004F4FEA01314FF4801C40
:1002F0004CEA113102D0404261EB410113F0004F52
:100300004FEA03334CEA133302D0524263EB430308
:1003100094EA050F00F0A780A4F10104D5F1200EA6
:100320000DDB02FA0EFC22FA05F2801841F1000101
:1003300003FA0EF2801843FA05F359410EE0A5F1D5
:1003400020050EF1200E012A03FA0EFC28BF4CF006
:10035000020C43FA05F3C01851EBE37101F00045BC
:1003600007D54FF0000EDCF1000C7EEB00006EEBC9
:100370000101B1F5801F1BD3B1F5001F0CD3490853
:100380005FEA30004FEA3C0C04F101044FEA4452AA
:1003900012F5800F80F09A80BCF1004F08BF5FEA31
:1003A000500C50F1000041EB045141EA050130BD11
:1003B0005FEA4C0C404141EB0101013C28BFB1F523
:1003C000801FE9D291F0000F04BF01460020B1FA6E
:1003D00081F308BF2033A3F10B03B3F120020CDA41
:1003E0000C3208DD02F1140CC2F10C0201FA0CF01F
:1003F00021FA02F10CE002F11402D8BFC2F1200C84
:1004000001FA02F120FA0CFCDCBF41EA0C01904039
:10041000E41AA2BF01EB0451294330BD6FEA040482
:100420001F3C1CDA0C340EDC04F11404C4F120026D
:1004300020FA04F001FA02F340EA030021FA04F37F
:1004400045EA030130BDC4F10C04C4F1200220FAD6
:1004500002F001FA04F340EA0300294630BD21FA14
:1004600004F0294630BD94F0000F83F4801306BFDA
:1004700081F480110134013D4EE77FEA645C18BFCE
:100480007FEA655C29D094EA050F08BF90EA020F65
:1004900005D054EA000C04BF1946104630BD91EA5D
:1004A000030F1EBF0021002030BD5FEA545C05D160
:1004B0004000494128BF41F0004130BD14F580049F
:1004C0003CBF01F5801130BD01F0004545F0FE4113
:1004D00041F470014FF0000030BD7FEA645C1ABF48
:1004E000194610467FEA655C1CBF0B46024650EA7F
:1004F000013406BF52EA033591EA030F41F40021AB
:1005000030BD00BF90F0000F04BF0021704730B530
:100510004FF4806404F132044FF000054FF0000105
:1005200050E700BF90F0000F04BF0021704730B5C6
:100530004FF4806404F1320410F0004548BF40429B
:100540004FF000013EE700BF42004FEAE2014FEAF0
:1005500031014FEA02701FBF12F07F4393F07F4FCB
:1005600081F06051704732F07F4208BF704793F0CE
:100570007F4F04BF41F40021704730B54FF46074E1
:1005800001F0004521F000411CE700BF50EA0102E4
:1005900008BF704730B54FF000050AE050EA01028D
:1005A00008BF704730B511F0004502D5404261EBFD
:1005B00041014FF4806404F132045FEA915C3FF43E
:1005C000D8AE4FF003025FEADC0C18BF03325FEADB
:1005D000DC0C18BF033202EBDC02C2F1200300FA8C
:1005E00003FC20FA02F001FA03FE40EA0E0021FAB1
:1005F00002F11444BDE600BF70B54FF0FF0C4CF49F
:10060000E06C1CEA11541DBF1CEA135594EA0C0F50
:1006100095EA0C0F00F0DEF82C4481EA030621EA8B
:100620004C5123EA4C5350EA013518BF52EA0335C6
:1006300041F4801143F4801338D0A0FB02CE4FF078
:100640000005E1FB02E506F00042E0FB03E54FF0A8
:100650000006E1FB03569CF0000F18BF4EF0010EA0
:10066000A4F1FF04B6F5007F64F5407404D25FEA9C
:100670004E0E6D4146EB060642EAC62141EA55514F
:100680004FEAC52040EA5E504FEACE2EB4F1FD0C91
:1006900088BFBCF5E06F1ED8BEF1004F08BF5FEA0F
:1006A000500E50F1000041EB045170BD06F00046C1
:1006B00046EA010140EA020081EA0301B4EB5C046E
:1006C000C2BFD4EB0C0541EA045170BD41F4801166
:1006D0004FF0000E013C00F3AB8014F1360FDEBF8B
:1006E000002001F0004170BDC4F10004203C35DA67
:1006F0000C341BDC04F11404C4F1200500FA05F3EA
:1007000020FA04F001FA05F240EA020001F000428A
:1007100021F0004110EBD37021FA04F642EB060100
:100720005EEA430E08BF20EAD37070BDC4F10C042A
:10073000C4F1200500FA04F320FA05F001FA04F2EE
:1007400040EA020001F0004110EBD37041F10001DA
:100750005EEA430E08BF20EAD37070BDC4F12005E5
:1007600000FA05F24EEA020E20FA04F301FA05F24D
:1007700043EA020321FA04F001F0004121FA04F2F5
:1007800020EA020000EBD3705EEA430E08BF20EAC5
:10079000D37070BD94F0000F0FD101F000464000FF
:1007A00041EB010111F4801F08BF013CF7D041EA81
:1007B000060195F0000F18BF704703F00046520085
:1007C00043EB030313F4801F08BF013DF7D043EA56
:1007D0000603704794EA0C0F0CEA135518BF95EA0C
:1007E0000C0F0CD050EA410618BF52EA4306D1D193
:1007F00081EA030101F000414FF0000070BD50EAB2
:10080000410606BF1046194652EA430619D094EA3B
:100810000C0F02D150EA013613D195EA0C0F05D125
:1008200052EA03361CBF104619460AD181EA030179
:1008300001F0004141F0FE4141F470014FF0000031
:1008400070BD41F0FE4141F4780170BD70B54FF0CC
:10085000FF0C4CF4E06C1CEA11541DBF1CEA13554C
:1008600094EA0C0F95EA0C0F00F0A7F8A4EB05042E
:1008700081EA030E52EA03354FEA013100F0888025
:100880004FEA03334FF0805545EA131343EA1263EE
:100890004FEA022245EA111545EA10654FEA0026A3
:1008A0000EF000419D4208BF964244F1FD0404F55C
:1008B000407402D25B084FEA3202B61A65EB0305B8
:1008C0005B084FEA32024FF480104FF4002CB6EB75
:1008D000020E75EB030E22BFB61A754640EA0C00F5
:1008E0005B084FEA3202B6EB020E75EB030E22BF35
:1008F000B61A754640EA5C005B084FEA3202B6EB76
:10090000020E75EB030E22BFB61A754640EA9C0034
:100910005B084FEA3202B6EB020E75EB030E22BF04
:10092000B61A754640EADC0055EA060E18D04FEAC2
:10093000051545EA16754FEA06164FEAC30343EA62
:1009400052734FEAC2025FEA1C1CC0D111F4801F2F
:100950000BD141EA00014FF000004FF0004CB6E728
:1009600011F4801F04BF01430020B4F1FD0C88BFC7
:10097000BCF5E06F3FF6AFAEB5EB030C04BFB6EBD2
:10098000020C5FEA500C50F1000041EB045170BDC5
:100990000EF0004E4EEA113114EB5C04C2BFD4EBF2
:1009A0000C0541EA045170BD41F480114FF0000E76
:1009B000013C90E645EA060E8DE60CEA135594EAF2
:1009C0000C0F08BF95EA0C0F3FF43BAF94EA0C0FF5
:1009D0000AD150EA01347FF434AF95EA0C0F7FF46A
:1009E00025AF104619462CE795EA0C0F06D152EABE
:1009F00003353FF4FDAE1046194622E750EA4106A2
:100A000018BF52EA43067FF4C5AE50EA41047FF4B2
:100A10000DAF52EA43057FF4EBAE12E74FF0FF3C17
:100A200006E000BF4FF0010C02E000BF4FF0010CE8
:100A30004DF804CD4FEA410C7FEA6C5C4FEA430C61
:100A400018BF7FEA6C5C1BD001B050EA410C0CBFB0
:100A500052EA430C91EA030F02BF90EA020F002012
:100A6000704710F1000F91EA030F58BF994208BF79
:100A700090422CBFD8176FEAE37040F00100704736
:100A80004FEA410C7FEA6C5C02D150EA013C07D18D
:100A90004FEA430C7FEA6C5CD6D152EA033CD3D0D8
:100AA0005DF8040B704700BF8446104662468C46D2
:100AB0001946634600E000BF01B5FFF7B7FF002805
:100AC00048BF10F1000F01BD4DF808EDFFF7F4FF2E
:100AD0000CBF012000205DF808FB00BF4DF808EDB9
:100AE000FFF7EAFF34BF012000205DF808FB00BFDC
:100AF0004DF808EDFFF7E0FF94BF012000205DF8FE
:100B000008FB00BF4DF808EDFFF7CEFF94BF0120B2
:100B100000205DF808FB00BF4DF808EDFFF7C4FFAB
:100B200034BF012000205DF808FB00BF4FEA410CF4
:100B30007FEA6C5C02D150EA013C0AD14FEA430CD7
:100B40007FEA6C5C02D152EA033C02D14FF0000014
:100B500070474FF0010070474FEA410212F5001252
:100B600015D211D56FF47873B3EB625212D94FEAF4
:100B7000C12343F0004343EA505311F0004F23FADE
:100B800002F018BF404270474FF00000704750EA33
:100B9000013005D111F0004008BF6FF000407047F0
:100BA0004FF00000704700BF4FEA4102B2F1E0434E
:100BB00024BFB3F5001CDCF1FE5C0DD901F0004C44
:100BC0004FEAC0024CEA5070B2F1004F40EB830094
:100BD00008BF20F00100704711F0804F21D113F1C0
:100BE0003872BCBF01F00040704741F480114FEAF9
:100BF0005252C2F11802C2F1200C10FA0CF320FA82
:100C000002F018BF40F001004FEAC1234FEAD3239E
:100C100003FA0CFC40EA0C0023FA02F34FEA430308
:100C2000CCE77FEA625307D150EA01331EBF4FF091
:100C3000FE4040F44000704701F0004040F0FE40AC
:100C400040F40000704700BF53B94AB9002908BFFB
:100C500000281CBF4FF0FF314FF0FF3000F070B99B
:100C6000ADF1080C6DE904CE00F006F8DDF804E003
:100C7000DDE9022304B070472DE9F047089E0D46D8
:100C800004460F46002B4AD18A42944665D9B2FAEF
:100C900082F343B102FA03FCC3F120029F4020FA21
:100CA00002F217439C404FEA1C4E1FFA8CF5B7FB2B
:100CB000FEF1220C0EFB117742EA074201FB05F020
:100CC00090420AD91CEB020201F1FF3780F01C812F
:100CD000904240F2198102396244121AA4B2B2FB66
:100CE000FEF00EFB102244EA024400FB05F5A5428B
:100CF0000AD91CEB040400F1FF3280F00781A54201
:100D000040F204816444023840EA0140641B00213F
:100D10001EB1DC400023C6E90043BDE8F0878B42EA
:100D200008D9002E00F0ED800021C6E90005084634
:100D3000BDE8F087B3FA83F1002949D1AB4202D371
:100D4000824200F2F880841A65EB03020120174604
:100D5000002EE2D0C6E90047DFE702B9FFDEB2FAB3
:100D600082F3002B40F090808A1A4FEA1C471FFA4A
:100D70008CFE0121B2FBF7F507FB1520220C42EA9D
:100D800000420EFB05F0904208D91CEB020205F16F
:100D9000FF3802D2904200F2CB804546121AA4B22C
:100DA000B2FBF7F007FB102244EA02440EFB00FE00
:100DB000A64508D91CEB040400F1FF3202D2A64577
:100DC00000F2BB801046A4EB0E0440EA05409FE70A
:100DD000C1F120078B4022FA07FC4CEA030C05FA0C
:100DE00001F420FA07F3FD404FEA1C492343B5FB09
:100DF000F9F81FFA8CFE09FB18551C0C44EA05444F
:100E000008FB0EF5A54202FA01F200FA01F00BD937
:100E10001CEB040408F1FF3A80F08880A54240F200
:100E20008580A8F102086444641B9DB2B4FBF9F309
:100E300009FB134445EA044403FB0EFEA64508D90A
:100E40001CEB040403F1FF356CD2A6456AD9023BC2
:100E5000644443EA0843A3FB0295A4EB0E04AC42AE
:100E6000C846AE4656D353D056B1B0EB080264EB39
:100E70000E0404FA07F7CA40CC401743C6E90074D1
:100E800018460021BDE8F087C3F1200102FA03FCF7
:100E900020FA01F225FA01F19D402A434FEA1C474E
:100EA0001FFA8CFEB1FBF7F007FB1015110C41EA9D
:100EB000054100FB0EF58D4204FA03F408D91CEB42
:100EC000010100F1FF382FD28D422DD90238614443
:100ED000491B92B2B1FBF7F507FB151142EA01423B
:100EE00005FB0EF1914208D91CEB020205F1FF3817
:100EF00016D2914214D9023D6244521A45EA004189
:100F000038E73146304608E73946E6E61046FBE664
:100F10004845A9D2B9EB020865EB0C0E013BA3E7EB
:100F20004546EAE72B4694E74046D1E7D0467BE7C3
:100F3000023D624432E708460AE76444023842E769
:100F4000704700BF80B500AF0A490B4804F0CCF8E9
:100F5000094803F0A4F9094B0F220021064804F0C8
:100F600007F8054803F0AFF90346002BF3D100BFA3
:100F700000BF80BDA43201081C0D0020A0F80008AD
:100F800080B584B002AF03460A46FB711346BB71BD
:100F90000A490B4804F0A8F80121094804F015FAA1
:100FA000BA79F97908230193142300936423044840
:100FB00003F02CF800BF0837BD4680BDA4320108FD
:100FC0001C0D002080B584B000AF78600846114643
:100FD0001A460346FB700B46BB7013467B7000231A
:100FE0007B72FA787B789A4204D9FA787B78D31AA4
:100FF0007B7303E07A78FB78D31A7B73BA783B7EF5
:101000009A4204D9BA783B7ED31A3B7303E03A7E06
:10101000BB78D31A3B733A7B7B7B9A4213D901236B
:101020007B727B7B3B723B7B7B733B7A3B73FB78B6
:101030003B72BB78FB703B7ABB707B783B723B7E2C
:101040007B703B7A3B76FA787B789A420BD9FB78B7
:101050003B727B78FB703B7A7B70BB783B723B7E4C
:10106000BB703B7A3B767B7B5B08DBB2FB723A7EE4
:10107000BB789A4202D90123BB7203E0FF23BB7203
:10108000BB78BB737B78FF2B02D17B78013B7B70F5
:10109000FB78FB73A0E07B7A002B44D197F91C30DE
:1010A000002B06D1BA7BFB7B1946786804F05AF90D
:1010B0007DE097F91C30012B0CD1FB7B03F0010381
:1010C000DBB2002B73D1BA7BFB7B1946786804F046
:1010D00049F96CE097F91C30012B0FDDFA7B97F989
:1010E0001C3092FBF3F303F00103002B5FD1BA7BBA
:1010F000FB7B1946786804F035F958E097F91C3005
:10110000002B54DAFA7B97F91C305B4292FBF3F325
:1011100003F00103002B4AD0BA7BFB7B19467868A9
:1011200004F020F943E097F91C30002B06D1FA7B3C
:10113000BB7B1946786804F015F938E097F91C3044
:10114000012B0CD1FB7B03F00103DBB2002B2ED172
:10115000FA7BBB7B1946786804F004F927E097F91D
:101160001C30012B0FDDFA7B97F91C3092FBF3F357
:1011700003F00103002B1AD1FA7BBB7B1946786878
:1011800004F0F0F813E097F91C30002B0FDAFA7B2B
:1011900097F91C305B4292FBF3F303F00103002B41
:1011A00005D0FA7BBB7B1946786804F0DBF8FA7A45
:1011B0003B7BD31ADBB2FB7297F90B30002B08DABA
:1011C000BA7ABB7B1344BB73FA7A7B7B1344DBB2E2
:1011D000FB72FB7B0133FB73FA7B7B789A427FF6D1
:1011E0005AAF00BF00BF1037BD4680BD00000000F1
:1011F0002DE9B04396B002AF0121834804F0E5F831
:10120000814803F04CF878230093DC2304220A2160
:101210007D4802F0A7FE7D497B4803F065FF7C4BCB
:101220001E227321784803F0A3FE01230193282393
:101230000093E52328220A217348FFF7C3FE012308
:1012400001936E230093E5236E220A216E48FFF777
:10125000B9FE01230193282300934E2304224E213B
:101260006948FFF7AFFE0123019328230093A223CF
:101270000422A2216448FFF7A5FE664B1B78002BD1
:1012800031D165494FF000024FF00003C1E900235E
:10129000E623FB6413E0614AFB6C52F82330DA1753
:1012A0001C4615465C4BD3E9002314EB020845EBC2
:1012B0000309594BC3E90089FB6C0133FB64FB6CE8
:1012C000F02BE8DD544BD3E900014FF00B024FF057
:1012D0000003FFF7B9FC02460B464F49C1E9002362
:1012E0004C4B01221A704B4B1B78002B75D04A4B8C
:1012F000D3E90023134370D0494B1E221E214248DC
:1013000003F050FE474B1E22BE213F4803F04AFE29
:10131000454B502255213C4803F02AFE434B5F22A7
:101320002321394803F03EFE404B5F22B921364865
:1013300003F038FE384BD3E9002310461946FFF777
:1013400025F92DA3D3E90023FFF756F902460B46F2
:10135000C7E91023304BD3E9002310461946FFF7A5
:1013600015F927A3D3E90023FFF746F902460B46F8
:10137000C7E90E234FF000024FF00003D7E9100138
:10138000FFF7A2FB0346002B24D14FF000024FF0E1
:101390000003D7E90E01FFF797FB0346002B19D195
:1013A00007F11C00D7E9102321490CF045F807F19B
:1013B0001C0350221421144803F0F4FD3846D7E9E9
:1013C0000E231B490CF038F83B465022A5210E484D
:1013D00003F0E8FD0F4B00221A700B4802F073FF78
:1013E0000346002B7FF40FAF00BF00BF5037BD4650
:1013F000BDE8B083AFF300806EA301BC0512743F5B
:10140000BA490C022B87763F1C0D00206CFC0008AB
:10141000A8F80008B00D0020A80D002058090020F1
:10142000ACF80008B4F80008BCF80008C4F80008DC
:10143000CCF8000880B5A4B002AF786039603B6892
:10144000C7F88430AB4802F02AFF0121A94803F015
:10145000BCFF7B68197E7B685B7E113BDAB27B68E0
:10146000987E7B68DB7E00930346A24802F044FD31
:10147000A149A04803F038FED7F884305A7E7B6833
:101480005B7E9A4245D1D7F884301A7E7B681B7EFA
:101490009A423ED10021974803F097FF002387F836
:1014A0008330D7F884301A6A07F1080311461846CA
:1014B0000CF057F92D23A7F8703007F1700207F1EF
:1014C0000803114618460CF023F8F86719E0D7F81E
:1014D0008430197ED7F884305A7E97F883301344CD
:1014E000DAB2FB6F834803F05DFD07F17003194624
:1014F00000200CF00DF8F86797F883300F3387F869
:101500008330FB6F002BE2D101217A4803F05DFFAD
:1015100039E00121774803F058FF002387F87B303A
:10152000D7F884301A6A07F10803114618460CF000
:1015300018F92D23A7F86C3007F16C0207F10803A6
:10154000114618460BF0E4FF786719E0D7F88430AD
:10155000197ED7F884305A7E97F87B301344DAB27C
:101560007B6F644803F01EFD07F16C0319460020F1
:101570000BF0CEFF786797F87B300F3387F87B301E
:101580007B6F002BE2D1D7F884301B68C7F884301A
:1015900002F0BEF803469B68584A934240F05C81D3
:1015A000002387F87330002387F8723002F0B0F818
:1015B0000346534A934206D1002387F87330002331
:1015C00087F8723059E002F0A3F803464D4A93427F
:1015D00006D1012387F87330002387F872304CE07E
:1015E00002F096F80346484A934206D1022387F850
:1015F0007330002387F872303FE002F089F8034629
:10160000424A934206D1032387F87330002387F8B8
:10161000723032E002F07CF803463D4A934206D134
:10162000042387F87330002387F8723025E002F036
:101630006FF80346374A934206D1002387F8733088
:10164000012387F8723018E002F062F80346324A4C
:10165000934206D1012387F87330012387F8723053
:101660000BE002F055F803462C4A934205D10223C1
:1016700087F87330012387F8723000211D4803F08A
:10168000A4FE97F87230002B7DD1254B1B68022BEE
:1016900048DC234B1B68DBB2DB00DBB22533D9B25D
:1016A00097F873301A46920013441A4690001A466F
:1016B00003461344DBB21533DAB208230D4803F0B6
:1016C0001FFE174B1B68DBB2DB00DBB22533D9B240
:1016D00097F873301A46920013441A4690001A463F
:1016E00003461344DBB21633DAB20823014803F091
:1016F00007FEB1E01C0D002098180108A4FA0008AC
:1017000010FB000834FB000858FB00087CFB0008B5
:10171000A0FB0008C4FB0008E8FB00080CFC000864
:1017200050090020554B1B68DBB2DB00DBB22D33C8
:10173000D9B297F873301A46920013441A469000B3
:101740001A4603461344DBB21533DAB208234C4879
:1017500003F0D6FD494B1B68DBB2DB00DBB22D3357
:10176000D9B297F873301A46920013441A46900083
:101770001A4603461344DBB21633DAB20823404854
:1017800003F0BEFD68E097F87230012B64D13B4B4B
:101790001B68022B30DC394B1B68DBB2DB00DBB291
:1017A000633BD9B297F873301A46920013441A4635
:1017B00090001A4603461344DBB21533DAB208230D
:1017C0002F4803F09DFD2D4B1B68DBB2DB00DBB225
:1017D000633BD9B297F873301A46920013441A4605
:1017E00090001A4603461344DBB21633DAB20823DC
:1017F000234803F085FD2FE0204B1B68DBB2DB00A4
:10180000DBB25B3BD9B297F873301A4692001344AF
:101810001A4690001A4603461344DBB21533DAB277
:101820000823174803F06CFD144B1B68DBB2DB0088
:10183000DBB25B3BD9B297F873301A46920013447F
:101840001A4690001A4603461344DBB21633DAB246
:1018500008230B4803F054FDD7F884203B689A42D4
:101860007FF40AAE064802F02EFD0346002B7FF4FB
:10187000ECAD00BF00BF8837BD4680BD50090020D9
:101880001C0D002000000000B0B586B000AF7860ED
:1018900000237B6105233B613AE051497A68134696
:1018A0005B0013445B003A69134451F82330184637
:1018B000FEF738FE04460D463B69C3F105031846A2
:1018C000FEF730FE02460B4643EC112B9FED420B18
:1018D0000AF0ACF853EC102B20462946FEF78CFE9C
:1018E00002460B4614461D467869FEF71BFE02466B
:1018F0000B4620462946FEF7C9FC02460B46104619
:101900001946FFF729F903467B613B69013B3B61BF
:101910003B69022BC1DC0023FB600023BB603AE083
:101920002F497A6813465B0013445B00BA6813447E
:1019300051F823301846FEF7F5FD04460D46BB6806
:10194000C3F102031846FEF7EDFD02460B4643ECD9
:10195000112B9FED210B0AF069F853EC102B204658
:101960002946FEF749FE02460B4614461D46F86816
:10197000FEF7D8FD02460B4620462946FEF786FCB8
:1019800002460B4610461946FFF7E6F80346FB6091
:10199000BB680133BB60BB68022BC1DDF868FEF792
:1019A000C1FD04460D467869FEF7BCFD4FF000020C
:1019B0000C4BFEF74BFF02460B4620462946FEF72E
:1019C00065FC02460B4643EC172BB0EE470AF0EEDF
:1019D000670A1837BD46B0BD000000000000244073
:1019E0000400002000408F4080B485B000AF7860D4
:1019F0000023FB600BE0FB6801330D4A52F8232003
:101A00000B49FB6841F82320FB680133FB60094B5D
:101A10001B68FA689A42EEDB064B1B6804497A6839
:101A200041F8232000BF1437BD465DF8047B7047A2
:101A3000580900207C0500202DE9B04F2DED028BC8
:101A4000AEB002AF0121864803F0BFFCDC23C7F82B
:101A5000A0306423C7F89C30824B1B68C3F132036B
:101A6000C7F89830D7F89830DAB2D7F8A030DBB2A0
:101A70000A217B4803F044FC7B49794803F034FB9E
:101A80007A4B1A6813469B0013449A001344784A11
:101A900013446C220A21724803F06AFA754B1A68E3
:101AA00013469B0013449A001344734A13446C2258
:101AB00064216B4803F05CFA704B6C22AF216848DC
:101AC00003F056FA6E4B1B68013B6E4A52F8230036
:101AD00007F180030A2219460AF042FF07F180034A
:101AE00007F154001A4668490BF0A6FC644B1B68CA
:101AF000644A52F8230007F178030A2219460AF0D3
:101B00002FFF07F1780307F138001A465F490BF001
:101B100093FC07F170030A221946D7F898000AF0DF
:101B20001FFF07F1700307F11C001A4658490BF01C
:101B300083FC07F1540376220A21494803F018FA7E
:101B400007F1380376226421454803F011FA07F1C2
:101B50001C037622AF21424803F00AFAD7F8A030DE
:101B6000DAB2D7F89C30DBB20133DBB20093134614
:101B700000220A213A4802F0F5F90E23C7F8943002
:101B80000123C7F8AC3022E0D7F8AC300133DBB228
:101B90001A4613461B019B1AD8B2D7F8AC30013352
:101BA000DBB21A4613461B019B1AD9B2D7F89C30F8
:101BB000DAB20123019300920B4600220146284825
:101BC000FFF700FAD7F8AC300133C7F8AC30D7F8DC
:101BD000AC20D7F894309A42D6DB0623C7F8903071
:101BE0000123C7F8A83020E0D7F8A830DBB21B01EA
:101BF000DBB20233D8B2D7F8A030DBB20A33D9B2A5
:101C0000D7F8A830DBB21B01DBB20233DAB2012312
:101C1000019300920B4602460A211148FFF7D2F9C0
:101C2000D7F8A8300133C7F8A830D7F8A820D7F8DC
:101C300090309A42D8DBD7F89C30DBB20022782172
:101C4000074803F076FBD7F8A030DBB232220A2136
:101C5000034803F055FB0A23C7F8A43067E100BF2F
:101C60001C0D002054090020F83A010884030020CC
:101C7000D003002054020020A002002090F90008A8
:101C80007C050020580900209CF90008ACF90008E8
:101C9000BCF90008D7F89C30DA0F13445B1007EE4C
:101CA000903AB8EEE78AAA4AD7F8A43052F823301F
:101CB000DA173B617A6140F21A624FF00003D7E90C
:101CC0000401FEF7C1FF02460B4610461946D7F83D
:101CD0009C20D30F13445B10DA171C461546B0EB5B
:101CE000040A61EB050B50465946FEF74FFC994B31
:101CF0001B68994ADB001344D3E90023FEF77CFC00
:101D000002460B4610461946FEF74EFF07EE900AB4
:101D100038EE677A914B1B68914A52F8233007EEF0
:101D2000903AF8EEE77A77EE277AFDEEE77A17EE4B
:101D3000903AC7F88C30D7F89C30DA0F13445B1018
:101D400007EE903AB8EEE78AD7F8A4300133804A1C
:101D500052F82330DA17BB60FA6040F21A624FF093
:101D60000003D7E90201FEF76FFF02460B4610465B
:101D70001946D7F89C20D30F13445B10DA17984606
:101D80009146B0EB08033B6061EB09037B60D7E948
:101D90000001FEF7FBFB6F4B1B686F4ADB0013442F
:101DA000D3E90023FEF728FC02460B4610461946ED
:101DB000FEF7FAFE07EE900A38EE677A674B1B686B
:101DC000674A52F8233007EE903AF8EEE77A77EE5A
:101DD000277AFDEEE77A17EE903AC7F88830D7F801
:101DE0008C20D7F89C309A4223DCD7F88820D7F88B
:101DF0009C309A421DDCD7F88C30002B19DBD7F8C9
:101E00008830002B15DBD7F8A430D8B2D7F88C3047
:101E1000D9B2D7F8A430DBB20133DAB2D7F88830C0
:101E2000DBB2009313460A4601464E4803F042FBDC
:101E300078E0D7F88C30002B15DCD7F88830002BF1
:101E400011DBD7F8A430D9B2D7F8A430DBB2013314
:101E5000DAB2D7F88830DBB200931346002241484B
:101E600003F028FB5EE0D7F88C30002B17DBD7F8A7
:101E70008830002B13DCD7F8A430D8B2D7F88C30D8
:101E8000D9B2D7F8A430DBB20133DAB20023009321
:101E900013460A460146334803F00CFB42E0D7F8EC
:101EA0008C20D7F89C309A421BDDD7F88C20D7F8CD
:101EB0009C309A4215DCD7F8A430D8B2D7F89C30C1
:101EC000D9B2D7F8A430DBB20133DAB2D7F8883010
:101ED000DBB2009313460A460146224803F0EAFAB1
:101EE00020E0D7F88C20D7F89C309A421ADCD7F83B
:101EF0008C20D7F89C309A4214DDD7F8A430D8B2A1
:101F0000D7F88C30D9B2D7F8A430DBB20133DAB2CB
:101F1000D7F89C30DBB2009313460A4601461148BD
:101F200003F0C8FAD7F8A4300133C7F8A430D7F8C3
:101F3000A0300933D7F8A4209A427FF7ABAE00BF98
:101F400000BFB037BD46BDEC028BBDE8B08F00BF0F
:101F50005809002054020020580200208403002069
:101F60008C0300201C0D00202DE9F043AFB004AF1E
:101F7000002387F8A730C04802F091F90121BE483C
:101F800003F023FADC23C7F898306E23C7F89430A7
:101F9000D7F89830DAB2D7F89430DBB20133DBB23D
:101FA000009313460A220A21B34801F0DBFFB3492C
:101FB000B14803F099F80923C7F8A03001F0A8FB55
:101FC0000346AF4A934203D10023C7F8A03044E050
:101FD00001F09EFB0346AB4A934203D10123C7F8AD
:101FE000A0303AE001F094FB0346A74A934203D1A4
:101FF0000223C7F8A03030E001F08AFB0346A34A71
:10200000934203D10323C7F8A03026E001F080FB00
:1020100003469F4A934203D10423C7F8A0301CE033
:1020200001F076FB03469B4A934203D10523C7F890
:10203000A03012E001F06CFB0346974A934203D1B3
:102040000623C7F8A03008E001F062FB0346934A7C
:10205000934202D10723C7F8A030D7F8A030092B4C
:1020600051D08F49D7F8A02013465B001344DB0002
:102070000B441B68FB608A49D7F8A02013465B001D
:102080001344DB000B4404331968B9608449D7F862
:10209000A02013465B001344DB000B44083319688F
:1020A0007F48D7F8A02013465B001344DB000344AD
:1020B0000C3318687A4ED7F8A02013465B001344FF
:1020C000DB00334410331E68754A7A60D7F8A020CD
:1020D00013465B001344DB007A68134414331B6817
:1020E00007F1140C0393029601900091BB68FA6803
:1020F0006C4960460BF0A0F907F114031E2232214F
:102100005D4802F04FFF97F8A730002B36D16649A3
:102110004FF000024FF00003C1E90023E623C7F8A7
:102120009C3016E0614AD7F89C3052F82330DA1719
:102130001C4615465C4BD3E9002314EB020845EB23
:102140000309594BC3E90089D7F89C300133C7F81C
:102150009C30D7F89C30F02BE4DD534BD3E90001E1
:102160004FF00B024FF00003FEF76EFD02460B46E8
:102170004D49C1E90023012387F8A7301E230093AE
:102180003C2328225A213C4801F0ECFED7F8A0005D
:10219000FFF77AFB87ED220B434BD3E90023104670
:1021A0001946FEF7F3F92CA3D3E90023FEF724FA2E
:1021B00002460B46C7E920233B4BD3E900231046D8
:1021C0001946FEF7E3F926A3D3E90023FEF714FA34
:1021D00002460B46C7E91E23334BD3E900231046C2
:1021E0001946FEF7D3F920A3D3E90023FEF704FA3A
:1021F00002460B46C7E91C232B4BD3E900231046AC
:102200001946FEF7C3F91AA3D3E90023FEF7F4F940
:1022100002460B46C7E91A23234BD3E90023134395
:1022200068D0D7E91C23D7E92201FEF761FC0346F9
:10223000002B3FD0D7E92023D7E92201FEF76CFC21
:102240000346002B36D01A4B3C226E210A4802F07E
:10225000A9FE55E0AFF30080FA7E6ABC7493683F34
:102260003BDF4F8D976E823F6EA301BC0512743F1A
:10227000BA490C022B87763F1C0D00206CFC00082D
:1022800010FB000834FB000858FB00087CFB00082A
:10229000A0FB0008C4FB0008E8FB00080CFC0008D9
:1022A00004000020CCF90008B80D002058090020D7
:1022B000ACF80008D7E91A23D7E92201FEF722FC7F
:1022C0000346002B0FD0D7E91E23D7E92201FEF7E2
:1022D00005FC0346002B06D0214B3C226E212148F1
:1022E00002F060FE0CE0204B3C2273211D4802F0FE
:1022F00059FE05E01C4B3C2273211A4802F052FEA5
:10230000DC2349220A21174802F0FAFF07F14C00AA
:10231000D7E91C2315490BF08FF807F13000D7E9F6
:102320001A2313490BF088F807F14C035A221E2197
:102330000C4802F037FE07F130036E221E210948D7
:1023400002F030FE074801F0BEFF0346002B7FF489
:102350001FAE00BF00BFAC37BD46BDE8F08300BF75
:10236000B4F800081C0D0020A8F80008E4F90008E3
:10237000F8F9000880B483B000AF0346FB71094B45
:102380001B6800225A6200BF064B1B685A6AFB7921
:102390009A42F9D300BF00BF0C37BD465DF8047BFD
:1023A000704700BF2008002080B584B000AFF860FF
:1023B0007B600B46FB721346BB72FB7A283B222BD9
:1023C00000F2C78001A252F823F000BF5924000890
:1023D0009F2400088B24000877240008A924000803
:1023E00053250008532500085325000853250008ED
:1023F00053250008532500085325000853250008DD
:1024000053250008532500085325000853250008CC
:1024100053250008532500085325000853250008BC
:10242000532500085325000853250008C12400083F
:10243000D1240008E1240008EF240008FD2400084E
:102440000B25000819250008272500084525000848
:10245000532500083525000801224FF480513F48DC
:1024600004F078FA012202213C4804F073FA0120BA
:1024700006F03CFE6DE0BB7A394AA2FB0323DB0881
:10248000DBB21846FFF776FF63E0BB7A1A4692008C
:1024900013445B00DBB21846FFF76CFF59E0BB7AD0
:1024A000184606F023FE54E0BB7A2E4A82FB031244
:1024B0009211DB17D31ADBB21846FFF75BFF48E037
:1024C000BB7A1A464FF40071244804F043FA40E006
:1024D000BB7A1A464FF48071204804F03BFA38E08A
:1024E000BB7A1A4680211D4804F034FA31E0BB7AE9
:1024F0001A464021194804F02DFA2AE0BB7A1A4600
:102500002021164804F026FA23E0BB7A1A4610214F
:10251000124804F01FFA1CE0BB7A1A4608210F4843
:1025200004F018FA15E0BB7A1A4604210B4804F0AF
:1025300011FA0EE0BB7A1A464FF40041074804F046
:1025400009FA06E0BB7A1A460221044804F002FAAE
:1025500000BF012318461037BD4680BD0018024059
:10256000CDCCCCCCD34D6210B0B582B000AF78608A
:102570007B681B682E4A93424CD12E4B1B78012B53
:1025800048D10021786805F06FFF034600221C4601
:102590001546294BC3E9004521A3D3E90023104682
:1025A0001946FDF7F3FF04460D46234BD3E90023FC
:1025B00010461946FDF7F2FF02460B462046294613
:1025C000FEF71AF802460B4614461D4616A3D3E939
:1025D000002310461946FDF7D9FF02460B46204658
:1025E0002946FEF733F902460B4643EC172BB0EEB3
:1025F000470AF0EE670A09F095FA53EC102B1046E3
:102600001946FEF7A9FA03461846FFF7EDF9094BFC
:1026100000221A7000BF0837BD46B0BDAFF300807E
:1026200000CA9A3B0000000000BD01050000000048
:1026300000480140000000204809002080B582B019
:1026400000AF78607B681B680E4A934209D10E4B3D
:102650001B6800225A620D4B01221A700C4B00229B
:102660001A707B681B680B4A934207D1084B1B7892
:10267000002B03D00021084805F00EF900BF0837F1
:10268000BD4680BD00080040680800200000002012
:10269000C00D0020001C0040F808002080B500AFED
:1026A00003F05CFE00F082F800F0F4FA00F0C2F9EA
:1026B00000F05CF900F0E4F800F00AFA00F050FADB
:1026C00000F09AFA294B1B68DA68284B1B6842F025
:1026D0000102DA600421254805F0DEF804212348D0
:1026E00004F06AFF0021224805F0D6F800212048B6
:1026F00004F062FF00211F4804F05EFF00211E4825
:1027000005F05CFA40F2DC5003F06AFE1B4B1C4AF9
:102710001C491D4801F038FF1B4803F053FD002100
:10272000194803F05EFD1949194801F045F81748AA
:1027300001F006F800F0F8FF03461946134801F0CF
:102740000FF806F0F7FB134A0021134806F03CFC93
:102750000346124A1360124A0021124806F034FC64
:102760000346114A136006F009FCFEE790070020BB
:10277000B0080020F808002068080020A9230008FD
:10278000C55B00084C4201081C0D0020A4FA00089B
:10279000351400085CFA0008012F000840090020E9
:1027A00080FA0008893500084409002080B594B0FB
:1027B00000AF07F120033022002118460AF09FFEE7
:1027C00007F10C0300221A605A609A60DA601A61FD
:1027D0000023BB60284B1B6C274A43F080531364D3
:1027E000254B1B6C03F08053BB60BB6800237B60F0
:1027F000224B1B68214A43F4804313601F4B1B6824
:1028000003F480437B607B6801233B624FF4803399
:102810007B620223BB634FF48003FB6306233B64AC
:10282000A8237B640223BB640423FB6407F1200319
:10283000184604F0A9F80346002B01D000F062FF0F
:102840000F23FB6002233B6100237B614FF4A05305
:10285000BB614FF48053FB6107F10C03052118465F
:1028600004F00AFB0346002B01D000F04BFF00BF31
:102870005037BD4680BD00BF0038024000700040A8
:1028800080B58EB000AF07F1280300221A605A60AD
:102890009A60DA6007F1200300221A605A603B1D3B
:1028A00000221A605A609A60DA601A615A619A616D
:1028B0002C4B2D4A1A602B4B53225A60294B002275
:1028C0009A60284B40F2E732DA60264B00221A6108
:1028D000244B80229A61234804F0AEFD0346002B6E
:1028E00001D000F00FFF4FF48053BB6207F12803C3
:1028F00019461C4805F0F0FC0346002B01D000F0FF
:1029000001FF184804F06EFF0346002B01D000F0D1
:10291000F9FE00233B6200237B6207F12003194686
:10292000104806F033FA0346002B01D000F0EAFE0F
:1029300060237B600923BB600023FB6004237B6171
:102940003B1D04221946074805F004FC0346002BF2
:1029500001D000F0D7FE034801F05EF800BF383721
:10296000BD4680BD900700200008004080B58CB0B7
:1029700000AF07F1200300221A605A609A60DA6003
:102980003B1D00221A605A609A60DA601A615A612F
:102990009A61264B264A1A60244B53225A60234BD5
:1029A00000229A60214B40F2E732DA601F4B00228E
:1029B0001A611E4B80229A611C4804F03DFD0346BB
:1029C000002B01D000F09EFE4FF480533B6207F1D4
:1029D00020031946154805F07FFC0346002B01D063
:1029E00000F090FE114804F0FDFE0346002B01D0DC
:1029F00000F088FE60237B604FF4FA73BB60002315
:102A0000FB6004237B613B1D00221946074805F04B
:102A1000A1FB0346002B01D000F074FE034800F038
:102A2000FBFF00BF3037BD4680BD00BFD807002088
:102A30000040014080B588B000AF3B1D00221A6005
:102A40005A609A60DA601A615A619A611E4B1F4A95
:102A50001A601D4B53225A601B4B00229A601A4B7E
:102A60004FF6FF72DA60184B00221A61164B0022F3
:102A70009A61154804F0E0FC0346002B01D000F0F9
:102A800041FE114804F0AEFE0346002B01D000F0D9
:102A900039FE60237B600023BB600023FB600023C2
:102AA0007B613B1D00221946074805F053FB034696
:102AB000002B01D000F026FE034800F0ADFF00BF60
:102AC0002037BD4680BD00BF2008002000440140E3
:102AD00080B584B000AF3B4600221A605A609A600D
:102AE000DA601D4B1D4A1A601B4B00225A601A4BBC
:102AF00000229A60184B4FF6FF72DA60164B0022E4
:102B00001A61154B80229A61134804F095FC034624
:102B1000002B01D000F0F6FD0F4804F0F5FF03464E
:102B2000002B01D000F0EEFD00233B6001237B6011
:102B30000023BB600023FB603B4600221946064889
:102B400005F06CFA0346002B01D000F0DBFD00BF5E
:102B50001037BD4680BD00BF680800200048014016
:102B600080B588B000AF3B1D00221A605A609A60A1
:102B7000DA601A615A619A611D4B1E4A1A601C4B39
:102B800000225A601A4B00229A60194B3722DA60F1
:102B9000174B00221A61164B80229A61144804F0E8
:102BA0004BFC0346002B01D000F0ACFD104804F0B4
:102BB00019FE0346002B01D000F0A4FD60237B60CA
:102BC0001C23BB600023FB6004237B613B1D0022B0
:102BD0001946074805F0BEFA0346002B01D000F065
:102BE00091FD034800F018FF00BF2037BD4680BDAF
:102BF000B0080020001C004080B588B000AF3B1D2D
:102C000000221A605A609A60DA601A615A619A6109
:102C10001E4B1F4A1A601D4B53225A601B4B002249
:102C20009A601A4B40F2E732DA60184B00221A61C0
:102C3000164B00229A61154804F0FEFB0346002B58
:102C400001D000F05FFD114804F0CCFD0346002BDD
:102C500001D000F057FD60237B600323BB6000239D
:102C6000FB6004237B613B1D00221946074805F0E9
:102C700071FA0346002B01D000F044FD034800F038
:102C8000CBFE00BF2037BD4680BD00BFF808002046
:102C90000020004080B58EB000AF07F12403002271
:102CA0001A605A609A60DA601A6100233B628C4BAA
:102CB0001B6B8B4A43F010031363894B1B6B03F0B0
:102CC00010033B623B6A0023FB61854B1B6B844A0C
:102CD00043F004031363824B1B6B03F00403FB619B
:102CE000FB690023BB617E4B1B6B7D4A43F02003D5
:102CF00013637B4B1B6B03F02003BB61BB69002399
:102D00007B61774B1B6B764A43F080031363744BF4
:102D10001B6B03F080037B617B6900233B61704B7D
:102D20001B6B6F4A43F0010313636D4B1B6B03F086
:102D300001033B613B690023FB60694B1B6B684AE5
:102D400043F002031363664B1B6B03F00203FB604B
:102D5000FB680023BB60624B1B6B614A43F040037E
:102D600013635F4B1B6B03F04003BB60BB68002326
:102D70007B605B4B1B6B5A4A43F008031363584B51
:102D80001B6B03F008037B607B68002249F2FE3175
:102D9000544803F0DFFD00224FF40071524803F065
:102DA000D9FD00224FF4AA41504803F0D3FD4FF65D
:102DB000DF537B620323BB620023FB6207F1240322
:102DC0001946494803F012FC43F6FF737B62032364
:102DD000BB620023FB6207F124031946444803F059
:102DE00005FC4FF63F437B620323BB620023FB627B
:102DF00007F1240319463F4803F0F8FB49F6FF7337
:102E00007B620323BB620023FB6207F124031946A4
:102E1000394803F0EBFB4FF6FF737B620323BB6281
:102E20000023FB6207F124031946344803F0DEFB5C
:102E300046F601437B620323BB620023FB6207F17A
:102E400024031946274803F0D1FB49F2FE337B6285
:102E50000123BB620023FB6200233B6307F12403D1
:102E60001946204803F0C2FB4FF400737B62012334
:102E7000BB620023FB6203233B6307F12403194673
:102E8000194803F0B3FB4FF4AA437B620123BB62F2
:102E90000023FB6200233B6307F124031946134818
:102EA00003F0A4FB40F6AE237B620323BB62002346
:102EB000FB6207F1240319460C4803F097FB48F224
:102EC00051037B620023BB620123FB6207F12403F1
:102ED0001946064803F08AFB00BF3837BD4680BD5F
:102EE000003802400018024000100240000C02406E
:102EF00000080240001402400000024000040240AA
:102F0000F0B58FB006AFF860A84B1B78082B00F225
:102F1000228301A252F823F0413500083D2F00081A
:102F20005B2F0008792F00080730000827300008C1
:102F300089300008E53000081133000800F0E8FB94
:102F400003461C6800F0F0FB03461946204600F0DB
:102F500007FC964B00221A7008E300F0D9FB0346E9
:102F60005C6800F0E1FB03461946204600F0F8FBE0
:102F70008E4B00221A70F9E200F0CAFB03468C4A1D
:102F800093420BD18B4801F08AF9FEF755FD894831
:102F900001F099F90346002BF7D1E7E200F0B8FB06
:102FA0000346854A93420BD1824801F078F9FEF737
:102FB0001FF9804801F087F90346002BF7D1D5E2CD
:102FC00000F0A6FB03469B687C4A93420BD17948EC
:102FD00001F065F9FEF7C8FF764801F074F9034681
:102FE000002BF7D1C2E200F093FB0346DC6800F04F
:102FF0009BFB0346DB681946204600F0B1FB6B4B98
:1030000000221A70B2E200F083FB03469C6800F0D5
:103010008BFB03469B681946204600F0A1FB634BDF
:1030200000221A70A2E200F073FB0346604A93424A
:1030300013D1634B1B68082293420ADA604B1B686A
:1030400001335F4A13605B4801F090F8594801F082
:1030500000F9564B03221A7081E200F059FB034637
:103060009B68564A934240F07A8205231A46554B94
:103070001B689A4204DD534B1B680133514A1360AD
:103080004A4B00221A706AE200F042FB0346484AAB
:10309000934212D14A4B1B68002B0ADD484B1B6838
:1030A000013B474A1360434801F060F8414801F092
:1030B000D0F83E4B03221A7053E200F029FB03467E
:1030C0009B683E4A934240F04C823E4B1B68002B6B
:1030D00004DD3C4B1B68013B3A4A1360334B002232
:1030E0001A703EE200F014FB0346314A934214D1B9
:1030F000354B1A68354B1B689A420ADA324B1B680B
:103100000133314A13602B4801F030F8294801F0AF
:10311000A0F8264B03221A7025E200F0F9FA0346C4
:103120009B68264A934240F01E820923FB6100F00F
:10313000EFFA0346264A934202D10023FB615DE089
:1031400000F0E6FA0346234A934202D10123FB61D1
:1031500054E000F0DDFA03461F4A934202D10223F5
:10316000FB614BE000F0D4FA03461C4A934202D1C3
:103170000323FB6142E000F0CBFA0346184A934276
:1031800002D10423FB6139E000F0C2FA0346154A7C
:10319000934202D10523FB6130E000F0B9FA034607
:1031A000114A934222D10623FB6127E08C070020BD
:1031B000ECFA00081C0D0020C8FA0008A4FA000868
:1031C00054020020500900208403002088030020BE
:1031D00010FB000834FB000858FB00087CFB0008CB
:1031E000A0FB0008C4FB0008E8FB000800F090FA10
:1031F0000346914A934201D10723FB61FB69092BE6
:1032000023D08E4B19688E48FA6913465B0013442D
:103210005B000B4450F82330002B16DD874B1968F8
:103220008748FA6913465B0013445B000B4450F86F
:103230002330824A1068591E814CFA6913465B009C
:1032400013445B00034444F823100023BB6156E0A1
:10325000BA6913469B0013449A001344794A9E1896
:10326000BA6913469B0013449A001344764A03EB51
:10327000020C7349BA6913465B001344DB000B442C
:103280001B68BB606E49BA6913465B001344DB00E0
:103290000B44043319686A48BA6913465B00134447
:1032A000DB00034408331868654CBA6913465B00B9
:1032B0001344DB0023440C331C68614DBA69134688
:1032C0005B001344DB002B4410331D685C4A7A60BA
:1032D000BA6913465B001344DB007A681344143365
:1032E0001B6804930395029401900091BB686246A9
:1032F000564930460AF0A0F8BB690133BB61082388
:103300001A46BB699342A3D3514B00221A702AE19B
:1033100000F0FEF903464F4A934212D14E4B1B6810
:10332000002B0ADD4C4B1B68013B4B4A13604B489A
:1033300000F01CFF494800F08CFF454B03221A7037
:1033400013E100F0E5F903469B68454A934240F0DB
:103350000C8109237B6100F0DBF90346414A93426B
:1033600002D100237B613DE000F0D2F903463E4AE2
:10337000934202D101237B6134E000F0C9F9034696
:103380003A4A934202D102237B612BE000F0C0F95C
:103390000346374A934202D103237B6122E000F0C7
:1033A000B7F90346334A934202D104237B6119E003
:1033B00000F0AEF90346304A934202D105237B6107
:1033C00010E000F0A5F903462C4A934202D10623EF
:1033D0007B6107E000F09CF90346174A934201D154
:1033E00007237B617B69092B23D0144B1968144890
:1033F0007A6913465B0013445B000B4450F823309A
:10340000082B16DC0D4B19680D487A6913465B00D2
:1034100013445B000B4450F82330084A1068591CD1
:10342000074C7A6913465B0013445B00034444F87D
:10343000231000233B617AE00CFC000850090020B7
:10344000040000208C010020C40000200CFA0008B9
:103450008C070020ECFA0008840300201C0D0020DB
:10346000A4FA000810FB000834FB000858FB000811
:103470007CFB0008A0FB0008C4FB0008E8FB000878
:103480003A6913469B0013449A001344394A9E1824
:103490003A6913469B0013449A001344364A03EBDF
:1034A000020C36493A6913465B001344DB000B44B7
:1034B0001B68BB6031493A6913465B001344DB006B
:1034C0000B44043319682D483A6913465B001344D2
:1034D000DB00034408331868284C3A6913465B0044
:1034E0001344DB0023440C331C68244D3A69134613
:1034F0005B001344DB002B4410331D681F4A7A60C5
:103500003A6913465B001344DB007A6813441433B2
:103510001B6804930395029401900091BB68624676
:103520001749304609F088FF3B6901333B610823A6
:103530001A463B699342A3D3124B00221A7014E03F
:1035400000F0E6F8044600F0EFF80346194620467E
:1035500000F006F90AE00B4B00221A7006E000BFEB
:1035600004E000BF02E000BF00E000BF0A2005F059
:10357000BDFDC9E48C010020C4000020040000202F
:103580000CFA00088C07002090B595B000AF786069
:1035900004233B640423FB63464B07F12C040FCB4D
:1035A00084E80F00444A07F1240392E8030083E80B
:1035B0000300404B07F114040FCB84E80F003F4A8F
:1035C00007F10C0392E8030083E803000023FB6487
:1035D0006AE00023BB6418E0BB6C9B0050333B44A3
:1035E00053F83C0CBB6C5B0050333B4433F8441C39
:1035F000FA6CBB6C9A4214BF01230023DBB21A465B
:1036000003F0A8F9BB6C0133BB64BA6CFB6B9A4244
:10361000E2DB00237B6440E07B6C9B0050333B4447
:1036200053F8242C7B6C5B0050333B4433F82C3C28
:103630001946104603F076F90346002B2AD10021E3
:103640001F4804F029F900BF7B6C9B0050333B44BA
:1036500053F8242C7B6C5B0050333B4433F82C3CF8
:103660001946104603F05EF90346002BECD07B6C44
:10367000DAB23B6CDBB212FB03F3DAB2FB6CDBB207
:103680001344DBB20133DAB20E4B1A7000210C483E
:1036900004F0CAF97B6C01337B647A6C3B6C9A4210
:1036A000BADBFB6C0133FB64FA6CFB6B9A4290DB78
:1036B0008CE700BF24FA000834FA00083CFA00083E
:1036C000D80700208C07002080B582B000AF78605A
:1036D0007B681B68084A934201D102F061FE7B6857
:1036E0001B68064A934202D1054B01221A7000BFA3
:1036F0000837BD4680BD00BF000001400008004003
:10370000C00D002080B400AF72B600BFFEE700001D
:1037100080B400AF034B1B681846BD465DF8047BC0
:10372000704700BF8005002080B400AF034B1B68CA
:103730001846BD465DF8047B704700BF8405002035
:1037400080B483B000AF7860044A7B68136000BF28
:103750000C37BD465DF8047B704700BF8405002030
:1037600080B582B000AF786039607B680E4A9342C2
:1037700015D07B68002B12D00C4A7B6813600C4A72
:103780003B6813600B4B1B68002B09D0094B1B686F
:10379000064A1268064909681046984700E000BFCB
:1037A0000837BD4680BD00BF30FC00088005002002
:1037B00084050020C40D002080B483B000AF786081
:1037C0003960044A7B68136000BF0C37BD465DF862
:1037D000047B7047C40D002080B582B000AF002389
:1037E0007B60124B5B6C114A43F4804353640F4B74
:1037F0005B6C03F480437B607B6800233B600B4B76
:103800001B6C0A4A43F080531364084B1B6C03F093
:1038100080533B603B6800220F216FF0010002F0F3
:10382000BBFE00BF0837BD4680BD00BF0038024068
:1038300080B592B000AF786007F1340300221A60BF
:103840005A609A60DA601A6107F1240300221A6054
:103850005A609A60DA607B681B68674A934216D1A7
:1038600000233B62654B1B6C644A43F00403136402
:10387000624B1B6C03F004033B623B6A00220F2186
:103880001E2002F089FE1E2002F0A2FEAFE07B683F
:103890001B685B4A93420ED10023FB61574B5B6C64
:1038A000564A43F480335364544B5B6C03F48033C7
:1038B000FB61FB699BE07B681B68524A934216D10F
:1038C0000023BB614D4B5B6C4C4A43F400335364A3
:1038D0004A4B5B6C03F40033BB61BB6900220F21D0
:1038E000192002F059FE192002F072FE7FE07B6879
:1038F0001B68454A934243D102237B624FF4007315
:103900003B6307F12403184603F0B4FC0346002B85
:1039100001D0FFF7F7FE00237B61384B5B6C374A21
:1039200043F480235364354B5B6C03F480237B6149
:103930007B6900233B61314B1B6B304A43F0200312
:1039400013632E4B1B6B03F020033B613B69802309
:103950007B630223BB630023FB6300233B640323DD
:103960007B6407F134031946284802F03FFE002229
:103970000F211A2002F010FE1A2002F029FE36E074
:103980007B681B68224A934216D10023FB601B4BC5
:103990001B6C1A4A43F080031364184B1B6C03F032
:1039A0008003FB60FB68002205212C2002F0F4FD5F
:1039B0002C2002F00DFE1AE07B681B68154A93422A
:1039C00015D10023BB600D4B1B6C0C4A43F4807374
:1039D00013640A4B1B6C03F48073BB60BB6800224A
:1039E00005212D2002F0D8FD2D2002F0F1FD00BFB1
:1039F0004837BD4680BD00BF000800400038024087
:103A000000400140004401400048014000140240D1
:103A1000001C00400020004080B58CB000AF7860F2
:103A200007F11C0300221A605A609A60DA601A617A
:103A30007B681B685B4A93421FD10023BB615A4BD2
:103A40001B6B594A43F008031363574B1B6B03F07E
:103A50000803BB61BB694FF40053FB6102233B6267
:103A600002237B620223BB620223FB6207F11C0379
:103A700019464E4802F0BAFD90E07B681B684C4A3C
:103A800093421ED100237B61474B1B6B464A43F098
:103A900010031363444B1B6B03F010037B617B69C2
:103AA0002023FB6102233B6200237B620023BB6275
:103AB0000323FB6207F11C0319463E4802F096FD02
:103AC0006CE07B681B683C4A93421ED100233B613B
:103AD000354B1B6B344A43F020031363324B1B6B93
:103AE00003F020033B613B694023FB6102233B62FF
:103AF00000237B620023BB620323FB6207F11C03EC
:103B000019462E4802F072FD48E07B681B682C4A7B
:103B100093421FD10023FB60234B1B6B224A43F0CF
:103B200020031363204B1B6B03F02003FB60FB6837
:103B30004FF48073FB6102233B6202237B62032309
:103B4000BB620923FB6207F11C0319461B4802F004
:103B50004DFD23E07B681B681A4A93421ED1002367
:103B6000BB60114B1B6B104A43F0200313630E4BD9
:103B70001B6B03F02003BB60BB684FF40073FB6159
:103B800002233B6200237B620223BB620923FB62A8
:103B900007F11C031946094802F028FD00BF303721
:103BA000BD4680BD0008004000380240000C0240C5
:103BB0000040014000100240004401400014024057
:103BC000001C00400020004080B58CB000AF786041
:103BD0000023BB6200237B620023BB602F4B5B6C26
:103BE0002E4A43F0010353642C4B5B6C03F001033A
:103BF000BB60BB6807F10C0207F1100311461846C1
:103C000003F006FB03F0F0FA03465B00BB62BB6AFD
:103C1000234AA2FB03239B0C013B7B62214B224ADC
:103C20001A60204B40F2E732DA601E4A7B6A53602A
:103C30001C4B00221A611B4B00229A60194B002278
:103C40009A61184803F0F8FB034687F82F3097F87D
:103C50002F30002B1BD1134803F03EFC034687F89E
:103C60002F3097F82F30002B11D1192002F0B0FC23
:103C70007B680F2B08D800227968192002F08CFC91
:103C80000A4A7B68136002E0012387F82F3097F817
:103C90002F3018463037BD4680BD00BF0038024087
:103CA00083DE1B43C80D0020000001408C0500206E
:103CB00080B400AFFEE780B400AFFEE780B400AF91
:103CC000FEE780B400AFFEE780B400AFFEE780B44B
:103CD00000AF00BFBD465DF8047B704780B500AF04
:103CE000034804F093F8034804F090F800BF80BD47
:103CF000C80D00202008002080B500AF024804F065
:103D000085F800BF80BD00BF6808002080B500AF07
:103D1000024804F07BF800BF80BD00BF9007002080
:103D200080B500AF024804F071F800BF80BD00BF4D
:103D3000B008002080B500AF024804F067F800BF6B
:103D400080BD00BFF808002080B400AF01231846F2
:103D5000BD465DF8047B704780B582B000AF7860E7
:103D6000396009F0D1FC034616221A604FF0FF3388
:103D700018460837BD4680BD80B582B000AF786078
:103D80004FF0FF317868FFF7E7FFFEE780B586B0B8
:103D900000AFF860B9607A6000237B610AE0AFF39E
:103DA00000800146BB685A1CBA60CAB21A707B69AF
:103DB00001337B617A697B689A42F0DB7B68184645
:103DC0001837BD4680BD80B586B000AFF860B960D9
:103DD0007A6000237B6109E0BB685A1CBA601B78DB
:103DE0001846AFF300807B6901337B617A697B6899
:103DF0009A42F1DB7B6818461837BD4680BD80B417
:103E000083B000AF78604FF0FF3318460C37BD46E3
:103E10005DF8047B704780B483B000AF7860396090
:103E20003B684FF400525A60002318460C37BD46D9
:103E30005DF8047B704780B483B000AF78600123E5
:103E400018460C37BD465DF8047B704780B485B0DA
:103E500000AFF860B9607A60002318461437BD4699
:103E60005DF8047B7047000080B586B000AF7860D5
:103E7000144A154BD31A7B617B693B61134B1B685A
:103E8000002B02D1114B124A1A60104B1A687B6842
:103E900013443A699A4207D209F036FC03460C22D1
:103EA0001A604FF0FF3309E0084B1B68FB60074BBB
:103EB0001A687B681344054A1360FB681846183774
:103EC000BD4680BD0000022000400000100E002012
:103ED000481B012080B400AF064BD3F88830054A58
:103EE00043F47003C2F8883000BFBD465DF8047B20
:103EF000704700BF00ED00E080B584B002AF78608D
:103F0000084611461A460346FB700B46BB70134623
:103F10007B70FA787B781344D8B2BA783B7C134430
:103F2000DBB2BA78F97800930346786801F097FA23
:103F30000346002B12D00DE07B78BA78F978002088
:103F40000090786801F059F9BB780133BB703B7C75
:103F5000013B3B743B7C002BEED100E000BF0837F7
:103F6000BD4680BD80B586B002AF78600846114678
:103F70001A460346FB700B46BB7013467B70FB78FA
:103F8000FB73FA787B781344D8B2BA783B7E13443B
:103F9000DBB2BA78F97800930346786801F05FFAEB
:103FA0000346002B2ED07B78BA78F9780020009059
:103FB000786801F022F93B7EBA78F9780120009008
:103FC000786801F01AF9FA787B781344FB70FB7873
:103FD000013BFB703B7EBA78F9780120009078684D
:103FE00001F00BF9BA783B7E1344BB70BB78013B00
:103FF000BB707B78BA78F97B00200090786801F07C
:10400000FCF800E000BF1037BD4680BD80B586B02B
:1040100002AF7860084611461A460346FB700B460D
:10402000BB7013467B70FA787B781344D8B2BA78A9
:104030003B7E1344DBB2BA78F97800930346786884
:1040400001F00DFA0346002B00F08C80FB78FB7327
:10405000FA7B3B7F1344FB73BB78BB73BA7B3B7F1C
:104060001344BB73FB787B737A7B7B7813447B733D
:104070007A7B3B7FD31A7B737B7B013B7B73BB7863
:104080003B733A7B3B7E13443B733A7B3B7FD31AB3
:104090003B733B7B013B3B733B7FBA7BF97B02204D
:1040A0000090786800F027FA3B7FBA7B797B01208B
:1040B0000090786800F01FFA3B7F3A7BF97B042080
:1040C0000090786800F017FA3B7F3A7B797B0820F4
:1040D0000090786800F00FFA7B78FB72FA7A3B7FE9
:1040E000D31AFB72FA7A3B7FD31AFB72FB7B013344
:1040F000FB73BB7B0133BB73FB7A022B18D9FB7AB2
:10410000023BFB723B7F0133DBB2F87ABA78F97B72
:10411000009303467868FFF7EFFE3B7F0133DBB285
:10412000F87A3A7BF97B009303467868FFF7E4FE60
:104130003B7EBB72BA7A3B7FD31ABB72BA7A3B7FA3
:10414000D31ABB72BB7A022B0DD9BB7A023BBB726E
:104150007878BA7BF978BB7A009303467868FFF7E2
:10416000CBFE00E000BF1037BD4680BD80B584B0F7
:1041700000AF78607B681B681B7CFB607B6893F8F2
:104180003C301A46FB6802FB03F3FB60FB68DB0074
:10419000FB607B689B6BFA680021184609F0AFF959
:1041A00000BF1037BD4680BD80B586B002AF7860D5
:1041B0000B46FB701346BB707B681B681B7CFB7354
:1041C000FB78BB817B689B6BBB60FB7B9BB2BA8936
:1041D00012FB03F3BB81BB89DB00BB81BB89BA68DF
:1041E0001344BB60F97BBA78BB6800930B4600218F
:1041F000786801F0B6FF00BF1037BD4680BD80B5BE
:1042000084B000AF78600023FB737B6893F83C3088
:104210007B737B6893F83D30BB737B681B685B7C6A
:104220003B73BA7BFB7B19467868FFF7BDFFFB7BCE
:104230000133FB73BB7B0133BB73FA7B7B7B9A42FD
:1042400003D2BA7B3B7B9A42EBD300BF1037BD460B
:1042500080BD80B582B000AF78607868FFF7CFFF8F
:10426000786801F0CFFF00BF0837BD4680BD80B53C
:1042700082B000AF78600B46FB707B68FA7883F8F9
:104280003D207B685B6B1B68786898477B685B6B3D
:104290005B687868984700BF0837BD4680BD80B529
:1042A00082B000AF78607B6893F88730002B02D033
:1042B0007868FFF75BFF00217868FFF7D8FF00BF41
:1042C0000837BD4680BD80B584B000AF786078689F
:1042D000FFF795FF7B6893F83D30FB737B6893F89D
:1042E0003C20FB7B1344FB737B681B685B7CFA7B85
:1042F0009A4204D3786801F085FF00230DE07B68C3
:1043000093F88730002B02D07868FFF72FFFFB7BF4
:1043100019467868FFF7ABFF012318461037BD46F2
:1043200080BD80B582B000AF7860084611461A465D
:104330000346FB700B46BB7013467B703B7D03F05E
:104340000103002B1BD07A78FB781344D9B23A7C56
:10435000BB78D31ADAB2BB780133DBB2786800F0ED
:10436000E8FF7A78BB781344D9B23A7CFB78D31A49
:10437000DAB2FB780133DBB2786800F0DAFF3B7D1C
:1043800003F00203002B1BD07A78FB78D31AD9B242
:104390003A7CBB78D31ADAB2BB780133DBB27868E7
:1043A00000F0C7FF7A78BB78D31AD9B23A7CFB7891
:1043B000D31ADAB2FB780133DBB2786800F0B9FFC8
:1043C0003B7D03F00803002B15D07A78FB7813446B
:1043D000D9B2BB780133DBB23A7C786800F0A9FF30
:1043E0007A78BB781344D9B2FB780133DBB23A7CDC
:1043F000786800F09EFF3B7D03F00403002B15D08E
:104400007A78FB78D31AD9B2BB780133DBB23A7C25
:10441000786800F08EFF7A78BB78D31AD9B2FB782F
:104420000133DBB23A7C786800F083FF00BF0837C5
:10443000BD4680BD80B586B002AF786008461146A3
:104440001A460346FB700B46BB7013467B70012374
:10445000FB73FA7B7B78D31ADBB2FB730123BB734C
:1044600000237B737A7B7B78D31ADBB27B737B7BF5
:104470005B00DBB27B7300233B737B78FB72F878C5
:10448000FA7A397B3B7E0193BB78009303467868C8
:10449000FFF747FF26E097F90F30002B0BDBFB7A85
:1044A000013BFB727B7B0233DBB27B73FA7B7B7B52
:1044B0001344DBB2FB733B7B01333B73BB7B0233A7
:1044C000DBB2BB73FA7BBB7B1344DBB2FB73F878C4
:1044D000FA7A397B3B7E0193BB7800930346786878
:1044E000FFF71FFF3A7BFB7A9A42D4D300BF00BF8D
:1044F0001037BD4680BD90B585B002AF78600846E4
:1045000011461A460346FB700B46BB7013467B7080
:10451000FA787B78D31AD9B2BA787B78D31AD8B222
:10452000FA787B781344DBB20133DCB2BA787B785B
:104530001344DBB20133DBB20093234602467868B2
:1045400000F08DFF0346002B09D07878BA78F9780F
:104550003B7E009303467868FFF76CFF00E000BFE6
:104560000C37BD4690BD000080B483B000AF7860CA
:104570007B6802221A70034B18460C37BD465DF863
:10458000047B7047140E002080B588B002AFF8603D
:10459000B9607A603B603B6800937B680B4A0C49CA
:1045A000F86801F093FE07F113031846FFF7DCFFEC
:1045B0007861FA7CBB680093064B7969F86801F072
:1045C000CEF800BF1837BD4680BD00BF815E000831
:1045D00061600008E355000880B483B000AF7860E4
:1045E0000B46FB70FB787A6813447B607B681B7812
:1045F00018460C37BD465DF8047B704780B485B023
:1046000000AF78600B46FB70FB787A6813447B60E0
:104610007B681B78FB817B6801337B60FB891B0215
:10462000FB817B681B789AB2FB891344FB81FB8971
:1046300018461437BD465DF8047B704780B582B0DC
:1046400000AF7860396000213868FFF7C5FF034686
:104650001A467B681A7001213868FFF7BDFF0346D0
:104660001A467B685A7002213868FFF7B5FF034687
:104670001A467B689A7003213868FFF7ADFF03463E
:104680001A467B68DA7004213868FFF7A5FF0346F5
:104690001A467B681A7105213868FFF79DFF0346AB
:1046A0001A467B685A7106213868FFF795FF034662
:1046B0001A467B689A7107213868FFF78DFF034619
:1046C0001A467B68DA7108213868FFF785FF0346D0
:1046D0001A467B681A7209213868FFF77DFF034686
:1046E0005AB27B685A720A213868FFF775FF034691
:1046F0005AB27B689A720B213868FFF76DFF034648
:104700005AB27B68DA720C213868FFF765FF0346FE
:104710005AB27B681A730D213868FFF75DFF0346B4
:104720005AB27B685A730E213868FFF755FF03466B
:104730005AB27B689A730F213868FFF74DFF034622
:104740005AB27B68DA7310213868FFF745FF0346D9
:104750005AB27B681A7411213868FFF74FFF03467D
:104760001A467B685A8213213868FFF747FF0346D1
:104770001A467B689A8215213868FFF73FFF034687
:104780001A467B68DA8200BF0837BD4680BD80B418
:1047900085B000AF78600B46FB707B689B7A7B73BB
:1047A0007B681B681B78FB73FA7B7B7B42FA03F305
:1047B000FB737B7BBB73BA7BFB781344BB73BB7B04
:1047C000072B1AD908233B733A7B7B7BD31A3B73A5
:1047D0007B681B685A1C7B681A607B681B681B78A7
:1047E0001A463B7B02FA03F35AB297F90F30134390
:1047F0005BB2FB73BB7B083BBB73FB784FF0FF32B4
:1048000002FA03F3DBB2DB43DAB2FB7B1340FB7348
:104810007B68BA7B9A72FB7B18461437BD465DF8FD
:10482000047B704780B584B000AF78600B46FB70A6
:10483000FB7819467868FFF7AAFF0346FB7301234C
:10484000BB73FB78013BFB7097F90E20FB7802FAF3
:1048500003F3BB73FA7BBB7BD31ADBB2FB7397F911
:104860000F3018461037BD4680BD90B482B000AFFF
:104870000446084611461A462346FB710346BB719F
:104880000B467B7113463B713B79022B10D0022BF8
:1048900013DC002B02D0012B05D00EE07A79FB79D6
:1048A0001344FB710EE0BA79FB791344FB7109E004
:1048B0007B79FA79D31AFB7104E0BB79FA79D31AC0
:1048C000FB7100BFFB7918460837BD4690BC7047A6
:1048D00090B482B000AF0446084611461A462346FB
:1048E000FB710346BB710B467B7113463B713B79F1
:1048F000022B10D0022B13DC002B02D0012B05D091
:104900000EE0BA79FB791344FB710EE07B79FA79FA
:10491000D31AFB7109E0BB79FA79D31AFB7104E071
:104920007A79FB791344FB7100BFFB79184608378D
:10493000BD4690BC704780B588B002AF78600B462A
:10494000FB701346BB707B6858333B61FB78FB758B
:104950003B6993F906307B753B6993F907303B75EA
:104960003B6993F90830FB73FA7B7B7DD31AFB73A9
:10497000FB7BBB75FA7DFB7B9A4201D2FB7DBB754D
:104980003B691B79BB733B695B797B7397F91510A6
:1049900097F914203B699B7BB87BFFF799FF03468F
:1049A000BB7397F9151097F914203B699B7B787BB3
:1049B000FFF75BFF03467B73BB78002B0FD03B698F
:1049C0001A7B7B6883F886203B699B7BB87D7A7B6A
:1049D000B97B00930346786800F00FFC12E03B6956
:1049E000DB7A002B0ED13B695A7B7B6883F88620EB
:1049F0003B699B7BB87D7A7BB97B009303467868E3
:104A000000F0FBFBFA7DFB7B9A4209D3FA7DFB7B2E
:104A1000D31AFB7500237B753B7D01333B759FE704
:104A200000BF7A7DFB7D13447B7597F915203B69A8
:104A30009A7197F914203B69DA7100BF1837BD46A7
:104A400080BD80B584B000AF786039607B68583332
:104A5000FB60FB683A681A60FB6800229A727B6808
:104A600093F86C301946F868FFF791FE03465AB286
:104A7000FB681A727B6893F86D301946F868FFF787
:104A800086FE03465AB2FB685A727B6893F886200A
:104A9000FB681A73FB681B7B002B0CBF01230023F0
:104AA000DBB21A46FB685A7300BF1037BD4680BDA3
:104AB00080B588B002AF786039607B6858333B615D
:104AC00039687868FFF7BDFF7B6893F86130FB7346
:104AD0007B6893F86E3019463869FFF7A3FE0346EA
:104AE000BB737B6893F86F3019463869FFF79AFEFD
:104AF00003467B737B6893F8703019463869FFF77B
:104B000091FE03463B733B6993F90830002B40F359
:104B1000CF803B691879FA7B7B7B1344DBB25B4225
:104B2000DBB25AB23B699B7B97F90E10FFF7D0FEC0
:104B300003461A463B691A713B695879FA7B7B7BBD
:104B40001344DBB25B42DBB25AB23B699B7B97F901
:104B50000E10FFF78AFE03461A463B695A713B69FD
:104B60001B79FB753B695B797B75FB7DBB757B7D39
:104B70003B753B699B7B032B52D801A252F823F073
:104B8000914B0008A94B0008CD4B0008FD4B0008D5
:104B90003B6993F90830DAB2BB7D1344BB75FA7BED
:104BA0003B7D13443B753BE0FB7BFA7DD31AFB75E1
:104BB000FB7D0133FB75BB7D0133BB753B6993F90D
:104BC0000830DAB23B7D13443B7529E03B6993F929
:104BD0000830DBB2FA7DD31AFB75FB7D0133FB7520
:104BE000BB7D0133BB75FB7B7A7DD31A7B757B7DE7
:104BF00001337B753B7D01333B7511E0FA7BBB7D57
:104C00001344BB753B6993F90830DBB27A7DD31A44
:104C10007B757B7D01337B753B7D01333B7500BF2D
:104C2000B87D7A7DF97D3B7D00930346786800F07E
:104C300016FC0346002B02D197F90C303AE03B6991
:104C400000229A713B690022DA717B6893F86A301E
:104C500019463869FFF79BFD0346FB727B6893F8A2
:104C60006B3019463869FFF792FD0346BB72FB7A39
:104C7000002219467868FFF75EFEBB7A01221946CA
:104C80007868FFF758FE01213869FFF780FD034679
:104C9000002BECD13B6993F9073097F90F209A422A
:104CA00000DDD2E700BF3B691A7B7B6883F8862072
:104CB00097F90C3018461837BD4680BD80B586B0D0
:104CC00000AF78600B467B807B681B6D7B617B69E6
:104CD00017337B617B88FF2B2AD87B88602B07D911
:104CE0007B68B3F87C301A467B6913447B6109E02A
:104CF0007B88402B06D97B68B3F87A301A467B69EB
:104D000013447B617B6901331B78002B4ED07B6998
:104D10001B789BB27A889A4202D17B69023349E0C0
:104D20007B6901331B781A467B6913447B61E9E791
:104D30007B68B3F87E301A467B6913447B617B69DC
:104D40003B6100213869FFF759FC03461A467B692D
:104D500013447B6102213869FFF750FC0346FB8155
:104D60003B6904333B61FA897B889A42E9D37B69CA
:104D70001B78FB81FB891B02FB817B6901331B785C
:104D80009AB2FB891343FB81FB89002B10D0FA896F
:104D90007B889A4202D17B6903330BE07B69023343
:104DA0001B781A467B6913447B61E0E700BF00E093
:104DB00000BF002318461837BD4680BD80B584B0BB
:104DC00000AF7860084611461A460346FB700B4652
:104DD000BB7013463B800023FB737B68FA7883F833
:104DE0005C207B68BA7883F85D203B881946786838
:104DF000FFF764FFB860BB68002B05D0B96878681E
:104E0000FFF756FE0346FB73FB7B18461037BD4683
:104E100080BD000080B582B000AF786008461146C2
:104E20001A460346FB700B46BB7013463B807B68FB
:104E300093F86630032B33D801A252F823F000BF59
:104E4000514E0008654E0008794E00088D4E00084E
:104E50007B685B6D7868984703461A46BB781344B5
:104E6000BB701DE07B685B6D7868984703461A4607
:104E7000FB789B1AFB7013E07B685B6D7868984742
:104E800003461A46BB789B1ABB7009E07B685B6DD2
:104E90007868984703461A46FB781344FB7000BFB6
:104EA0003B88BA78F9787868FFF788FF0346184698
:104EB0000837BD4680BD00BF80B586B000AFF86042
:104EC0007B600B46FB721346BB72F86800F09BFDDB
:104ED0000023FB75FB685B687A6812781146F868F6
:104EE00098470346BB82BB8A4FF6FF72934238D085
:104EF0007B6801337B60BB8A4FF6FE729342E9D038
:104F0000BB8ABA7AF97AF868FFF784FF0346FB7424
:104F1000FB6893F86630032B1ED801A252F823F0E9
:104F2000314F00083B4F0008454F00084F4F000825
:104F3000FA7AFB7C1344FB720EE0BA7AFB7C1344D2
:104F4000BB7209E0FA7AFB7CD31AFB7204E0BA7AEE
:104F5000FB7CD31ABB7200BFFA7DFB7C1344FB754C
:104F6000B8E700BFFB7D18461837BD4680BD00BFBF
:104F700080B584B000AFF8607B600B46FB721346CF
:104F8000BB72FB68064A5A60BA7AF97A7B68F8689D
:104F9000FFF792FF034618461037BD4680BD00BF9D
:104FA000235A000880B584B000AFF8607B600B46E0
:104FB000FB721346BB72FB68064A5A60BA7AF97AEA
:104FC0007B68F868FFF778FF034618461037BD4640
:104FD00080BD00BF515A000880B483B000AF786034
:104FE0007B681B6D002B5DD07B6893F975207B6817
:104FF00083F882207B6893F976207B6883F883208E
:105000007B6893F88130002B4DD07B6893F881301A
:10501000012B1CD17B6893F982207B6893F9773050
:105020009A4205DA7B6893F977207B6883F88220BF
:105030007B6893F983207B6893F978309A4232DD5C
:105040007B6893F978207B6883F883202BE07B686A
:1050500093F982301A467B6893F9723019467B685F
:1050600093F974300B449A420DDA7B6893F97230ED
:10507000DAB27B6893F97430DBB21344DBB25AB214
:105080007B6883F882207B6893F983207B6893F99F
:1050900074309A4207DD7B6893F974207B6883F84B
:1050A000832000E000BF0C37BD465DF8047B7047ED
:1050B00080B483B000AF7860002318460C37BD463B
:1050C0005DF8047B7047000080B483B000AF786067
:1050D0007B68044A5A6500BF0C37BD465DF8047B07
:1050E000704700BFB150000880B582B000AF786053
:1050F00039607B681B6D3A689A420BD07B683A68CE
:105100001A657B68683339681846FFF797FA78683C
:10511000FFF762FF00BF0837BD4680BD80B487B08F
:1051200000AFF860B96011461A460B46FB71134692
:10513000BB71FB681B78FB75FB7DBB75BB681A7880
:10514000BB7D1344BB75FA7DBB7D9A420BD9FA7DBA
:10515000BB799A4205D2BB79BB75BB7D013BBB7560
:1051600001E0FB79FB75FA7DBB799A4201D30023FC
:105170001CE0BA7DFB799A4201D8002316E0FA7D43
:10518000FB799A4201D2FB79FB75BA7DBB799A42D1
:1051900001D9BB79BB75FB68FA7D1A70BA7DFB7DBE
:1051A000D31ABB75BB68BA7D1A70012318461C3729
:1051B000BD465DF8047B704790B585B002AF78605E
:1051C000084611461A460346FB700B46BB70134651
:1051D0007B707B6893F84030BA78D31ABB707B68D9
:1051E0001C6B7878BA78F9783B7E00930346786830
:1051F000A04700BF0C37BD4690BD90B585B002AF4B
:105200007860084611461A460346FB700B46BB7091
:1052100013467B707B6893F88030002B6DD07B78D1
:10522000002B6AD07B78012B18D93B7E022B09D149
:10523000FA787B78D31ADBB2FB70FB780133DBB2F0
:10524000FB700BE03B7E032B08D1BA787B78D31A36
:10525000DBB2BB70BB780133DBB2BB703B7E03F0CB
:1052600001033B763B7E002B19D17B6893F84720E6
:10527000BB789A4238D87B6893F84820BB789A422A
:1052800034D97B6893F845207B6893F84630791CC5
:10529000F81CFFF743FF0346002B19D12DE07B6874
:1052A00093F84520FB789A4222D87B6893F84620F1
:1052B000FB789A421ED97B6893F847207B6893F865
:1052C0004830791CB81CFFF729FF0346002B13D088
:1052D0007B685B6B9C68F978BA7878783B7E009342
:1052E00003467868A04708E000BF06E000BF04E07E
:1052F00000BF02E000BF00E000BF0C37BD4690BD1C
:1053000080B584B002AF7860084611461A4603465D
:10531000FB700B46BB7013467B707B78BA78F978CC
:10532000002000907868FFF768FF00BF0837BD468F
:1053300080BD80B584B002AF7860084611461A4639
:105340000346FB700B46BB7013467B707B78BA78C4
:10535000F978012000907868FFF74FFF00BF083709
:10536000BD4680BD80B584B002AF78600B46FB704F
:105370001346BB707B6893F84730BA789A421AD3C9
:105380007B6893F84830BA789A4216D27B6893F8D3
:105390004530FA789A4212D37B6893F84630FA780F
:1053A0009A420ED2BA78F9780023009301237868E4
:1053B000FFF723FF06E000BF04E000BF02E000BFEC
:1053C00000E000BF0837BD4680BD80B483B000AFA9
:1053D00078600B46FB707B68FA7883F88620FB7850
:1053E000022B03D97B68012283F8862000BF0C378B
:1053F000BD465DF8047B704790B482B000AF0446B0
:10540000084611461A462346FB710346BB710B46FC
:105410007B7113463B717A79BB799A420DD23A7906
:10542000FB799A4201D9012314E07A793B799A42B7
:1054300001D901230EE000230CE03A79FB799A426E
:1054400007D97A793B799A4201D9012302E00023F6
:1054500000E0002318460837BD4690BC704780B571
:1054600082B000AF7860084611461A460346FB70CA
:105470000B46BB7013467B707B6893F847007B68D4
:1054800093F848103B7CBA78FFF7B6FF0346002B31
:1054900001D100230AE07B6893F845007B6893F80C
:1054A00046107B78FA78FFF7A7FF034618460837BF
:1054B000BD4680BD80B584B000AF78600846114617
:1054C0001A460346FB700B46BB7013467B700023E5
:1054D0007B72FA787B789A4204D9FA787B78D31A6F
:1054E0007B7303E07A78FB78D31A7B73BA783B7EC0
:1054F0009A4204D9BA783B7ED31A3B7303E03A7ED2
:10550000BB78D31A3B733A7B7B7B9A4213D9012336
:105510007B727B7B3B723B7B7B733B7A3B73FB7881
:105520003B72BB78FB703B7ABB707B783B723B7EF7
:105530007B703B7A3B76FA787B789A420BD9FB7882
:105540003B727B78FB703B7A7B70BB783B723B7E17
:10555000BB703B7A3B767B7B5B08DBB2FB723A7EAF
:10556000BB789A4202D90123BB7201E0FF23BB72D0
:10557000BB78BB737B78FF2B02D17B78013B7B70C0
:10558000FB78FB7324E07B7A002B06D1BA7BFB7B94
:1055900019467868FFF7E6FE05E0FA7BBB7B194603
:1055A0007868FFF7DFFEFA7A3B7BD31ADBB2FB7237
:1055B00097F90B30002B08DABA7ABB7B1344BB7324
:1055C000FA7A7B7B1344DBB2FB72FB7B0133FB7308
:1055D000FA7B7B789A42D6D900BF00BF1037BD4610
:1055E00080BD80B487B000AF7860084611461A4687
:1055F0000346FB700B46BB7013467B70BB78FB7495
:10560000FB7C03F00703FB7401233B743A7CFB7CB7
:1056100002FA03F33B740023BB7400237B747B68A2
:1056200093F88630012B01D83B7CBB747B6893F8E0
:105630008630012B01D03B7C7B74BB78FB81FB89DE
:1056400023F00703FB817B681B681B7C9BB2FA89F4
:1056500012FB03F3FB817B689B6B7B61FB897A699F
:1056600013447B61FB787A6913447B6197F820309F
:10567000002B17D17B691A78BB7C1343DAB27B69A4
:105680001A707B691A787B7C5340DAB27B691A7096
:105690007B6901337B617B78013B7B707B78002BDE
:1056A000E8D139E07B691A78BB7C1343DAB27B69B5
:1056B0001A707B691A787B7C5340DAB27B691A7066
:1056C000FB7C0133FB74FB7C03F00703FB747B78EA
:1056D000013B7B70FB7C002B15D17B6893F83E303F
:1056E0001A467B6913447B617B6893F88630012BF3
:1056F00001D80123BB747B6893F88630012B08D056
:1057000001237B7405E0BB7C5B00BB747B7C5B008E
:105710007B747B78002BC5D100BF1C37BD465DF87C
:10572000047B704780B582B000AF78607B68002250
:1057300083F849207B68002283F84B207B68FF2296
:1057400083F84A207B68FF2283F84C207B685B6BE0
:105750005B687868984700BF0837BD4680BD80B554
:1057600084B000AFF860B9603B601346FB71FB6822
:1057700000221A65FB683A681A63FB68BA689A6384
:10578000FB68FA7983F83C20FB68002283F83D200F
:10579000FB68002283F86320FB68002283F88520E1
:1057A000FB68012283F88620FB68012283F88720AA
:1057B000FB68BA695A63FB685B6B1B68F8689847BB
:1057C000F868FFF7AFFFF868FFF77EFCFB68002280
:1057D00083F8662000BF1037BD4680BD80B485B019
:1057E00000AF78607B681B68BB607B6893F83C30D7
:1057F000FB73FB7BDB00FB737B68FA7B83F83F204A
:10580000BB681B7CFB73FB7B1F2B01D91F23FB7326
:10581000FB7BDB00FB737B68FA7B83F83E207B68B5
:1058200093F83D30FB73FB7BDB00FB737B68FA7BFB
:1058300083F840207B6893F83C30FB73FB7B7A68ED
:1058400092F83D201344BA68527C934206DDBB684F
:105850005A7C7B6893F83D30D31AFB73FB7BDB00EB
:10586000FB737B6893F840207B6883F841207B685A
:1058700093F841207B6883F842207B6893F84220AC
:10588000FB7B1344DAB27B6883F842207B68F0220A
:1058900083F84320BB689B8AF02B05D8BB689B8AA2
:1058A000DAB27B6883F84320BB68DB8ADAB27B68B4
:1058B00083F8442000BF1437BD465DF8047B704771
:1058C00080B584B002AF78607B6893F849107B683C
:1058D00093F84B207B6893F84A007B6893F84C3030
:1058E000009303467868FFF7BAFD0346002B04D106
:1058F0007B68002283F880203BE07B68012283F8EC
:1059000080207B6893F845207B6893F849309A4261
:1059100005D27B6893F849207B6883F845207B6833
:1059200093F846207B6893F84A309A4205D97B6801
:1059300093F84A207B6883F846207B6893F84720D9
:105940007B6893F84B309A4205D27B6893F84B20E2
:105950007B6883F847207B6893F848207B6893F83E
:105960004C309A4205D97B6893F84C207B6883F8C9
:10597000482000BF0837BD4680BD80B582B000AF6B
:1059800078607868FFF72AFF00BF0837BD4680BD02
:1059900080B582B000AF78607B68002283F8452034
:1059A0007B6893F843207B6883F846207B6893F8F4
:1059B00041207B6883F847207B6893F842207B680E
:1059C00083F848207868FFF77BFF00BF0837BD46A3
:1059D00080BD80B584B002AF7860084611461A4693
:1059E0000346FB700B46BB7013467B707878BA7821
:1059F000F9783B7C009303467868FFF7DDFB00BF36
:105A00000837BD4680BD80B483B000AF78607B6846
:105A1000002283F8272000BF0C37BD465DF8047BC9
:105A2000704780B483B000AF78600B46FB70FB78A2
:105A3000002B02D0FB780A2B02D14FF6FF7301E056
:105A4000FB789BB218460C37BD465DF8047B704767
:105A500080B483B000AF78600B46FB70FB78002BFE
:105A600002D0FB780A2B02D14FF6FF736EE07B6801
:105A700093F82730002B45D1FB78FB2B08D97B68A6
:105A8000052283F82720FB7803F00103FB7032E046
:105A9000FB78F72B08D97B68042283F82720FB7852
:105AA00003F00303FB7026E0FB78EF2B08D97B683B
:105AB000032283F82720FB7803F00703FB701AE02A
:105AC000FB78DF2B08D97B68022283F82720FB783C
:105AD00003F00F03FB700EE0FB78BF2B08D97B6847
