:020000040800F2
:1000000000000220D138000861260008632600089D
:100010006526000867260008692600080000000021
:100020000000000000000000000000005165000812
:100030006B26000800000000E1650008654F00081D
:10004000213900086D2600082139000821390008EF
:10005000712600087526000821390008213900089A
:100060002139000821390008213900082139000808
:1000700021390008213900082139000821390008F8
:1000800021390008213900082139000821390008E8
:1000900021390008213900082139000821390008D8
:1000A0007926000885260008213900082139000832
:1000B00021390008213900082139000821390008B8
:1000C00021390008213900082139000821390008A8
:1000D0002139000821390008213900082139000898
:1000E0002139000821390008213900082139000888
:1000F000A1260008AD260008213900082139000892
:100100002139000821390008213900082139000867
:100110002139000821390008213900082139000857
:100120002139000821390008213900082139000847
:100130002139000821390008213900082139000837
:100140002139000821390008213900082139000827
:100150002139000821390008213900082139000817
:100160002139000821390008213900082139000807
:100170002139000821390008213900080000000059
:0801800021390008B92600082E
:1001900010B5054C237833B9044B13B10448AFF3C1
:1001A00000800123237010BD4804002000000000DF
:1001B00018C2000808B5034B1BB103490348AFF34D
:1001C000008008BD000000004C04002018C2000898
:1001D00001F0FF01102A2BDB10F0070F08D010F8F8
:1001E000013B013A8B422DD010F0070F42B3F6D1FC
:1001F000F0B441EA012141EA014122F007047FF015
:1002000000070023F0E80256083C85EA010586EA6B
:10021000010685FA47F5A3FA87F586FA47F6A5FAA7
:1002200087F68EB9EED1F0BC01F0FF0102F00702B3
:1002300032B110F8013B013A83EA010313B1F8D15E
:100240000020704701387047002D06BF354603383F
:10025000073815F0010F07D1013015F4807F02BF78
:10026000013015F4C03F0130F0BC0138704700BFC9
:10027000034613F8012B002AFBD1181A01387047E6
:1002800081F0004102E000BF83F0004330B54FEA47
:1002900041044FEA430594EA050F08BF90EA020FB4
:1002A0001FBF54EA000C55EA020C7FEA645C7FEA47
:1002B000655C00F0E2804FEA5454D4EB5555B8BF6A
:1002C0006D420CDD2C4480EA020281EA030382EADB
:1002D000000083EA010180EA020281EA0303362D6D
:1002E00088BF30BD11F0004F4FEA01314FF4801C40
:1002F0004CEA113102D0404261EB410113F0004F52
:100300004FEA03334CEA133302D0524263EB430308
:1003100094EA050F00F0A780A4F10104D5F1200EA6
:100320000DDB02FA0EFC22FA05F2801841F1000101
:1003300003FA0EF2801843FA05F359410EE0A5F1D5
:1003400020050EF1200E012A03FA0EFC28BF4CF006
:10035000020C43FA05F3C01851EBE37101F00045BC
:1003600007D54FF0000EDCF1000C7EEB00006EEBC9
:100370000101B1F5801F1BD3B1F5001F0CD3490853
:100380005FEA30004FEA3C0C04F101044FEA4452AA
:1003900012F5800F80F09A80BCF1004F08BF5FEA31
:1003A000500C50F1000041EB045141EA050130BD11
:1003B0005FEA4C0C404141EB0101013C28BFB1F523
:1003C000801FE9D291F0000F04BF01460020B1FA6E
:1003D00081F308BF2033A3F10B03B3F120020CDA41
:1003E0000C3208DD02F1140CC2F10C0201FA0CF01F
:1003F00021FA02F10CE002F11402D8BFC2F1200C84
:1004000001FA02F120FA0CFCDCBF41EA0C01904039
:10041000E41AA2BF01EB0451294330BD6FEA040482
:100420001F3C1CDA0C340EDC04F11404C4F120026D
:1004300020FA04F001FA02F340EA030021FA04F37F
:1004400045EA030130BDC4F10C04C4F1200220FAD6
:1004500002F001FA04F340EA0300294630BD21FA14
:1004600004F0294630BD94F0000F83F4801306BFDA
:1004700081F480110134013D4EE77FEA645C18BFCE
:100480007FEA655C29D094EA050F08BF90EA020F65
:1004900005D054EA000C04BF1946104630BD91EA5D
:1004A000030F1EBF0021002030BD5FEA545C05D160
:1004B0004000494128BF41F0004130BD14F580049F
:1004C0003CBF01F5801130BD01F0004545F0FE4113
:1004D00041F470014FF0000030BD7FEA645C1ABF48
:1004E000194610467FEA655C1CBF0B46024650EA7F
:1004F000013406BF52EA033591EA030F41F40021AB
:1005000030BD00BF90F0000F04BF0021704730B530
:100510004FF4806404F132044FF000054FF0000105
:1005200050E700BF90F0000F04BF0021704730B5C6
:100530004FF4806404F1320410F0004548BF40429B
:100540004FF000013EE700BF42004FEAE2014FEAF0
:1005500031014FEA02701FBF12F07F4393F07F4FCB
:1005600081F06051704732F07F4208BF704793F0CE
:100570007F4F04BF41F40021704730B54FF46074E1
:1005800001F0004521F000411CE700BF50EA0102E4
:1005900008BF704730B54FF000050AE050EA01028D
:1005A00008BF704730B511F0004502D5404261EBFD
:1005B00041014FF4806404F132045FEA915C3FF43E
:1005C000D8AE4FF003025FEADC0C18BF03325FEADB
:1005D000DC0C18BF033202EBDC02C2F1200300FA8C
:1005E00003FC20FA02F001FA03FE40EA0E0021FAB1
:1005F00002F11444BDE600BF70B54FF0FF0C4CF49F
:10060000E06C1CEA11541DBF1CEA135594EA0C0F50
:1006100095EA0C0F00F0DEF82C4481EA030621EA8B
:100620004C5123EA4C5350EA013518BF52EA0335C6
:1006300041F4801143F4801338D0A0FB02CE4FF078
:100640000005E1FB02E506F00042E0FB03E54FF0A8
:100650000006E1FB03569CF0000F18BF4EF0010EA0
:10066000A4F1FF04B6F5007F64F5407404D25FEA9C
:100670004E0E6D4146EB060642EAC62141EA55514F
:100680004FEAC52040EA5E504FEACE2EB4F1FD0C91
:1006900088BFBCF5E06F1ED8BEF1004F08BF5FEA0F
:1006A000500E50F1000041EB045170BD06F00046C1
:1006B00046EA010140EA020081EA0301B4EB5C046E
:1006C000C2BFD4EB0C0541EA045170BD41F4801166
:1006D0004FF0000E013C00F3AB8014F1360FDEBF8B
:1006E000002001F0004170BDC4F10004203C35DA67
:1006F0000C341BDC04F11404C4F1200500FA05F3EA
:1007000020FA04F001FA05F240EA020001F000428A
:1007100021F0004110EBD37021FA04F642EB060100
:100720005EEA430E08BF20EAD37070BDC4F10C042A
:10073000C4F1200500FA04F320FA05F001FA04F2EE
:1007400040EA020001F0004110EBD37041F10001DA
:100750005EEA430E08BF20EAD37070BDC4F12005E5
:1007600000FA05F24EEA020E20FA04F301FA05F24D
:1007700043EA020321FA04F001F0004121FA04F2F5
:1007800020EA020000EBD3705EEA430E08BF20EAC5
:10079000D37070BD94F0000F0FD101F000464000FF
:1007A00041EB010111F4801F08BF013CF7D041EA81
:1007B000060195F0000F18BF704703F00046520085
:1007C00043EB030313F4801F08BF013DF7D043EA56
:1007D0000603704794EA0C0F0CEA135518BF95EA0C
:1007E0000C0F0CD050EA410618BF52EA4306D1D193
:1007F00081EA030101F000414FF0000070BD50EAB2
:10080000410606BF1046194652EA430619D094EA3B
:100810000C0F02D150EA013613D195EA0C0F05D125
:1008200052EA03361CBF104619460AD181EA030179
:1008300001F0004141F0FE4141F470014FF0000031
:1008400070BD41F0FE4141F4780170BD70B54FF0CC
:10085000FF0C4CF4E06C1CEA11541DBF1CEA13554C
:1008600094EA0C0F95EA0C0F00F0A7F8A4EB05042E
:1008700081EA030E52EA03354FEA013100F0888025
:100880004FEA03334FF0805545EA131343EA1263EE
:100890004FEA022245EA111545EA10654FEA0026A3
:1008A0000EF000419D4208BF964244F1FD0404F55C
:1008B000407402D25B084FEA3202B61A65EB0305B8
:1008C0005B084FEA32024FF480104FF4002CB6EB75
:1008D000020E75EB030E22BFB61A754640EA0C00F5
:1008E0005B084FEA3202B6EB020E75EB030E22BF35
:1008F000B61A754640EA5C005B084FEA3202B6EB76
:10090000020E75EB030E22BFB61A754640EA9C0034
:100910005B084FEA3202B6EB020E75EB030E22BF04
:10092000B61A754640EADC0055EA060E18D04FEAC2
:10093000051545EA16754FEA06164FEAC30343EA62
:1009400052734FEAC2025FEA1C1CC0D111F4801F2F
:100950000BD141EA00014FF000004FF0004CB6E728
:1009600011F4801F04BF01430020B4F1FD0C88BFC7
:10097000BCF5E06F3FF6AFAEB5EB030C04BFB6EBD2
:10098000020C5FEA500C50F1000041EB045170BDC5
:100990000EF0004E4EEA113114EB5C04C2BFD4EBF2
:1009A0000C0541EA045170BD41F480114FF0000E76
:1009B000013C90E645EA060E8DE60CEA135594EAF2
:1009C0000C0F08BF95EA0C0F3FF43BAF94EA0C0FF5
:1009D0000AD150EA01347FF434AF95EA0C0F7FF46A
:1009E00025AF104619462CE795EA0C0F06D152EABE
:1009F00003353FF4FDAE1046194622E750EA4106A2
:100A000018BF52EA43067FF4C5AE50EA41047FF4B2
:100A10000DAF52EA43057FF4EBAE12E74FF0FF3C17
:100A200006E000BF4FF0010C02E000BF4FF0010CE8
:100A30004DF804CD4FEA410C7FEA6C5C4FEA430C61
:100A400018BF7FEA6C5C1BD001B050EA410C0CBFB0
:100A500052EA430C91EA030F02BF90EA020F002012
:100A6000704710F1000F91EA030F58BF994208BF79
:100A700090422CBFD8176FEAE37040F00100704736
:100A80004FEA410C7FEA6C5C02D150EA013C07D18D
:100A90004FEA430C7FEA6C5CD6D152EA033CD3D0D8
:100AA0005DF8040B704700BF8446104662468C46D2
:100AB0001946634600E000BF01B5FFF7B7FF002805
:100AC00048BF10F1000F01BD4DF808EDFFF7F4FF2E
:100AD0000CBF012000205DF808FB00BF4DF808EDB9
:100AE000FFF7EAFF34BF012000205DF808FB00BFDC
:100AF0004DF808EDFFF7E0FF94BF012000205DF8FE
:100B000008FB00BF4DF808EDFFF7CEFF94BF0120B2
:100B100000205DF808FB00BF4DF808EDFFF7C4FFAB
:100B200034BF012000205DF808FB00BF4FEA410CF4
:100B30007FEA6C5C02D150EA013C0AD14FEA430CD7
:100B40007FEA6C5C02D152EA033C02D14FF0000014
:100B500070474FF0010070474FEA410212F5001252
:100B600015D211D56FF47873B3EB625212D94FEAF4
:100B7000C12343F0004343EA505311F0004F23FADE
:100B800002F018BF404270474FF00000704750EA33
:100B9000013005D111F0004008BF6FF000407047F0
:100BA0004FF00000704700BF4A0011D212F500124A
:100BB00011D20DD56FF47873B3EB62520ED44FEAB5
:100BC000C12343F0004343EA505323FA02F0704735
:100BD0004FF00000704750EA013002D14FF0FF3073
:100BE00070474FF0000070474FEA4102B2F1E04316
:100BF00024BFB3F5001CDCF1FE5C0DD901F0004C04
:100C00004FEAC0024CEA5070B2F1004F40EB830053
:100C100008BF20F00100704711F0804F21D113F17F
:100C20003872BCBF01F00040704741F480114FEAB8
:100C30005252C2F11802C2F1200C10FA0CF320FA41
:100C400002F018BF40F001004FEAC1234FEAD3235E
:100C500003FA0CFC40EA0C0023FA02F34FEA4303C8
:100C6000CCE77FEA625307D150EA01331EBF4FF051
:100C7000FE4040F44000704701F0004040F0FE406C
:100C800040F40000704700BF53B94AB9002908BFBB
:100C900000281CBF4FF0FF314FF0FF3000F0A6B925
:100CA000ADF1080C6DE904CE00F03CF8DDF804E08D
:100CB000DDE9022304B0704738B500220023044662
:100CC0000D46FFF70BFF28B920462946BDE83840FE
:100CD00000F00AB8204605F1004100F005F8404256
:100CE00061EB410138BD00BFD0B50C4B0022064678
:100CF0000F46FFF781FCFFF757FF0446FFF702FCA2
:100D0000074B0022FFF778FC02460B463046394677
:100D1000FFF7BAFAFFF748FF2146D0BD0000F03DCB
:100D20000000F0412DE9F047089E0D4604460F46AD
:100D3000002B4AD18A42944665D9B2FA82F343B174
:100D400002FA03FCC3F120029F4020FA02F217438B
:100D50009C404FEA1C4E1FFA8CF5B7FBFEF1220CAB
:100D60000EFB117742EA074201FB05F090420AD9D7
:100D70001CEB020201F1FF3780F01C81904240F22F
:100D8000198102396244121AA4B2B2FBFEF00EFBC2
:100D9000102244EA024400FB05F5A5420AD91CEBE7
:100DA000040400F1FF3280F00781A54240F2048183
:100DB0006444023840EA0140641B00211EB1DC405B
:100DC0000023C6E90043BDE8F0878B4208D9002E16
:100DD00000F0ED800021C6E900050846BDE8F08777
:100DE000B3FA83F1002949D1AB4202D3824200F227
:100DF000F880841A65EB030201201746002EE2D02A
:100E0000C6E90047DFE702B9FFDEB2FA82F3002B42
:100E100040F090808A1A4FEA1C471FFA8CFE01218D
:100E2000B2FBF7F507FB1520220C42EA00420EFB4D
:100E300005F0904208D91CEB020205F1FF3802D2FE
:100E4000904200F2CB804546121AA4B2B2FBF7F0F2
:100E500007FB102244EA02440EFB00FEA64508D917
:100E60001CEB040400F1FF3202D2A64500F2BB8065
:100E70001046A4EB0E0440EA05409FE7C1F12007AD
:100E80008B4022FA07FC4CEA030C05FA01F420FA25
:100E900007F3FD404FEA1C492343B5FBF9F81FFA5D
:100EA0008CFE09FB18551C0C44EA054408FB0EF5A2
:100EB000A54202FA01F200FA01F00BD91CEB04047E
:100EC00008F1FF3A80F08880A54240F28580A8F1C1
:100ED00002086444641B9DB2B4FBF9F309FB13449C
:100EE00045EA044403FB0EFEA64508D91CEB0404A6
:100EF00003F1FF356CD2A6456AD9023B644443EA4C
:100F00000843A3FB0295A4EB0E04AC42C846AE46D0
:100F100056D353D056B1B0EB080264EB0E0404FA7A
:100F200007F7CA40CC401743C6E9007418460021B1
:100F3000BDE8F087C3F1200102FA03FC20FA01F2B8
:100F400025FA01F19D402A434FEA1C471FFA8CFE07
:100F5000B1FBF7F007FB1015110C41EA054100FB4E
:100F60000EF58D4204FA03F408D91CEB010100F1DF
:100F7000FF382FD28D422DD902386144491B92B2DD
:100F8000B1FBF7F507FB151142EA014205FB0EF133
:100F9000914208D91CEB020205F1FF3816D29142AA
:100FA00014D9023D6244521A45EA004138E73146FD
:100FB000304608E73946E6E61046FBE64845A9D242
:100FC000B9EB020865EB0C0E013BA3E74546EAE7E7
:100FD0002B4694E74046D1E7D0467BE7023D62448A
:100FE00032E708460AE76444023842E7704700BF28
:100FF00038B50A490A480B4D094C02F035F8084843
:1010000001F0D2FC2B460F220021204601F0E6FF22
:10101000204601F0D6FC0028F4D138BD92E100084A
:10102000A825002060C200081FB5044603910A48A5
:101030000A4902F019F80848012102F0BEF8142309
:101040000822CDE900320448039A6423214601F0C6
:10105000F5FB04B010BD00BFA825002092E10008F8
:101060002DE9F04F07469FB08348834DDFF82C925F
:10107000884601F099FC46460121284602F09DF879
:101080007A7EFB7E397E0093113ABB7EDFF810A298
:10109000D2B2284601F074FB7849284601F0E4FFFB
:1010A000328B3B8B9A4257D10021284602F085F8BB
:1010B000316A05A807F007FD2D2304A905A8ADF89E
:1010C000103007F0D7FB0024002836D10121284634
:1010D00002F073F8366801F023F98368534540F055
:1010E000888001F01DF9814524D001F019F9644B85
:1010F000834252D001F014F9624B834200F08580A4
:1011000001F00EF9604B834200F0828001F008F993
:101110005E4B83427FD001F003F95D4B83427DD06B
:1011200001F0FEF85B4B83427AD001F0F9F85A4B9C
:10113000834277D00023002431E0727E317E224446
:101140000346D2B2284601F053FF0F3404A9002011
:1011500007F090FBE4B2B7E70121284602F02DF832
:10116000316A05A807F0AFFC2D2304A905A8ADF846
:10117000103007F07FFB00240028ABD0727E317E58
:1011800022440346D2B2284601F032FF0F3404A9AC
:10119000002007F06FFBE4B2EEE70023012404EB2C
:1011A00084040021284604EB84040393E4B202F093
:1011B00004F8039BDFF8ECB004F115021634D2B248
:1011C000E4B2002B3BD1DBF80030D900022BC9B2CE
:1011D0002ADC2531C9B20823284601F0C8FFDBF814
:1011E0000010C900253108232246C9B2284601F063
:1011F000BEFFB0457FF454AF284601F0E2FB002863
:101200007FF43AAF1FB0BDE8F08F00230224C6E799
:1012100000230324C3E700230424C0E701238AE753
:101220000123BBE70123F1E72D31C9B2082328468A
:1012300001F09DFFDBF80010C9002D31D3E7DBF88A
:101240000030D900022BC9B20ADC6339C9B20823C5
:10125000284601F08CFFDBF80010C9006339C2E7B3
:101260005B39C9B20823284601F081FFDBF8001082
:10127000C9005B39B7E700BFA8250020E3E90008F3
:10128000C4C30008E8C300080CC4000830C4000848
:1012900054C4000878C400089CC40008A0C3000817
:1012A0007CC30008A02500202DE9F04F2A4C2B4FCD
:1012B00026460FCE91B00BAD0FC56069A1693368AA
:1012C0002B6004AB03C3A28B1A80203494E80F0078
:1012D00007AD85E80F00224A224BCDE90223002604
:1012E000A9460DF108080024321B18BF012238F866
:1012F000021B59F8040B013402F06EFD042CF3D1EB
:10130000F3B25C1C1133DBB20DF12C080DF11009A6
:10131000E4B2019358F804AB39F802BB5046594681
:1013200002F054FD014670B9384603F0D9FC594625
:10133000504602F04BFD0028F9D00B4B00213846F7
:101340001C7003F00DFD019B0434E4B29C42E1D11A
:101350000136042EC4D1C2E730C200085005002077
:101360000001400010000100640400202DE9F04F4E
:1013700085B00C469DF838C09DF93C809C428CBFDE
:10138000E61A1E1B6245824619464FF0000BF6B264
:1013900012D9A2EB0C05EDB2AE4218D32F468C4207
:1013A00035463E4605D917466246BC4627460C469A
:1013B00039464FF0000912E0ACEB0205EDB2AE4247
:1013C000ECD22746614614469C463A4605E017464D
:1013D000394627461A466446BC464FF00109624525
:1013E00032BF01234FF0FF339346FE2928BFFE2171
:1013F0000293CBB20393C8F1000345F3470701936F
:10140000039B9C4202D905B0BDE8F08FB9F1000FF3
:1014100028D1B8F1000F05D15A462146504601F0B7
:10142000B4FE05E0B8F1010F10D114F0010FF3D0B4
:10143000BF1BFAB27FB2002F05DA029B2A445B443D
:101440005FFA83FB57B20134E4B2D9E704DD94FBC1
:10145000F8F212F0010FEAE7019BB4FBF3F2D207B6
:10146000E6D5D9E7B8F1000F02D122465946D5E7B3
:10147000B8F1010F03D114F0010FD9D1F5E704DD64
:1014800094FBF8F212F0010FF7E7019BB4FBF3F2C3
:10149000D307CDD5E9E700002DE9F04F6248624C53
:1014A000624D91B0012101F088FE5F4801F07CFAA5
:1014B0007823042200930A21DC23204601F082F9DC
:1014C0005B49204601F0D0FD28260127594B1E22FA
:1014D0007321204601F082FD3246CDE90067E52305
:1014E0000A212046FFF742FF6E220092E5230A21DF
:1014F00020460197FFF73AFF4E231946CDE90067D2
:1015000004222046FFF732FFCDE90067A2234A4EAE
:10151000204604221946FFF729FF3078A8B9474F23
:101520000146024640F2014C57F8043B01321818BC
:1015300041EBE3716245F7D1002340F20142FFF72E
:10154000A3FBC5E9000101233370D5E90032134341
:1015500057D01E2211463A4B204601F049FD394B27
:101560001E22BE21204601F043FD374B502255215B
:10157000204601F033FD354B5F222321204601F048
:1015800037FD324B5F22B921204601F031FDD5E90C
:101590000001FEF7FBFF20A3D3E900238046894624
:1015A000FFF72AF80022002382468B46FFF78CFAC9
:1015B00028BB1BA3D3E9002340464946FFF71CF88C
:1015C0000022002380468946FFF77EFAB8B92049F9
:1015D00052465B4602A807F0C7F802AB502214211E
:1015E000204601F005FD1A4942464B4609A807F07E
:1015F000BBF809AB5022A521204601F0F9FC0023DD
:101600003370204601F0DDF900287FF451AF11B0AE
:10161000BDE8F08FAFF300806EA301BC0512643FFC
:10162000BA490C022B87663FA825002038260020E7
:1016300068C5000866C20008700400209C150020E0
:1016400068C200086DC2000872C2000893C2000898
:101650007AC20008000000002DE9F04F2DED028B4A
:10166000DFF800A118249FED3C8B00FB044400250B
:1016700083B00AEB040B2E465BF8040DFEF752FF15
:10168000804628468946FEF74DFFB0EE480AF0EE48
:10169000680A41EC110B05F0ADF930468DED000BF9
:1016A000FEF740FFDDE9002306460F464046494667
:1016B000FEF7A2FF02460B4630463946FEF7E6FD2E
:1016C000FFF74AFA0135032D0646D5D19FED228B4F
:1016D000183C5444022500272846FEF723FFB0EEAD
:1016E000480AF0EE680A41EC110B54F804AB05F01F
:1016F00081F959EC108B5046FEF714FF42464B46D9
:10170000FEF77AFF804638468946FEF70BFF024611
:101710000B4640464946FEF7B9FDFFF71DFA013D6D
:101720000746D9D23046FEF7FDFE0D4B0022FFF7EB
:101730008DF8044638460D46FEF7F4FE02460B4689
:1017400020462946FEF7A2FD41EC100B03B0BDEC8C
:10175000028BBDE8F08F00BF0000000000002440B5
:1017600000408F40C80000202DE9F04F2DED048B84
:1017700095B0BD4C2378082B13D8DFE813F0820214
:101780000900150019004C015301A301B1011A020F
:1017900000F0C6FD056800F0C9FD0146284600F0CE
:1017A000D1FD0023237013E000F0BAFD4568F2E795
:1017B00000F0B6FDAD4B83420ED1AD48AC4C01F00C
:1017C000F3F8FFF769FE204601F0FBF80028F8D196
:1017D0000A2003F048FCCCE700F0A2FDA54B82688C
:1017E0009A4240F01181A248A14C01F0DDF8204658
:1017F00001F0DAF80121204601F0DFFC9E4D0026C1
:101800000A226F23114600932046DC2300F0DAFF02
:101810009A49204601F028FC00F082FD984B834253
:1018200000F0C78000F07CFD964B834200F0C3803F
:1018300000F076FD944B834200F0BF8000F070FD15
:10184000924B834200F0BB8000F06AFD904B8342D4
:1018500000F0B78000F064FD8E4B834200F0B3804F
:1018600000F05EFD8C4B834200F0AF8000F058FD2D
:101870008A4B834240F0AB800727894918227A437C
:101880008B185869039018690290D868019098687D
:1018900000908A585B6883490DA806F065FF0DAB80
:1018A0001E223221204601F0A3FB8EB97E4831462C
:1018B000324650F8043B01329E1941EBE371F12AA4
:1018C000F7D1F12200233046FFF7DEF9C5E9000128
:1018D0001E2328225A21009320463C2300F072FF49
:1018E0003846FFF7B9FED5E900BA5146584657ECDD
:1018F000106BFEF74BFE54A3D3E9002380468946C4
:10190000FEF77AFE52A3D3E9002341EC180B4046C0
:101910004946FEF771FE5BEA0A0A41EC190B6FD0EB
:1019200053EC182B30463946FFF7E2F8002850D028
:1019300049A3D3E9002340464946FEF75DFE02462F
:101940000B4630463946FFF7E7F8002841D0574BA1
:101950003C226E21204601F04BFBDC2349220A2168
:10196000204601F004FC53EC182B514906A806F060
:10197000FBFE53EC192B4F490DA806F0F5FE06AB04
:101980005A221E21204601F033FB0DAB6E221E2190
:10199000204601F02DFB204601F013F80126002817
:1019A0007FF42EAF204601F00CF800287FF41FAF23
:1019B0000EE7002761E701275FE702275DE70327BE
:1019C0005BE7042759E7052757E7062755E7092767
:1019D0006BE753EC192B30463946FFF793F878B193
:1019E0001FA3D3E9002340464946FEF705FE024601
:1019F0000B4630463946FFF771F808B12E4BA7E782
:101A00002E4B3C227321A5E700F08AFCC56800F04C
:101A10008DFCC168C2E600F083FC856800F086FC9E
:101A20008168BBE600F07CFC124B82689A427FF42E
:101A3000CFAE234A1368042B3FF7B3AE01331360D4
:101A4000AFE600BFAFF300806EA301BC0512643F98
:101A5000BA490C022B87663FFA7E6ABC7493583FE2
:101A60003BDF4F8D976E723F64040020C0C40008B6
:101A7000A82500207CC300083026002068C5000887
:101A8000A0C30008C4C30008E8C300080CC40008D1
:101A900030C4000854C4000878C400089CC400087E
:101AA000C800002081C200089C15002068C2000800
:101AB00098C20008ACC200086DC2000866C20008E7
:101AC000A025002000F02CFC734B82689A427FF422
:101AD0007FAE724A1368002B7FF763AE013BAEE71F
:101AE00000F01EFC6C4B82689A427FF471AE00F0ED
:101AF00017FC6B4B6B4D834224D000F011FC6A4BFA
:101B000083424AD000F00CFC684B834247D000F07F
:101B100007FC674B834244D000F002FC654B8342D4
:101B200041D000F0FDFB644B83423ED000F0F8FB57
:101B3000624B83423BD000F0F3FB614B83420FD1F9
:101B4000072300E00023554A1268062101FB032306
:101B500055F82320002AC4BF02F1FF3245F82320A4
:101B6000504DDFF86481574FDFF8609100266B69B4
:101B700004932B690393EB680293AB6801936B6842
:101B8000009308EB0602B81955F8183B4946193678
:101B900006F0EAFDC82EEAD103E60123D3E70223CB
:101BA000D1E70323CFE70423CDE70523CBE70623C3
:101BB000C9E700F0B5FB384B82689A427FF408AE63
:101BC00000F0AEFB364B374D834224D000F0A8FB2B
:101BD000354B834249D000F0A3FB344B834246D0BF
:101BE00000F09EFB324B834243D000F099FB314B17
:101BF000834240D000F094FB2F4B83423DD000F055
:101C00008FFB2E4B83423AD000F08AFB2C4B834251
:101C10000ED1072300E00023204A1268062101FBB1
:101C2000032355F82320082ADCBF013245F823207E
:101C30001C4DDFF89480234FDFF8909000266B69ED
:101C400004932B690393EB680293AB6801936B6871
:101C5000009308EB0602B81955F8183B49461936A7
:101C600006F082FDC82EEAD19BE50123D4E70223CA
:101C7000D2E70323D0E70423CEE70523CCE70623EE
:101C8000CAE700F04DFB044600F050FB0146204639
:101C900000F058FB9CE500BF7CC30008A025002095
:101CA000A0C30008C8000020C4C30008E8C300089F
:101CB0000CC4000830C4000854C4000878C40008EC
:101CC0009CC400080000002088010020C0C2000859
:101CD00038B5054C05464FF480522146201F06F0CA
:101CE000A6FDC4F8FC5F38BDA0150020034B1B689F
:101CF00000225A625A6A8242FCD37047C004002014
:101D0000283908B5222921D8DFE801F0122E28222F
:101D100030202020202020202020202020202020B3
:101D20002020202032383B3D3F4143454A20470098
:101D30001C4801224FF4805102F04EF8194801224C
:101D4000022102F049F8012003F08DF9012008BDBD
:101D50000A20B2FBF0F0FFF7C9FFF7E702EB8202BF
:101D6000500000F0FE00F6E71046EDE70020F2E735
:101D70004FF400710B4802F02FF8E7E74FF4807141
:101D8000F8E78021F6E74021F4E72021F2E710216F
:101D9000F0E70821EEE70421ECE74FF40041E9E722
:101DA0000221E7E70018024038B5194A0368934258
:101DB00024D1184D2A78012A20D1586B164B0024C3
:101DC000C3E900042146FEF7E9FB0DA3D3E9002394
:101DD000FEF712FC0CA3D3E90023FEF737FD41EC1C
:101DE000100B04F083FE0D4B51EC100B0022FEF79C
:101DF0004BFAFEF7B1FEFFF76BFF2C7038BD00BF4A
:101E00000000000065CDCD4100000000F4069441C3
:101E1000004401405002002068040020006083401C
:101E20000268054B9A4206D1044B1B6800225A6295
:101E3000034B01221A7070470020004078040020F4
:101E40005002002010B594B0102200210AA806F01C
:101E500008FD1422002103A806F003FD204B0021F9
:101E600001911A6C42F080521A641B6C03F080538B
:101E70000193019B1B4B02911A6842F480421A6045
:101E80001B6803F480430293029B01214FF48033CB
:101E90000224CDE908134FF480030620CDE90E4358
:101EA000A823CDE91003042308A81294139301F08A
:101EB000A7FF08B172B6FEE70F23CDE90334059002
:101EC0004FF4A0524FF48053052103A8CDE9062317
:101ED00002F070F908B172B6FEE714B010BD00BF91
:101EE00000380240007000402DE9F04395B001F049
:101EF00019FDFFF7A7FF142200210DA806F0B1FC81
:101F00000024A44B01941A6BA34842F010021A63F8
:101F10001A6B02F010020192019A02941A6B42F0BD
:101F200004021A631A6B02F004020292029A0394EA
:101F30001A6B42F020021A631A6B02F0200203921D
:101F4000039A04941A6B42F080021A631A6B02F02F
:101F500080020492049A05941A6B42F001021A63FB
:101F60001A6B02F001020592059A06941A6B42F070
:101F700002021A631A6B02F002020692069A079492
:101F80001A6B42F040021A631A6B02F04002079289
:101F9000079A08941A6B42F008021A631B6B03F04D
:101FA00008030893224649F2FE31089B01F014FF12
:101FB00022467A4840F2511101F00EFF03254FF6F8
:101FC000DF7377480F940DA9CDE90D3501F024FE9C
:101FD00043F6FF7373480F940DA9CDE90D3501F059
:101FE0001BFE4FF6BF4370480F940DA9CDE90D3588
:101FF00001F012FE49F6FF736C480F940DA9CDE96C
:102000000D354FF6FF7601F007FE69480F940DA9D4
:10201000CDE90D6501F000FE46F601435E480F94E0
:102020000DA9CDE90D354FF0010801F0F5FD49F29C
:10203000FE3359480DA9CDE90D38CDE90F4401F023
:10204000EBFD40F2511355480DA9CDE90D38CDE90E
:102050000F4401F0E1FD40F6AE2350480F940DA966
:10206000CDE90D3501F0D8FD4FF474434B48514D87
:10207000CDF83C800DA9CDE90D3401F0CDFD102245
:1020800021460DA806F0EDFB4B4B2C61802728461E
:10209000C5E90034C5E90246AF6102F027FB08B18B
:1020A00072B6FEE7284602F079FB024608B172B626
:1020B000FEE7CDE90D08CDE90F000DA9284602F095
:1020C00063FC054608B172B6FEE70146102209A876
:1020D00006F0C7FB1C2229460DA806F0C2FB374CB0
:1020E000374BA5604FF05308C4E90038204640F252
:1020F000E733C4E90335A76102F0F8FA08B172B614
:10210000FEE74FF4805309A92046099302F0DBFC57
:1021100008B172B6FEE7204602F014FB024608B191
:1021200072B6FEE7C8230F904FF0600904270DA98F
:102130002046CDE90D93119702F092FB054608B1B8
:1021400072B6FEE7204600F0E3F91E4C1C22294639
:102150000DA806F086FB1C4B25612046C4E900381B
:10216000C4E90256A56102F0C1FA08B172B6FEE7F1
:10217000204602F0E7FA024608B172B6FEE7CDE962
:102180000D900F900DA92046119702F069FBE8B160
:1021900072B6FEE70038024000180240000C024010
:1021A00000100240000802400014024000000240FB
:1021B0000004024078040020004401405005002043
:1021C00000400140C0040020001C00403E483F4D3C
:1021D0003F4C00F09DF91C2200210DA806F041FBA8
:1021E00000234DF6BF22C5E90043C5E90323AB60D8
:1021F00028468023AB6102F079FA08B172B6FEE797
:10220000284602F09FFA024608B172B6FEE7602146
:102210000A23CDE90D1302230F930DA904232846A9
:10222000119302F01DFB044608B172B6FEE7284682
:1022300000F06EF92146284602F094FD214628461A
:1022400002F00AFE2146204802F04AFD21462148BC
:1022500002F004FE40F2DC5001F090FB1E4B1F4ADE
:102260001F49204800F078FC1E4801F0EBFA1D4899
:10227000214601F0F0FA1C491C4800F07DF81A488C
:1022800000F05AF800F052F80146174800F05AF8EA
:10229000174B40F2014243F8044B01349442FAD107
:1022A00002F06EFE134A1448002102F095FE134B13
:1022B000134A18600021134802F08EFE124B18607A
:1022C00002F070FEFEE700BFC004002008050020F9
:1022D0000020004078040020011D0008C5340008DB
:1022E000F0030108A82500207CC300086110000845
:1022F0009805002008C5000869170008A4250020DB
:10230000E4C40008A9120008740400200268034B0A
:102310009A4201D101F020BB704700BF000001408C
:10232000014B1868704700BF54020020014B186829
:10233000704700BF58020020014B1860704700BF73
:102340005802002010B4084CA0420AD048B1074BF4
:10235000074C1960074B20601B6813B15DF8044BF4
:1023600018475DF8044B70472CC500085802002040
:102370005402002040260020014B1860704700BF27
:102380004026002007B51F4B00220092596C41F4F3
:1023900080415964596C01F4804100910099019287
:1023A000196C41F0805119641B6C03F08053019348
:1023B0000F216FF00100019B01F006FB00220521B7
:1023C000012001F001FB012001F030FB002205217A
:1023D000042001F0F9FA042001F028FB0521084649
:1023E000002201F0F1FA052001F020FB0022052176
:1023F000512001F0E9FA512003B05DF804EB01F03F
:1024000015BB00BF0038024010B514228AB0044644
:1024100000210DEB020006F024FA2368364A9342AD
:1024200014D1364B00220092596C41F4803159642A
:102430005B6C03F48033009318200521009B01F0AE
:10244000C3FA182001F0F2FA0AB010BD2C4A9342E8
:1024500027D12A4B2B48002401945A6C42F40032B5
:102460005A645A6C02F400320192019A02941A6B77
:1024700042F020021A631B6B03F0200302934022F8
:10248000029B0223CDE9052305A90323CDE90833E7
:1024900001F0C2FB192022460F2101F095FA192004
:1024A000D0E7194A934211D1144B00220392196CC0
:1024B00041F0800119641B6C03F0800303932C200E
:1024C0000521039B01F080FA2C20BBE70F4A9342C1
:1024D000BAD10A4B00220492196C41F4807119643C
:1024E0001B6C03F4807304932D200521049B01F0E1
:1024F0006BFA2D20A6E700BF0040014000380240E3
:102500000044014000140240001C00400020004034
:1025100010B5044688B01422002103A806F0A1F9E2
:102520002368244A934218D100230093224B1A6B4C
:1025300042F010021A631B6B03F01003009320207B
:10254000009B0223CDE9030306931C480323079352
:1025500003A901F061FB08B010BD194A934217D1DD
:1025600000230193144B1A6B42F020021A631B6B79
:1025700003F020030193019B4FF480730393022324
:10258000032104930923CDE906130E4803A9E0E7CC
:102590000D4A9342DFD100230293074B1A6B42F09E
:1025A00020021A631B6B03F020030293029B4FF47B
:1025B0000073E3E700400140003802400010024091
:1025C000001C0040001402400020004070B588B09C
:1025D00000241E4B02945A6C1D4D42F001025A64B5
:1025E0005B6C03F0010301A90293064603A8029B5A
:1025F00001F08AFE01F078FE164B2B6040F2E733C3
:10260000154AEB6043002846B3FBF2F3013B2C6113
:10261000AC60AC616B6002F069F8044680B9284692
:1026200001F01EFF044658B9192001F0FFF90F2EE2
:1026300009D822463146192001F0C6F9074B1E6021
:10264000204608B070BD0124FAE700BF0038024000
:10265000442600200000014040420F006402002098
:10266000FEE7FEE7FEE7FEE7FEE7704701F0BABBD4
:1026700001F026BA70470000014801F02FBF00BFEB
:102680005005002008B5044801F028FFBDE80840C7
:10269000024801F023BF00BF442600207804002038
:1026A000014801F01BBF00BFC0040020014801F039
:1026B00015BF00BF0805002070470120704708B50E
:1026C00006F0D4F9162303604FF0FF3008BD08B5BB
:1026D00006F0CCF916230360FEE770B50D461446EC
:1026E0000E46731B9C4201DC204670BDAFF3008098
:1026F00006F8010BF5E770B50D4614460E46731B40
:102700009C4201DC204670BD16F8010BAFF300803F
:10271000F5E74FF0FF3070474FF400534B60002057
:102720007047012070470020704700000B4A116875
:1027300010B5034609B90A491160106809490A4CE5
:102740000344091B8B4206D906F090F90C23036061
:102750004FF0FF3010BD1360FCE700BF8C26002057
:10276000E03301200000022000400000034AD2F8BC
:10277000883043F47003C2F88830704700ED00E001
:102780002DE9F7439DF8285015441F46EDB2CB18AC
:102790000095DBB280460E46144600F023FD18B1CA
:1027A0004FF00009A54202D103B0BDE8F0832246F4
:1027B000CDF800903B4631464046013400F06FFCB6
:1027C000E4B2EFE72DE9F74F9DF830A0CF1802EB08
:1027D0000A06FFB2F6B2994600963B4604460D46FD
:1027E000904600F0FFFC30B30023009342464B4676
:1027F000294620464FF0010B00F051FC534642465B
:1028000029462046CDF800B000F049FC791E534619
:1028100042462046CDF800B0C9B200F040FC721E1E
:1028200000230C93D2B24B462946204603B0BDE8A4
:10283000F04F00F034BC03B0BDE8F08F2DE9F04F4D
:1028400087B09A469DF840300393039B9DF844401F
:102850000291D51801EB0A06F6B2EDB200953346A7
:102860008046934600F0BEFC00285AD0029B0BEB3A
:1028700004091F19FFB25FFA89F90223361B00937E
:102880004A46234639464046013E00F01AF9F6B260
:1028900001232D1B314600934A4623464046013D05
:1028A00000F00FF9EDB2042300932A46234639467F
:1028B000404600F006F908233146660000932A4698
:1028C00023464046F6B200F0FCF8AAEB0603DBB262
:1028D000022B13D90134E4B20137023BF9B2DBB267
:1028E0005A464046009405930491FFF749FF059B23
:1028F000049900942A464046FFF742FF039B9B1B26
:10290000DBB2022B0DD9023B09F10102DBB20299C5
:102910001093D2B25346404607B0BDE8F04FFFF7E0
:102920002FBF07B0BDE8F08F2DE9F743036890F89B
:102930003C9090F83D7093F811800446002623687F
:10294000A06B1B7C13FB06F1C90089B2F5B20844E9
:1029500057FA86F201350090D2B200212046EDB23E
:1029600000F057FFA94504D90136BB19DBB29845E1
:10297000E5D803B0BDE8F08303681A7C90F83C30DA
:10298000806B12FB03F2D200002105F06ABF10B584
:10299000436B80F83D1004461B689847636B2046E4
:1029A0005B68BDE81040184710B590F887300446C2
:1029B0000BB1FFF7E1FF20460021BDE81040FFF713
:1029C000E6BF38B50446FFF7AFFF94F83C3094F803
:1029D0003D501D4423685B7CEDB2AB4204D82046D9
:1029E00000F042FF002038BD94F8873013B1204634
:1029F000FFF7C2FF20462946FFF7C9FF0120F2E793
:102A00002DE9F0479DF824909DF8208019F0010FE2
:102A100007460C4616461D4612D0531C6918A8EBF3
:102A20000202DBB2D2B2C9B200F0A8FB631CA8EB71
:102A30000402A919DBB2D2B2C9B2384600F09EFB3B
:102A400019F0020F13D0731CA8EB0602291BDBB28E
:102A5000D2B2C9B2384600F091FB631CA8EB040265
:102A6000A91BDBB2D2B2C9B2384600F087FB19F01D
:102A7000080F0FD0731C2919DBB24246C9B2384681
:102A800000F07CFB631CA919DBB24246C9B2384690
:102A900000F074FB19F0040F11D0291B731C42467F
:102AA0003846DBB2C9B200F069FB0134A91BE3B2BE
:102AB00042463846C9B2BDE8F04700F05FBBBDE80A
:102AC000F0872DE9F74F91461C4609F101050133C6
:102AD00025440B448846121B091BEDB20095DBB25E
:102AE000D2B2C9B29DF830B0824600F07BFB88B10B
:102AF000CDE9009B4346224600215046C4EBC41753
:102B0000FFF77EFFC4F101057F006DB27FB20026A2
:102B1000B44202D803B0BDE8F08F002D06DBBB1C29
:102B2000013C5FB255FA83F3E4B25DB20136F6B20E
:102B300005EB4605CDE9009B01354346224631466B
:102B400050466DB2FFF75CFFE2E70000022303701E
:102B5000004870479026002030B585B00D460093A0
:102B600009491346094A044600F0A4FE0DF10F007E
:102B7000FFF7ECFF064B9DF80F200095014620461D
:102B800000F017FC05B030BD6D3700085136000865
:102B9000153200084218435C507800EB032080B2E5
:102BA0007047012B05D0022B05D033B91044C0B2B9
:102BB00070470844FBE7801AF9E7401AF7E7012B52
:102BC00005D0022B05D033B90844C0B27047801A33
:102BD000FBE7401AF9E71044F7E70020704738B5E3
:102BE0000B7803704B7843708B788370CB78C3700D
:102BF0000B7903714B7943718B798371CB79C371F5
:102C00000B7A03724B7A43728B7A8372CB7AC372DC
:102C10000B7B03734B7B43738B7B8373CB7BC373C4
:102C20000D460B7C0374044611212846FFF7B2FFC2
:102C3000132160822846FFF7ADFF1521A0822846A8
:102C4000FFF7A8FFE08238BD70B5847A0368621888
:102C50001D78D2B2072A45FA04F507D8EBB2827282
:102C60004FF0FF30884023EA000070BD5E1C066014
:102C70005B78C4F10804E4B2A3402B43083ADBB20A
:102C8000D2B2ECE738B5002300F15805044680F8CD
:102C90006230816590F86C102846FFF7D5FF94F8F4
:102CA0006D1084F860002846FFF7CEFF94F8863058
:102CB00084F86430B3FA83F35B0984F8610084F824
:102CC000653038BD10B5FFF7BFFF4C1EE4B20123DD
:102CD000A340C01A40B210BD2DE9F04F85B090F866
:102CE0005E5090F85F70039204460E4694F860B010
:102CF00094F85C00ABEB0503DBB2B342029328BF50
:102D000033469A4694F85D304FFA87F94A4669B2DD
:102D100007EE903A94F86630FFF751FF804617EEC1
:102D2000900AFFF73EFF03990246A9B194F8641098
:102D300084F88610009341465346204600F0AFF9D0
:102D4000029B35449E42EDB20DD3A5EB0B05013736
:102D5000EEB2FFB20025C9E794F863100029EFD165
:102D600094F86510E4E784F85E5084F85F9005B04D
:102D7000BDE8F08F2DE9F74F044600F15807FFF743
:102D800081FF94F86E1094F961903846FFF79AFF2E
:102D900094F86F1083463846FFF794FF94F870104C
:102DA00006463846FFF78EFF94F960A0BAF1000F8F
:102DB00080464EDD56FA89F2524252B294F866309D
:102DC00094F85C005946FFF7FAFE84F85C0006466A
:102DD00094F85D00FFF7E5FE5FFA89F5024684F896
:102DE0005D00032B5BD8DFE803F00238425006EBAE
:102DF0000A032918DBB2C9B200912046314600F01F
:102E0000F1F930B30023A4F85E3094F86A10384624
:102E1000FFF71AFF94F86B1006463846FFF714FFC9
:102E20000546002231462046FFF756FF2946204638
:102E30000122FFF751FF01213846FFF705FF002867
:102E4000EFD194F95F304B45DFDB94F8643084F8C0
:102E50008630404603B0BDE8F08FC5F10105731C14
:102E6000354400EB0A01DBB2C9B2EEB2C4E7CAF1E5
:102E7000010AC5F10105731CB2440544411CDBB2D3
:102E8000C9B2EAB25FFA8AF6B6E7CAF1010A354476
:102E90008244411CEBB2C9B25FFA8AF2ACE7014648
:102EA0003346A9E7036DFF2970B503F117030D46FB
:102EB00012D8602909D9B0F87C201344587818B189
:102EC0001A78AA4206D1981C70BD4029F6D9B0F8EC
:102ED0007A20F2E70344F1E7B0F87E209C182646FA
:102EE00000213046FFF756FE022104443046FFF72A
:102EF00051FE854206F10406F2D8208840BA80B21D
:102F00000028E1D0854201D1E01CDDE7A3781C4414
:102F1000F3E7F8B51F4690F8663004460E461546AE
:102F2000032B07D8DFE803F002151A1E436D9847FC
:102F30002844C5B284F85C6084F85D503946204668
:102F4000FFF7B0FF20B101462046FFF713FFC0B2E4
:102F5000F8BD436D9847301AC6B2EBE7436D98470A
:102F6000281AE6E7436D98473044F5E72DE9F04726
:102F70001E4607460C46154600F083FA013E4FF008
:102F8000000A4FF6FF784FF6FE797B6816F8011FAE
:102F900038469847404503461CD04845F5D02A4658
:102FA00021463846FFF7B5FF97F86630032B05D862
:102FB000DFE803F002090C0E0444E4B20AEB00025D
:102FC0005FFA82FAE1E70544EDB2F7E7241AF4E785
:102FD0002D1AF9E75046BDE8F087000010B4034C05
:102FE00044605DF8044BFFF7C1BF00BFF133000838
:102FF00010B4034C44605DF8044BFFF7B7BF00BF4B
:1030000001340008036D10B5CBB190F8813090F910
:10301000754090F9761080F8824080F8831073B183
:10302000012B0DD190F97730A342B8BF234680F829
:10303000823090F97830994201DD80F8833010BDFC
:1030400090F9742090F9723013449C42B8BF80F814
:1030500082309142C8BF80F88320F0E7014B43657E
:10306000704700BFDB2B0008026D8A4210B5044692
:1030700008D001656830FFF7B2FD2046BDE810407A
:10308000FFF7C0BF10BD70B490F84060046B9DF8AE
:103090000C500395921BA446D2B270BC6047F0B4AA
:1030A00090F880409DF81050002C3AD0002B38D07A
:1030B000012B04D0022D2BD10131C91AC9B215F050
:1030C000010530D190F8474094422AD890F8484002
:1030D000944226D90B44DCB28C4290F8457090F8AB
:1030E00046601CD28E4219D9741EE4B2A74218D28F
:1030F000B94238BF3946A64294BFC1EB0603C1EBC3
:103100000403446B0495A468DBB2A446F0BC60479A
:10311000032D02BF0132D21AD2B2D0E739468E4215
:10312000E4D8F0BC704790F845408C42F9D890F84C
:1031300046408C42F5D91344DCB2944290F8477073
:1031400090F8486010D296420DD9741EE4B2A7429E
:10315000E7D2BA4238BF3A46A64294BFC2EB060352
:10316000C2EB0403CDE73A469642F0D8D9E713B54F
:1031700000240094FFF793FF02B010BD13B50124A3
:103180000094FFF78CFF02B010BD73B590F8476054
:10319000964210D890F8486096420CD990F8455065
:1031A0008D4208D890F846308B4204D90023009312
:1031B0000123FFF774FF02B070BD032928BF01216E
:1031C00080F8861070478A4206D2834208D89A4215
:1031D00094BF0020012070478342F8D80020704738
:1031E0000120704770B504460D461E4690F8481001
:1031F0009DF8103090F84700FFF7E5FF48B194F8CC
:10320000461094F8450033462A46BDE87040FFF763
:10321000DABF70BDF0B590F886509DF8147002F0DA
:1032200007060124B440012DE4B215D8254615D077
:1032300002F0F80C026892F810E0826B0EFB0C11A1
:1032400011446FB90A78013B2A43624013F0FF032F
:1032500001F8012BF6D1F0BD0025E9E70024E7E7EE
:103260000A7801362A436240013B16F007060A70CD
:10327000DBB20CD190F83E20114490F88620012A50
:103280000AD80BD001242546002BE9D1E3E76D00D5
:103290006400EDB2E4B2F7E70124F5E71546F3E781
:1032A00070B590F83C10026890F83D50CB0080F863
:1032B0003F30137C1F2B28BF1F23DB0080F83E30DC
:1032C000EB00DBB280F84030547C80F841304E197E
:1032D000A642C4BF641BE1B203EBC10380F84230D5
:1032E000F02380F84330918A994298BF0B4680F8CA
:1032F0004330D38A80F8443070BDFFF7D1BF10B49B
:103300009DF8044001945DF8044BFFF7BCBE13B573
:1033100090F84C30009390F84A3090F84B2090F899
:1033200049100446FFF75EFF18B984F8800002B028
:1033300010BD012394F8452084F8803094F849307A
:103340009A4238BF84F8453094F8462094F84A30C1
:103350009A4288BF84F8463094F8472094F84B305E
:103360009A4238BF84F8473094F8482094F84C309B
:103370009A4288BF84F84830D9E7002280F8452077
:1033800090F8432080F8462090F8412080F84720AC
:1033900090F8422080F84820FFF7B9BF002280F85B
:1033A0004920436BFF22A0F84A2080F84C205B683C
:1033B000184770B5049E0363002540F2011380F89E
:1033C0003C2080F83D5080F8635080F88550A0F88C
:1033D0008630044681633368056546639847204616
:1033E000FFF7DCFF2046FFF739FE84F8665070BD1A
:1033F00019B10A2901D088B270474FF6FF707047A3
:1034000000293BD00A2939D090F827302BBBFB2963
:1034100008D901F001010523018480F827304FF617
:10342000FE7118E0F72903D901F003010423F3E743
:10343000EF2903D901F007010323EDE7DF2903D9C1
:1034400001F00F010223E7E7BF2903D901F01F01B3
:103450000123E1E789B208467047028C01F03F0181
:1034600041EA8211013BDBB289B24FF6FE72018460
:1034700080F82730002B18BF1146ECE74FF6FF719C
:10348000E9E7002380F82730704710B404690A4642
:10349000A44600235DF8044B2021604710B4046962
:1034A0001346A4460A465DF8044B1721604707B54A
:1034B0008DF807100DF107020121FFF7EFFF03B0B0
:1034C0005DF804FB14392DE9F04104461F460C2930
:1034D0005ED8DFE801F0395D5D0746535D5D5D5DF7
:1034E0005D5D4400BE18B74202D10120BDE8F08105
:1034F00017F8018B40252946013508F001022046C6
:10350000EDB200F0BAF9482D4FEA5808F3D123681C
:1035100020469A7B2C2100F0B0F929462046002253
:1035200000F0ABF923682046DA7B2C2100F0A5F9E6
:1035300029462046012200F0A0F923682C219A7B1D
:10354000204600F09AF9CEE7036849215A7800F046
:1035500094F901224821204600F08FF9C5E74A215D
:10356000F9E7036849211A7800F087F9226865694C
:10357000927800232C212046A847B6E702684569C7
:10358000D27800232C21A847236849215A78E2E702
:103590000020ABE710B4C4680A46A44600235DF8D7
:1035A000044B1521604710B4C4680A46A4460023A2
:1035B0005DF8044B1621604710B4C4681346A44656
:1035C0000A465DF8044B1721604710B4C468002315
:1035D000A4461A465DF8044B1821604710B4C4682D
:1035E0000023A4461A465DF8044B1921604773B5C1
:1035F00005460C46217819290DD8172919D80ED05F
:1036000014290AD96278EE688DF80720002328462D
:10361000B0470234EEE7FE2912D002B070BD6378E5
:103620008DF807300DF1070201212846FFF7C4FF8E
:10363000EFE70023EE681A4628460134B047D9E781
:1036400062788DF807202921284600F016F9E0E776
:10365000F7B51646A1F1140204460D46052A1CD8FA
:10366000DFE802F01203030D12120021FFF70DFF35
:1036700031462046FFF71BFF012003B0F0BD0121BA
:103680000193FFF702FF019B276932462946204636
:10369000BC4603B0BDE8F04060470020EDE7000005
:1036A0000B39F8B5044615461E46042953D8DFE801
:1036B00001F02F5238470300FFF787FF7179C900E7
:1036C000CFB2204601F00801FFF764FF390941F04D
:1036D00010012046FFF75EFFB17994F822301944BB
:1036E00001F00F0141F0B0012046FFF753FF377999
:1036F0003668FF00FFB2324639462046013DFFF7EB
:103700005BFF15F0FF05F6D12046FFF767FF04E0E9
:103710002AB912492046FFF76AFF0120F8BD104977
:10372000F8E73AB90F49FFF762FF23689B7C84F8FA
:103730002230F2E70C49FFF75AFF2368DB7CF6E7FB
:10374000FFF743FF81212046FFF724FF294620464B
:10375000FFF729FFD8E70020E0E700BF27040108B2
:103760002C0401081D0401082204010838B5044690
:103770000D46FFF795FF40B9092D02D00A2D06D05E
:1037800038BD0749204600F00FF80120F8E7204631
:1037900000F00FF803492046FFF729FFF5E700BFC7
:1037A00034040108FC03010801608B7C80F822309E
:1037B000704738B5002304461A4645692821A847B2
:1037C00000231A46E56814212046A8472046012216
:1037D0004B2100F052F8236820461A79292100F085
:1037E0004CF8204600224B2100F047F82368204681
:1037F0001A79292100F041F8204601224B2100F0DE
:103800003CF8236820465A792921BDE8384000F069
:1038100034B813B58DF80430049B8DF805108DF87D
:103820000620009384686B4601220F21A04702B056
:1038300010BD10B484680023A4461A465DF8044BFA
:103840000921604710B484680023A4461A465DF835
:10385000044B0A21604710B484680A46A44600233A
:103860005DF8044B0B21604710B484680023A44624
:103870001A465DF8044B1021604710B444690023D8
:10388000A4465DF8044B6047002070470023084AB7
:10389000036080F82330C3848361FF23C0E90222E0
:1038A000C0E9042280F8243080F82930704700BF36
:1038B00089380008F8B5069F16461D46FFF7E6FF53
:1038C000C0E90216C0E90457BDE8F840FFF7B1BFF0
:1038D000DFF834D00D480E490E4A002302E0D458D8
:1038E000C4500433C4188C42F9D30B4A0B4C002348
:1038F00001E013600432A242FBD3FEF737FF05F06C
:10390000BBF8FEF7F1FA704700000220000000202B
:10391000480400202409010848040020DC33012069
:10392000FEE7000008B50B4B1A6842F400721A60FB
:103930001A6842F480621A601A6842F480721A604F
:10394000032000F02FF80F20FEF740FEFEF71AFDCF
:10395000002008BD003C0240034A044B11681B785C
:103960000B441360704700BF7028002060020020E5
:10397000014B1868704700BF7028002038B5044616
:10398000FFF7F6FF631C1CBF054B1B78054618BFED
:10399000E418FFF7EDFF431BA342FAD338BD00BF85
:1039A000600200200749CA6822F4E06203021204A0
:1039B00003F4E063120C134343F0BF6343F400339A
:1039C000CB60704700ED00E0164B30B5DC68C4F307
:1039D0000224C4F10703251D042B28BF0423062D50
:1039E0004FF0FF358CBF033C002405FA03F321EAB6
:1039F0000303A54022EA0502A340002843EA02038C
:103A0000ACBF00F16040084A4FEA0313B8BF00F0B2
:103A10000F00DBB2AABF00F56140135480F80033F9
:103A200030BD00BF00ED00E014ED00E0002807DB32
:103A30004109044A00F01F000123834042F821306D
:103A4000704700BF00E100E01A4BDA68D20606D5E5
:103A50001949CA6942F01002CA611022DA60DA68B4
:103A6000900606D51449CA6942F00802CA612022AC
:103A7000DA60104BDA68510606D50F49CA6942F080
:103A80000402CA614022DA60DA68120606D50A49E1
:103A9000CA6942F00202CA618022DA60054AD3682C
:103AA0009B0706D50449CB6943F02003CB61022371
:103AB000D3607047003C0240742800207047704774
:103AC00038B52E4B2E4CDB6813F0F20F0DD0237857
:103AD000012B35D14FF0FF33E568E360FFF7B4FF0A
:103AE0002846FFF7ECFF00232370244BDA68D20747
:103AF00013D50122DA602378934231D16368013B08
:103B00006360636813B3E068FFF7D8FFE3680133CD
:103B1000E360E068217A00F035F8237803F0FF01D4
:103B20006BB9164B1A6922F0FF021A611A6922F06A
:103B300080721A611A6922F000721A61217638BD0A
:103B40002378022B0CBF25696569C7E74FF0FF3565
:103B5000E560237000F034F82846FFF7AFFFDCE79C
:103B60002378022B07D100F02BF82069FFF7A6FF7E
:103B700000232370D1E76069F8E700BF003C0240F2
:103B8000742800200D4B1A6922F440721A611A69D8
:103B9000022994BF09024FF440710A431A611A695D
:103BA00022F0F8021A611A6942EAC00040F00200ED
:103BB00018611A6942F480321A617047003C024071
:103BC000144B1A6891050FD51A6822F400721A6016
:103BD0001A6842F400621A601A6822F400621A60DD
:103BE0001A6842F400721A600A4B1A6852050FD51F
:103BF0001A6822F480621A601A6842F480521A60CD
:103C00001A6822F480521A601A6842F480621A60BC
:103C1000704700BF003C02402DE9F74FDFF8A89144
:103C2000674A00230D6801249C4004EA050CAC435C
:103C300040F0B1804D6805F003044FEA43080326C5
:103C4000671E06FA08F6012F6FEA060634D8876861
:103C500007EA060ECF6807FA08F747EA0E078760FB
:103C6000476827EA0C0EC5F300179F4047EA0E0786
:103C70004760C76807EA060E8F6807FA08F747EA41
:103C80000E07022CC76019D14FEAD30A00EB8A0A4B
:103C900003F0070BDAF820704FEA8B0B4FF00F0E92
:103CA0000EFA0BFE27EA0E0E0F6907FA0BF747EA2A
:103CB0000E07CAF8207001E0032CDAD1076804FA75
:103CC00008F437403C4315F4403F046063D04FF0A4
:103CD000000ACDF804A0D9F844603A4C46F4804676
:103CE000C9F84460D9F8446006F480460196019E04
:103CF00023F0030606F1804606F59C3603F0030E1A
:103D0000D6F808804FEA8E0E0F2707FA0EF7A0426A
:103D100028EA070746D004F58064A04244D004F5A1
:103D20008064A04242D004F58064A04240D004F5F3
:103D30008064A0423ED004F58064A0423CD004F5EB
:103D40008064A0423AD004F58064A0420CBF0724EE
:103D5000082404FA0EF43C43B46094686FEA0C063D
:103D6000EF0254BF34404CEA04049460D468AF02BC
:103D700054BF34404CEA0404D4605468AF0354BFC9
:103D800034404CEA040454601468ED0354BF3440DA
:103D90004CEA040414600133102B7FF443AF03B0EA
:103DA000BDE8F08F5446D4E70124D2E70224D0E7DF
:103DB0000324CEE70424CCE70524CAE70624C8E799
:103DC000003C0140000002400038024003691942F3
:103DD00014BF0120002070470AB1816170470904B7
:103DE000FBE7704710B5054C6369DB0304D5FFF7AB
:103DF000F8FF4FF48033636110BD00BF003C014009
:103E00002DE9F341044640B30368DD0710D423686D
:103E100098075BD423681A0700F19D8023685B072D
:103E200000F1BD80A069002840F0248100202CE032
:103E30008D4B9A6802F00C02042A07D09A6802F0AF
:103E40000C02082A0BD15B68590208D5864B1B6807
:103E50009A03DCD56368002BD9D1012015E0636893
:103E6000814DB3F5803F13D12B6843F480332B6031
:103E7000FFF77EFD7C4E054633689B03C7D4FFF7F2
:103E800077FD401B6428F7D9032002B0BDE8F0811C
:103E9000B3F5A02F04D12B6843F480232B60E3E714
:103EA0002A6822F480322A602A6822F480222A605A
:103EB000002BDDD1FFF75CFD06462B689F03A6D5DE
:103EC000FFF756FD801B6428F7D9DDE7664B9A683B
:103ED00012F00C0F07D09A6802F00C02082A11D1D8
:103EE0005B685E020ED4604A13689D0702D5E368E2
:103EF000012BB2D11368216923F0F80343EAC1030F
:103F0000136087E7E268594BB2B101221A60FFF7EC
:103F10002FFD554D06462B68980707D52B6822695B
:103F200023F0F80343EAC2032B6073E7FFF720FD99
:103F3000801B0228EFD9A7E71A60FFF719FD4A4E48
:103F40000546336899077FF565AFFFF711FD401B04
:103F50000228F6D998E76269444B82B10122C3F87E
:103F6000802EFFF705FD404E0546736F9F073FF516
:103F700055AFFFF7FDFC401B0228F6D984E7C3F8D4
:103F8000802EFFF7F5FC384E0546736F98077FF5D6
:103F900045AFFFF7EDFC401B0228F6D974E7324B22
:103FA0001A6C12F0805228D101921A6C42F08052A1
:103FB0001A641B6C03F080530193019B01272C4D65
:103FC0002B68D9051BD5A368274D012B27D12B6F53
:103FD00043F001032B67FFF7CBFC234E054641F26C
:103FE0008838336F9B0739D5002F3FF41BAF1E4A2B
:103FF000136C23F08053136414E70027DFE72B686A
:1040000043F480732B60FFF7B3FC06462B68DA0598
:10401000D9D4FFF7ADFC801B0228F7D934E7052B74
:1040200004D12B6F43F004032B67D0E72A6F22F0F3
:1040300001022A672A6F22F004022A67002BCAD1E4
:10404000FFF796FC41F2883806462B6F9807CBD5D0
:10405000FFF78EFC801B4045F7D915E7FFF788FC7A
:10406000401B4045BDD90FE70038024000004742E1
:1040700000700040364DAB6803F00C03082B3DD0B8
:10408000344B002202281A662BD1FFF771FC06463A
:104090002B6899011FD4D4E907321343626A43EABB
:1040A0008213E26A43EA0263A26A5208013A43EACF
:1040B00002436B60274B264D01221A66FFF758FC1E
:1040C00004462B689A013FF5B1AEFFF751FC001B87
:1040D0000228F6D9D8E6FFF74BFC801B0228D7D977
:1040E000D2E6FFF745FC04462B689B017FF59EAEA8
:1040F000FFF73EFC001B0228F6D9C5E601283FF475
:10410000C4AE6B68E26903F4800191427FF4A5AE0E
:10411000216A03F03F028A427FF49FAE616A47F64C
:10412000C0721A40B2EB811F7FF497AEA26A5208A8
:1041300003F44031013AB1EB024F7FF48EAEE26AF4
:1041400003F07063B3EB026F3FF470AE85E600BF1F
:104150000038024000004742134908B58B6803F05D
:104160000C03042B1CD0082B1CD14A684B684968EF
:1041700013F4800314BF0D480D48C1F3881118BF14
:10418000002302F03F02A1FB0001FCF77DFD064B7E
:104190005B68C3F3014301335B00B0FBF3F008BD80
:1041A0000248FCE70248FAE700380240001BB7006B
:1041B0000024F4002DE9F0410D46044610B9012019
:1041C000BDE8F081434B1A6802F007028A4228D307
:1041D00021688F072DD4C80740D43E4B1A6802F0DF
:1041E0000702AA4265D8226851076BD4130707D586
:1041F000394A2169936823F4604343EAC103936019
:10420000FFF7AAFF344B354A9B68C3F30313D35C13
:10421000D840334B1860334B1868FEF7D7F90020AD
:10422000CEE7CAB21A701B6803F007038B42C6D1EF
:10423000CEE7294B11F0040F1EBF9A6842F4E052FA
:104240009A600E0742BF9A6842F460429A609A6888
:10425000A06822F0F00202439A60BCE762681E4B3D
:10426000012A1CD11B6813F4003FA8D01A4EB36872
:1042700023F003031343B360FFF77AFB41F288385E
:104280000746B368626803F00C03B3EB820FA4D057
:10429000FFF76EFBC01B4045F3D9032090E7911E4A
:1042A00001291B6802D813F0007FDEE713F0020F2C
:1042B000DBE7EAB21A701B6803F00703AB427FF436
:1042C0007EAF90E70449E0688B6823F4E053034332
:1042D0008B608BE7003C02400038024050C500086C
:1042E0005C02002064020020044B054A9B68C3F373
:1042F0004233D35C034A1068D8407047003802400C
:1043000060C500085C0200200F2303600B4B9A6815
:1043100002F0030242609A6802F0F00282609A683A
:1043200002F4E052C2609B68DB0803F4E0530361CF
:10433000034B1B6803F007030B6070470038024013
:10434000003C0240036A23F001030362036A70B574
:10435000446882690D6822F073022A438D6823F055
:1043600002032B430E4DA84202D00E4EB04210D194
:10437000CE6823F008033343A84223F0040302D09D
:10438000084DA84205D1D1E9055624F440743543BF
:104390002C43446082614A684263036270BD00BF7F
:1043A0000000014000040140036A23F480730362AB
:1043B000036A70B54468C2690D6822F073022A432B
:1043C0008D6823F4007343EA0523114DA84203D0FE
:1043D00005F58065A84214D1CD6823F4006343EA53
:1043E00005230B4DA84223F4806303D005F58065B7
:1043F000A84206D1D1E9055624F44054354344EA95
:1044000005144460C2614A68C263036270BD00BFA4
:1044100000000140036A23F480530362036A30B54D
:104420004468C2690D6822F4E64242EA05228D68BA
:1044300023F4005343EA0533084DA84203D005F5A1
:104440008065A84204D14D6924F4804444EA85146F
:104450004460C2614A680264036230BD00000140EA
:1044600090F83D30012B30D1022380F83D300368B5
:10447000DA6842F00102DA60154A93421AD0B3F1C9
:10448000804F17D0A2F57C42934213D002F5806290
:1044900093420FD002F5806293420BD002F578422E
:1044A000934207D002F57052934203D0A2F59432A2
:1044B000934204D19A6802F00702062A03D01A68D0
:1044C00042F001021A60002070470120704700BFCF
:1044D00000000140704770477047704703681A69D1
:1044E000910710B504460ED5DA6892070BD56FF028
:1044F00002021A61012202779B699B0777D0FDF7C0
:1045000053FC0023237723681A69500710D5DA6813
:1045100051070DD56FF004021A61022222779B69C0
:1045200013F4407F204668D0FDF73EFC002323773C
:1045300023681A6912070FD5DA6810070CD56FF0D7
:1045400008021A6104222277DB69990720465AD0B3
:10455000FDF72AFC0023237723681A69D20610D5B9
:10456000DA68D0060DD56FF010021A6108222277A2
:10457000DB6913F4407F20464BD0FDF715FC002388
:10458000237723681A69D10708D5DA68D20705D5D9
:104590006FF001021A612046FDF7B8FE23681A6920
:1045A000100608D5DA68110605D56FF080021A6189
:1045B000204600F0D6FC23681A69520608D5DA684E
:1045C000500605D56FF040021A612046FFF785FFBF
:1045D00023681A69910622D5DA6892061FD56FF012
:1045E000200220461A61BDE8104000F0B9BCFFF778
:1045F00073FF2046FDF714FC83E7FFF76DFF2046AD
:10460000FDF70EFC92E7FFF767FF2046FDF708FC79
:10461000A0E7FFF761FF2046FDF702FCAFE710BD02
:10462000304A0368904212D0B0F1804F0FD0A2F50B
:104630007C4290420BD002F58062904207D002F596
:104640008062904203D002F57842904219D14A68C4
:1046500023F070031343234A904229D0B0F1804FD6
:1046600026D0A2F57C42904222D002F58062904290
:104670001ED002F5806290421AD002F57842904234
:1046800016D0194A904213D002F5806290420FD0A2
:1046900002F5806290420BD0A2F59832904207D08A
:1046A00002F58062904203D002F58062904203D10D
:1046B000CA6823F4407313434A6923F08003134309
:1046C00003608B68C3620B688362064B984203D019
:1046D00003F58063984201D10B69036301234361B1
:1046E000704700BF000001400040014010B5044683
:1046F00030B390F83D3003F0FF021BB980F83C2046
:10470000FDF782FE0223206884F83D30211DFFF76B
:1047100087FF012384F84630002084F83E3084F877
:104720003F3084F8403084F8413084F8423084F8D7
:10473000433084F8443084F8453084F83D3010BD6F
:104740000120FCE710B5044630B390F83D3003F08B
:10475000FF021BB980F83C20FFF7BCFE0223206853
:1047600084F83D30211DFFF75BFF012384F84630BC
:10477000002084F83E3084F83F3084F8403084F8DC
:10478000413084F8423084F8433084F8443084F86F
:10479000453084F83D3010BD0120FCE710B50446DB
:1047A00030B390F83D3003F0FF021BB980F83C2095
:1047B000FFF791FE0223206884F83D30211DFFF7AA
:1047C0002FFF012384F84630002084F83E3084F81F
:1047D0003F3084F8403084F8413084F8423084F827
:1047E000433084F8443084F8453084F83D3010BDBF
:1047F0000120FCE7036A23F010030362036A70B52B
:10480000446882690D6822F4E64242EA05228D6816
:1048100023F0200343EA0513104DA84203D005F509
:104820008065A84214D1CD6823F0800343EA0513C4
:104830000A4DA84223F0400303D005F58065A84245
:1048400006D1D1E9055624F44064354344EA850491
:10485000446082614A688263036270BD0000014067
:1048600070B590F83C30012B054650D00123082A42
:1048700080F83C303BD007D8C2B1042A27D0184674
:10488000002385F83C3070BD0C2AF8D10068FFF792
:10489000C1FDC3690A6943F40063C361C36923F4BA
:1048A0008063C361C36943EA02232EE00068FFF717
:1048B00049FD83690A6943F008038361836923F032
:1048C000040383618369134383610020D8E7006890
:1048D000FFF790FF83690A6943F40063836183698A
:1048E00023F480638361836943EA0223ECE7006871
:1048F000FFF75AFDC3690A6943F00803C361C3693E
:1049000023F00403C361C3691343C361DDE70220DD
:10491000B9E7000070B5046A1A4E24F0010404627D
:10492000B0428469056A29D0B0F1804F26D0A6F53F
:104930007C46B04222D006F58066B0421ED006F515
:104940008066B0421AD006F57846B04216D006F519
:104950007056B04212D0A6F59436B0420ED044F054
:1049600001021B0122F0F002DBB2134301F00A0145
:1049700025F00A0211438361016270BD24F0030433
:104980002243EEE700000140F8B590F83C30012BDF
:1049900005460C4600F08B80012380F83C3092B92C
:1049A0000068CB68D1E90012FFF7B4FF8369A26801
:1049B00023F00C0383618369134383610020002388
:1049C00085F83C30F8BD042A24D10368186A20F029
:1049D0001000D1E90027C968186298691E6A20F49E
:1049E000407040EA0720090320F4704089B21201A8
:1049F000014302F0A00226F0A000024399611A626E
:104A00009A69A16822F440629A619A6942EA012295
:104A10009A61D3E7082A22D103681E6A26F48076B9
:104A2000D1E90020C9681E62DF691E6A27F003070A
:104A30003843090120F0F000C9B21202014302F428
:104A4000206226F420600243D9611A62DA69A16803
:104A500022F00C02DA61DA690A43DA61AEE70C2A65
:104A600023D10368186A20F48050D1E90027C9686F
:104A70001862D8691E6A20F4407040EA07200903D2
:104A800020F4704089B21203014302F4204226F45C
:104A900020400243D9611A62DA69A16822F44062B7
:104AA000DA61DA6942EA0122D7E7184687E702208D
:104AB00088E710B58468114324F47F4441EA032356
:104AC0002343836010BD38B590F83C30012B044679
:104AD0004FF0020300F08E80012280F83D3080F814
:104AE0003C200068836823F47F4323F077038360CE
:104AF0000B68602B4FD032D8402B64D016D8202BB7
:104B00000DD00AD833F0100109D0012384F83D30CC
:104B1000002384F83C30104638BD302BF5D1826834
:104B200022F07002134343F0070328E0502BECD12E
:104B30004A68CD68016A036A23F00103036283694E
:104B400021F00A0123F0F00343EA05130A438361CD
:104B50000262836823F0700343F057030FE0B3F55C
:104B6000805F0DD0B3F5005F0CD0702BCDD1CB683A
:104B7000D1E90121FFF79DFF836843F0770383604C
:104B80000022C2E7CB68D1E90121FFF792FF8368D9
:104B900043F48043F3E7036A4D68C96823F01003C8
:104BA00003628269036A22F4704223F0A00343EA9D
:104BB000051342EA013282610362836823F07003C5
:104BC00043F06703DBE74A68CD68016A036A23F0B4
:104BD00001030362836921F00A0123F0F00343EA31
:104BE00005130A4383610262836823F0700343F074
:104BF0004703C4E71A468EE7036A01F01F0110B5A8
:104C000001248C4023EA04030362036A8A401A43A6
:104C1000026210BD08B529B990F83E30012B18D0BA
:104C200001202CE004290DD190F83F30013B18BF42
:104C30000123002BF4D104294FF0020320D180F886
:104C40003F3009E008290CBF90F8403090F841301F
:104C5000ECE7022380F83E3000680122FFF7CCFF2A
:104C60001C4A904213D01C4B984210D0B0F1804F98
:104C700014D1836803F00703062B26D1002008BD5A
:104C800008290CBF80F8403080F84130E4E7436CDD
:104C9000904243F400434364EBD0E7E70F4B984264
:104CA000E7D003F580639842E3D003F58063984230
:104CB000DFD003F578439842DBD003F57053984278
:104CC000D7D0A3F594339842D3D0036843F00103BF
:104CD0000360D3E7000001400004014000040040ED
:104CE000FFF798BF68B50022054600680E46FFF73B
:104CF00083FF1A4B984203D003F5806398420DD18D
:104D0000026A41F211131A4208D1026A40F2444386
:104D10001A4202BF436C23F400434364026A41F227
:104D200011131A4208D1026A40F244431A4202BFE8
:104D3000036823F00103036001231EB985F83E30A8
:104D4000002068BD042E02D185F83F30F8E7082E18
:104D50000CBF85F8403085F84130F1E70000014094
:104D6000FFF7C0BF08B529B990F83E30012B1CD021
:104D7000012035E0042911D190F83F30013B18BFE4
:104D80000123002BF4D104294FF0020329D102683A
:104D900080F83F30D36843F004030DE008290CBFCE
:104DA00090F8403090F84130E8E70223026880F83C
:104DB0003E30D36843F002030068D3600122FFF75E
:104DC0001BFF224A90421ED0214B98421BD0B0F1CB
:104DD000804F1FD1836803F00703062B31D10020D9
:104DE00008BD082906D1026880F84030D36843F036
:104DF0000803E1E70C2980F84130B9D10268D36893
:104E000043F01003D8E7436C904243F400434364FB
:104E1000E0D0DCE70F4B9842DCD003F5806398428A
:104E2000D8D003F580639842D4D003F578439842F4
:104E3000D0D003F570539842CCD0A3F59433984268
:104E4000C8D0036843F001030360C8E700000140D5
:104E50000004014000040040FFF784BF08B503468A
:104E6000002942D190F83E0093F84220C0B20128B8
:104E7000D2B271D1012A70D1022200294BD1186817
:104E800083F83E2083F84220C26842F00202C260EA
:104E900018680122FFF7B0FE304B98421AD0B0F1EB
:104EA000804F17D0A3F57C43984213D003F580635D
:104EB00098420FD003F5806398420BD003F57843F6
:104EC000984207D003F57053984203D0A3F594336A
:104ED000984204D1836803F00703062B03D00368CC
:104EE00043F001030360002037E0042905D190F866
:104EF0003F0093F84320C0B2B9E708290BBF90F8F0
:104F0000400093F8410093F8442093F845200CBFEB
:104F1000C0B2C0B2ABE7042908D1186883F83F20BB
:104F200083F84320C26842F00402B0E7082908D1A0
:104F3000186883F8402083F84420C26842F00802D1
:104F4000A5E70C2983F8412083F8452005D118688E
:104F5000C26842F010029AE7012008BD000001403B
:104F60007047704708B54FF0E0231B6901F058F80F
:104F7000012803D0BDE8084001F064BB08BD000073
:104F8000EFF305832BB9064B186828B901221A6084
:104F900070476FF0050070474FF0FF30704700BF5B
:104FA0003C2B002010B5EFF305845CB9084B1A6860
:104FB000012A0AD1074AD47702221A6000F09AFD2A
:104FC000204610BD6FF00500FBE74FF0FF30F8E71B
:104FD0003C2B002000ED00E0F0B587B00B4600212F
:104FE0000591EFF30584CCB9C0B16AB395698D42E0
:104FF00008BF1825691E3729AC462AD85168C90749
:1050000027D456696EB1B408D2E9027E116857B14F
:10501000BEF1A70F02D9126902B1E6B9059807B02F
:10502000F0BD8024F0E7BEF1000FF7D11269002A2D
:10503000F4D105AACDE900C2A2B200F02DFD0128ED
:105040001CBF00230593E9E711464FF0180C80249C
:10505000EFE72046E3E7CDE901270095224600F07F
:10506000E3FC0590DAE710B5EFF3058424B910B13D
:1050700000F0A8FE204610BD6FF00500FBE7000021
:10508000034B0360034B0B6080231360704700BF2A
:10509000942A002094280020034B0360034B0B60EC
:1050A0004FF4807313607047402F0020402B002086
:1050B00000F108034FF0FF32C0E9022343600361AF
:1050C00000230360704700230361704743684B600F
:1050D0009A688A609A685160996003680861013330
:1050E0000360704730B50C68631C0AD103695A68C5
:1050F0004A6091608B605960036808610133036006
:1051000030BD00F10802134652681568A542FAD96D
:10511000EDE7D0E9011203698A6051605968814264
:1051200008BF5A60002202611A68013A1A601868C2
:10513000704710B5044601F01DFAA46B01F03AFA6D
:10514000B4FA84F0400910BDF8B51546026C866BC0
:10515000044652B9076847BB806800F071FFA7603A
:1051600005460136A6632846F8BD65B9406803F0D8
:10517000B2FC6368226C1344A26863609342F0D36C
:1051800023686360EDE7C06803F0A5FC226CE36868
:1051900051429B1A2268E36093423EBFA3685B18AA
:1051A000E360022D01D116B1013E0025D9E7354655
:1051B000D7E7034610B41A6C08466AB1DC689968F0
:1051C00014448C4228BF1968DC6028BFD960D968B4
:1051D0005DF8044B03F07FBC5DF8044B704770B57D
:1051E000044601F0C7F994F8455004F124066DB265
:1051F000002D14DCFF2384F8453001F0DBF901F0C9
:10520000B9F994F8445004F110066DB2002D12DC87
:10521000FF2384F84430BDE8704001F0CBB9636AE5
:10522000002BE7D0304600F069FE08B100F0F2FE36
:10523000013D6DB2DCE72369002BE9D0304600F078
:105240005DFE08B100F0E6FE013D6DB2DEE738B567
:105250000D46044640B94FF0500383F31188BFF365
:105260006F8FBFF34F8FFEE701F084F9D4E90F3160
:10527000226862604B43D0185B1A1A44A060FF2377
:105280000020A063E26084F8443084F84530A5B97A
:10529000236973B104F1100000F030FE48B14FF003
:1052A000E0234FF08052C3F8042DBFF34F8FBFF3BC
:1052B0006F8F01F07FF9012038BD04F11000FFF776
:1052C000F7FE04F12400FFF7F3FEF2E713B51C46E6
:1052D00040B94FF0500383F31188BFF36F8FBFF3D2
:1052E0004F8FFEE743B94FF0500383F31188BFF3AC
:1052F0006F8FBFF34F8FFEE74AB191B94FF0500364
:1053000083F31188BFF36F8FBFF34F8FFEE741B177
:105310004FF0500383F31188BFF36F8FBFF34F8FAC
:10532000FEE750230193019B502B08D04FF0500310
:1053300083F31188BFF36F8FBFF34F8FFEE7002910
:1053400008BF2246019B22600123C4E90F0184F8B3
:10535000463019462046FFF77AFF9DF8103084F852
:105360004C30204602B010BD2DE9F04385B0884690
:1053700001921F46044640B94FF0500383F3118851
:10538000BFF36F8FBFF34F8FFEE751B9036C43B18B
:105390004FF0500383F31188BFF36F8FBFF34F8F2C
:1053A000FEE7022F0BD1E36B012B08D04FF0500327
:1053B00083F31188BFF36F8FBFF34F8FFEE700F0C9
:1053C0002FFE064650B9019B4BB14FF0500383F3BB
:1053D0001188BFF36F8FBFF34F8FFEE700264FF0AA
:1053E000000937E0019D1DB901F0E4F8002052E00A
:1053F00016B902A800F0C6FD01F0DCF800F0CAFB07
:1054000001F0B8F894F84430FF2B08BF84F84490BA
:1054100094F84530FF2B08BF84F8459001F0CAF896
:1054200001A902A800F0BAFD00284AD101F0A2F8B3
:10543000A26BE36B9A4231D101F0BCF8019904F1FF
:10544000100000F023FD2046FFF7C9FE00F046FCE7
:1054500060B3012601F08EF8A26BE36B9A4201D390
:10546000022FBFD13A4641462046FFF76DFE636AE0
:105470001BB104F1240000F041FD48B14FF0E023DE
:105480004FF08052C3F8042DBFF34F8FBFF36F8FDF
:1054900001F090F8012005B0BDE8F08301F08AF832
:1054A0002046FFF79CFE00F019FCD2E74FF0E02306
:1054B0004FF08052C3F8042DBFF34F8FBFF36F8FAF
:1054C000C7E72046FFF78BFE00F008FC8EE72DE9CA
:1054D000F843894690461F46044640B94FF05003B2
:1054E00083F31188BFF36F8FBFF34F8FFEE751B97E
:1054F000036C43B14FF0500383F31188BFF36F8FF8
:10550000BFF34F8FFEE7022F0BD1E36B012B08D0C7
:105510004FF0500383F31188BFF36F8FBFF34F8FAA
:10552000FEE701F03DF9EFF311864FF0500383F3EE
:105530001188BFF36F8FBFF34F8FA26BE36B9A425B
:1055400001D3022F23D194F84550A36B6DB23A4694
:1055500049462046FFF7F8FD6B1C13D1636A0BB96F
:1055600001200BE004F1240000F0C8FC0028F7D073
:10557000B8F1000FF4D00120C8F8000086F31188BC
:10558000BDE8F88301356DB284F84550E8E70020A6
:10559000F4E72DE9FF410F460192044640B94FF070
:1055A000500383F31188BFF36F8FBFF34F8FFEE774
:1055B00051B9036C43B14FF0500383F31188BFF32B
:1055C0006F8FBFF34F8FFEE700F02AFD064650B9FC
:1055D000019B4BB14FF0500383F31188BFF36F8FE2
:1055E000BFF34F8FFEE700264FF000083DE0019D1E
:1055F0001DB900F0DFFF002056E016B902A800F048
:10560000C1FC00F0D7FF00F0C5FA00F0B3FF94F83A
:105610004430FF2B08BF84F8448094F84530FF2BBA
:1056200008BF84F8458000F0C5FF01A902A800F07A
:10563000B5FC002841D12046FFF77BFDB8B30199A6
:1056400004F1240000F022FC2046FFF7C8FD00F022
:1056500045FB48B94FF0E0234FF08052C3F8042DCA
:10566000BFF34F8FBFF36F8F012600F083FFA56B51
:10567000002DBCD039462046013DFFF79AFDA563B9
:10568000236973B104F1100000F038FC48B14FF009
:10569000E0234FF08052C3F8042DBFF34F8FBFF3C8
:1056A0006F8F00F087FF012004B0BDE8F081204635
:1056B000FFF795FD00F012FBD6E72046FFF78FFDC0
:1056C00000F00CFB2046FFF734FD0028CCD092E719
:1056D00010B5074A002352F833402CB942F8331072
:1056E00002EBC302506010BD0133082BF3D1FAE77F
:1056F000E82F002070B504460D46164600F03AFF2C
:1057000094F84430FF2B04BF002384F8443094F80D
:105710004530FF2B04BF002384F8453000F04AFFDA
:10572000A36B2BB93246294604F1240000F0C8FBD4
:105730002046BDE87040FFF752BD00002DE9F04162
:10574000044600F017FF304B304E1A68304F0132DC
:105750001A603568002D4BD134601B68012B1FD1B6
:10576000B84640460135FFF7A3FC382D08F1140870
:10577000F7D1DFF8C480274D4046FFF799FC284653
:10578000FFF796FC2448FFF793FC2448FFF790FCB2
:105790002348FFF78DFC234BC3F80080224B1D608C
:1057A000224A136801331360214A63641168E36A73
:1057B00014208B4200FB037004F1040188BF1360C6
:1057C000FFF784FC00F0F6FE1A4B1B6873B13368D8
:1057D000DA6AE36A9A4209D24FF0E0234FF080522E
:1057E000C3F8042DBFF34F8FBFF36F8FBDE8F08177
:1057F000104B1A68E36A002AD2D13268D26A9A4200
:1058000098BF3460CCE700BF9434002028300020DB
:1058100034300020BC340020DC3400200835002067
:10582000F43400202C30002030300020A034002040
:10583000A4340020F0340020A8340020F8B5154B23
:10584000154D1C680646286804300F46FFF761FCBA
:10585000731C07D137B129681048BDE8F8400431FE
:10586000FFF734BC2B68A4195C6007D30C4B186895
:105870002968BDE8F8400431FFF734BC094B1868CB
:1058800029680431FFF72EFC074B1A68A24288BF33
:105890001C60F8BD1C35002028300020F4340020A6
:1058A000303000202C300020D0340020064A13680D
:1058B0001968064B19B94FF0FF321A607047126829
:1058C000D268D2685268F8E72C300020D03400202B
:1058D00010B50446543003F03DF894F8A5303BB9B8
:1058E000206B01F049F82046BDE8104001F044B8B3
:1058F000012BF8D0022B08D04FF0500383F311880E
:10590000BFF36F8FBFF34F8FFEE710BD80B5134C11
:10591000134F144D236873B9134B1B68012BF8D92F
:105920004FF0E0234FF08052C3F8042DBFF34F8FA8
:10593000BFF36F8FEDE700F01DFEFB68DE68301DE2
:10594000FFF7E7FB2B68013B2B602368013B2360DB
:1059500000F030FE3046FFF7BBFFDBE79834002055
:105960000835002094340020343000202DE9F04721
:10597000DDE909844FEA82094A4606460D46206B56
:10598000A5211F4602F06DFF236BA9F104094B44CA
:1059900023F00709002D41D06B1E04F133020F35AF
:1059A00013F8011F02F8011F09B1AB42F8D100231F
:1059B00084F84330089D372D28BF37254FF0000A63
:1059C000E562E564201DC4F850A0FFF77CFBC5F13B
:1059D000380504F11800FFF776FBC4F8A0A04C22AC
:1059E00051462461A561646284F8A4A004F15400C6
:1059F00002F037FF0B4BA36503F16802D033E26579
:105A000023663A463146484600F088FD2060B8F1EA
:105A1000000F01D0C8F80040BDE8F08784F834508A
:105A2000C8E700BF9032012070B586B0DDE90B54A5
:105A300045B94FF0500383F31188BFF36F8FBFF365
:105A40004F8FFEE744B94FF0500383F31188BFF343
:105A50006F8FBFF34F8FFEE7A8260596059EA82EF1
:105A600008D04FF0500383F31188BFF36F8FBFF35B
:105A70004F8FFEE72563022584F8A55004AD0195FC
:105A80000A9D02940095059EFFF770FF2046FFF7E0
:105A900055FE049806B070BD2DE9F043074685B069
:105AA000900088461646994600F0CEFE0546E8B1BD
:105AB000A82000F0C9FE0446A8B1002380F8A53054
:105AC0000D9B056301930C9B0290009332464B465D
:105AD00041463846FFF74AFF2046FFF72FFE0120D8
