:020000040800F2
:1000000000000220A13C0008592900085B290008D3
:100010005D2900085F290008612900080000000030
:10002000000000000000000000000000216900083E
:100030006329000800000000B1690008355300087A
:10004000F13C000865290008F13C0008F13C00087B
:10005000692900086D290008F13C0008F13C0008FE
:10006000F13C0008F13C0008F13C0008F13C0008BC
:10007000F13C0008F13C0008F13C0008F13C0008AC
:10008000F13C0008F13C0008F13C0008F13C00089C
:10009000F13C0008F13C0008F13C0008F13C00088C
:1000A000712900087D290008F13C0008F13C000896
:1000B000F13C0008F13C0008F13C0008F13C00086C
:1000C000F13C0008F13C0008F13C0008F13C00085C
:1000D000F13C0008F13C0008F13C0008F13C00084C
:1000E000F13C0008F13C0008F13C0008F13C00083C
:1000F00099290008A5290008F13C0008F13C0008F6
:10010000F13C0008F13C0008F13C0008F13C00081B
:10011000F13C0008F13C0008F13C0008F13C00080B
:10012000F13C0008F13C0008F13C0008F13C0008FB
:10013000F13C0008F13C0008F13C0008F13C0008EB
:10014000F13C0008F13C0008F13C0008F13C0008DB
:10015000F13C0008F13C0008F13C0008F13C0008CB
:10016000F13C0008F13C0008F13C0008F13C0008BB
:10017000F13C0008F13C0008F13C000800000000E0
:08018000F13C0008B129000860
:1001900010B5054C237833B9044B13B10448AFF3C1
:1001A00000800123237010BD7007002000000000B4
:1001B000A0C6000808B5034B1BB103490348AFF3C1
:1001C000008008BD0000000074070020A0C60008E1
:1001D00001F0FF01102A2BDB10F0070F08D010F8F8
:1001E000013B013A8B422DD010F0070F42B3F6D1FC
:1001F000F0B441EA012141EA014122F007047FF015
:1002000000070023F0E80256083C85EA010586EA6B
:10021000010685FA47F5A3FA87F586FA47F6A5FAA7
:1002200087F68EB9EED1F0BC01F0FF0102F00702B3
:1002300032B110F8013B013A83EA010313B1F8D15E
:100240000020704701387047002D06BF354603383F
:10025000073815F0010F07D1013015F4807F02BF78
:10026000013015F4C03F0130F0BC0138704700BFC9
:10027000034613F8012B002AFBD1181A01387047E6
:1002800081F0004102E000BF83F0004330B54FEA47
:1002900041044FEA430594EA050F08BF90EA020FB4
:1002A0001FBF54EA000C55EA020C7FEA645C7FEA47
:1002B000655C00F0E2804FEA5454D4EB5555B8BF6A
:1002C0006D420CDD2C4480EA020281EA030382EADB
:1002D000000083EA010180EA020281EA0303362D6D
:1002E00088BF30BD11F0004F4FEA01314FF4801C40
:1002F0004CEA113102D0404261EB410113F0004F52
:100300004FEA03334CEA133302D0524263EB430308
:1003100094EA050F00F0A780A4F10104D5F1200EA6
:100320000DDB02FA0EFC22FA05F2801841F1000101
:1003300003FA0EF2801843FA05F359410EE0A5F1D5
:1003400020050EF1200E012A03FA0EFC28BF4CF006
:10035000020C43FA05F3C01851EBE37101F00045BC
:1003600007D54FF0000EDCF1000C7EEB00006EEBC9
:100370000101B1F5801F1BD3B1F5001F0CD3490853
:100380005FEA30004FEA3C0C04F101044FEA4452AA
:1003900012F5800F80F09A80BCF1004F08BF5FEA31
:1003A000500C50F1000041EB045141EA050130BD11
:1003B0005FEA4C0C404141EB0101013C28BFB1F523
:1003C000801FE9D291F0000F04BF01460020B1FA6E
:1003D00081F308BF2033A3F10B03B3F120020CDA41
:1003E0000C3208DD02F1140CC2F10C0201FA0CF01F
:1003F00021FA02F10CE002F11402D8BFC2F1200C84
:1004000001FA02F120FA0CFCDCBF41EA0C01904039
:10041000E41AA2BF01EB0451294330BD6FEA040482
:100420001F3C1CDA0C340EDC04F11404C4F120026D
:1004300020FA04F001FA02F340EA030021FA04F37F
:1004400045EA030130BDC4F10C04C4F1200220FAD6
:1004500002F001FA04F340EA0300294630BD21FA14
:1004600004F0294630BD94F0000F83F4801306BFDA
:1004700081F480110134013D4EE77FEA645C18BFCE
:100480007FEA655C29D094EA050F08BF90EA020F65
:1004900005D054EA000C04BF1946104630BD91EA5D
:1004A000030F1EBF0021002030BD5FEA545C05D160
:1004B0004000494128BF41F0004130BD14F580049F
:1004C0003CBF01F5801130BD01F0004545F0FE4113
:1004D00041F470014FF0000030BD7FEA645C1ABF48
:1004E000194610467FEA655C1CBF0B46024650EA7F
:1004F000013406BF52EA033591EA030F41F40021AB
:1005000030BD00BF90F0000F04BF0021704730B530
:100510004FF4806404F132044FF000054FF0000105
:1005200050E700BF90F0000F04BF0021704730B5C6
:100530004FF4806404F1320410F0004548BF40429B
:100540004FF000013EE700BF42004FEAE2014FEAF0
:1005500031014FEA02701FBF12F07F4393F07F4FCB
:1005600081F06051704732F07F4208BF704793F0CE
:100570007F4F04BF41F40021704730B54FF46074E1
:1005800001F0004521F000411CE700BF50EA0102E4
:1005900008BF704730B54FF000050AE050EA01028D
:1005A00008BF704730B511F0004502D5404261EBFD
:1005B00041014FF4806404F132045FEA915C3FF43E
:1005C000D8AE4FF003025FEADC0C18BF03325FEADB
:1005D000DC0C18BF033202EBDC02C2F1200300FA8C
:1005E00003FC20FA02F001FA03FE40EA0E0021FAB1
:1005F00002F11444BDE600BF70B54FF0FF0C4CF49F
:10060000E06C1CEA11541DBF1CEA135594EA0C0F50
:1006100095EA0C0F00F0DEF82C4481EA030621EA8B
:100620004C5123EA4C5350EA013518BF52EA0335C6
:1006300041F4801143F4801338D0A0FB02CE4FF078
:100640000005E1FB02E506F00042E0FB03E54FF0A8
:100650000006E1FB03569CF0000F18BF4EF0010EA0
:10066000A4F1FF04B6F5007F64F5407404D25FEA9C
:100670004E0E6D4146EB060642EAC62141EA55514F
:100680004FEAC52040EA5E504FEACE2EB4F1FD0C91
:1006900088BFBCF5E06F1ED8BEF1004F08BF5FEA0F
:1006A000500E50F1000041EB045170BD06F00046C1
:1006B00046EA010140EA020081EA0301B4EB5C046E
:1006C000C2BFD4EB0C0541EA045170BD41F4801166
:1006D0004FF0000E013C00F3AB8014F1360FDEBF8B
:1006E000002001F0004170BDC4F10004203C35DA67
:1006F0000C341BDC04F11404C4F1200500FA05F3EA
:1007000020FA04F001FA05F240EA020001F000428A
:1007100021F0004110EBD37021FA04F642EB060100
:100720005EEA430E08BF20EAD37070BDC4F10C042A
:10073000C4F1200500FA04F320FA05F001FA04F2EE
:1007400040EA020001F0004110EBD37041F10001DA
:100750005EEA430E08BF20EAD37070BDC4F12005E5
:1007600000FA05F24EEA020E20FA04F301FA05F24D
:1007700043EA020321FA04F001F0004121FA04F2F5
:1007800020EA020000EBD3705EEA430E08BF20EAC5
:10079000D37070BD94F0000F0FD101F000464000FF
:1007A00041EB010111F4801F08BF013CF7D041EA81
:1007B000060195F0000F18BF704703F00046520085
:1007C00043EB030313F4801F08BF013DF7D043EA56
:1007D0000603704794EA0C0F0CEA135518BF95EA0C
:1007E0000C0F0CD050EA410618BF52EA4306D1D193
:1007F00081EA030101F000414FF0000070BD50EAB2
:10080000410606BF1046194652EA430619D094EA3B
:100810000C0F02D150EA013613D195EA0C0F05D125
:1008200052EA03361CBF104619460AD181EA030179
:1008300001F0004141F0FE4141F470014FF0000031
:1008400070BD41F0FE4141F4780170BD70B54FF0CC
:10085000FF0C4CF4E06C1CEA11541DBF1CEA13554C
:1008600094EA0C0F95EA0C0F00F0A7F8A4EB05042E
:1008700081EA030E52EA03354FEA013100F0888025
:100880004FEA03334FF0805545EA131343EA1263EE
:100890004FEA022245EA111545EA10654FEA0026A3
:1008A0000EF000419D4208BF964244F1FD0404F55C
:1008B000407402D25B084FEA3202B61A65EB0305B8
:1008C0005B084FEA32024FF480104FF4002CB6EB75
:1008D000020E75EB030E22BFB61A754640EA0C00F5
:1008E0005B084FEA3202B6EB020E75EB030E22BF35
:1008F000B61A754640EA5C005B084FEA3202B6EB76
:10090000020E75EB030E22BFB61A754640EA9C0034
:100910005B084FEA3202B6EB020E75EB030E22BF04
:10092000B61A754640EADC0055EA060E18D04FEAC2
:10093000051545EA16754FEA06164FEAC30343EA62
:1009400052734FEAC2025FEA1C1CC0D111F4801F2F
:100950000BD141EA00014FF000004FF0004CB6E728
:1009600011F4801F04BF01430020B4F1FD0C88BFC7
:10097000BCF5E06F3FF6AFAEB5EB030C04BFB6EBD2
:10098000020C5FEA500C50F1000041EB045170BDC5
:100990000EF0004E4EEA113114EB5C04C2BFD4EBF2
:1009A0000C0541EA045170BD41F480114FF0000E76
:1009B000013C90E645EA060E8DE60CEA135594EAF2
:1009C0000C0F08BF95EA0C0F3FF43BAF94EA0C0FF5
:1009D0000AD150EA01347FF434AF95EA0C0F7FF46A
:1009E00025AF104619462CE795EA0C0F06D152EABE
:1009F00003353FF4FDAE1046194622E750EA4106A2
:100A000018BF52EA43067FF4C5AE50EA41047FF4B2
:100A10000DAF52EA43057FF4EBAE12E74FF0FF3C17
:100A200006E000BF4FF0010C02E000BF4FF0010CE8
:100A30004DF804CD4FEA410C7FEA6C5C4FEA430C61
:100A400018BF7FEA6C5C1BD001B050EA410C0CBFB0
:100A500052EA430C91EA030F02BF90EA020F002012
:100A6000704710F1000F91EA030F58BF994208BF79
:100A700090422CBFD8176FEAE37040F00100704736
:100A80004FEA410C7FEA6C5C02D150EA013C07D18D
:100A90004FEA430C7FEA6C5CD6D152EA033CD3D0D8
:100AA0005DF8040B704700BF8446104662468C46D2
:100AB0001946634600E000BF01B5FFF7B7FF002805
:100AC00048BF10F1000F01BD4DF808EDFFF7F4FF2E
:100AD0000CBF012000205DF808FB00BF4DF808EDB9
:100AE000FFF7EAFF34BF012000205DF808FB00BFDC
:100AF0004DF808EDFFF7E0FF94BF012000205DF8FE
:100B000008FB00BF4DF808EDFFF7CEFF94BF0120B2
:100B100000205DF808FB00BF4DF808EDFFF7C4FFAB
:100B200034BF012000205DF808FB00BF4FEA410CF4
:100B30007FEA6C5C02D150EA013C0AD14FEA430CD7
:100B40007FEA6C5C02D152EA033C02D14FF0000014
:100B500070474FF0010070474FEA410212F5001252
:100B600015D211D56FF47873B3EB625212D94FEAF4
:100B7000C12343F0004343EA505311F0004F23FADE
:100B800002F018BF404270474FF00000704750EA33
:100B9000013005D111F0004008BF6FF000407047F0
:100BA0004FF00000704700BF4A0011D212F500124A
:100BB00011D20DD56FF47873B3EB62520ED44FEAB5
:100BC000C12343F0004343EA505323FA02F0704735
:100BD0004FF00000704750EA013002D14FF0FF3073
:100BE00070474FF0000070474FEA4102B2F1E04316
:100BF00024BFB3F5001CDCF1FE5C0DD901F0004C04
:100C00004FEAC0024CEA5070B2F1004F40EB830053
:100C100008BF20F00100704711F0804F21D113F17F
:100C20003872BCBF01F00040704741F480114FEAB8
:100C30005252C2F11802C2F1200C10FA0CF320FA41
:100C400002F018BF40F001004FEAC1234FEAD3235E
:100C500003FA0CFC40EA0C0023FA02F34FEA4303C8
:100C6000CCE77FEA625307D150EA01331EBF4FF051
:100C7000FE4040F44000704701F0004040F0FE406C
:100C800040F40000704700BF53B94AB9002908BFBB
:100C900000281CBF4FF0FF314FF0FF3000F0A6B925
:100CA000ADF1080C6DE904CE00F03CF8DDF804E08D
:100CB000DDE9022304B0704738B500220023044662
:100CC0000D46FFF70BFF28B920462946BDE83840FE
:100CD00000F00AB8204605F1004100F005F8404256
:100CE00061EB410138BD00BFD0B50C4B0022064678
:100CF0000F46FFF781FCFFF757FF0446FFF702FCA2
:100D0000074B0022FFF778FC02460B463046394677
:100D1000FFF7BAFAFFF748FF2146D0BD0000F03DCB
:100D20000000F0412DE9F047089E0D4604460F46AD
:100D3000002B4AD18A42944665D9B2FA82F343B174
:100D400002FA03FCC3F120029F4020FA02F217438B
:100D50009C404FEA1C4E1FFA8CF5B7FBFEF1220CAB
:100D60000EFB117742EA074201FB05F090420AD9D7
:100D70001CEB020201F1FF3780F01C81904240F22F
:100D8000198102396244121AA4B2B2FBFEF00EFBC2
:100D9000102244EA024400FB05F5A5420AD91CEBE7
:100DA000040400F1FF3280F00781A54240F2048183
:100DB0006444023840EA0140641B00211EB1DC405B
:100DC0000023C6E90043BDE8F0878B4208D9002E16
:100DD00000F0ED800021C6E900050846BDE8F08777
:100DE000B3FA83F1002949D1AB4202D3824200F227
:100DF000F880841A65EB030201201746002EE2D02A
:100E0000C6E90047DFE702B9FFDEB2FA82F3002B42
:100E100040F090808A1A4FEA1C471FFA8CFE01218D
:100E2000B2FBF7F507FB1520220C42EA00420EFB4D
:100E300005F0904208D91CEB020205F1FF3802D2FE
:100E4000904200F2CB804546121AA4B2B2FBF7F0F2
:100E500007FB102244EA02440EFB00FEA64508D917
:100E60001CEB040400F1FF3202D2A64500F2BB8065
:100E70001046A4EB0E0440EA05409FE7C1F12007AD
:100E80008B4022FA07FC4CEA030C05FA01F420FA25
:100E900007F3FD404FEA1C492343B5FBF9F81FFA5D
:100EA0008CFE09FB18551C0C44EA054408FB0EF5A2
:100EB000A54202FA01F200FA01F00BD91CEB04047E
:100EC00008F1FF3A80F08880A54240F28580A8F1C1
:100ED00002086444641B9DB2B4FBF9F309FB13449C
:100EE00045EA044403FB0EFEA64508D91CEB0404A6
:100EF00003F1FF356CD2A6456AD9023B644443EA4C
:100F00000843A3FB0295A4EB0E04AC42C846AE46D0
:100F100056D353D056B1B0EB080264EB0E0404FA7A
:100F200007F7CA40CC401743C6E9007418460021B1
:100F3000BDE8F087C3F1200102FA03FC20FA01F2B8
:100F400025FA01F19D402A434FEA1C471FFA8CFE07
:100F5000B1FBF7F007FB1015110C41EA054100FB4E
:100F60000EF58D4204FA03F408D91CEB010100F1DF
:100F7000FF382FD28D422DD902386144491B92B2DD
:100F8000B1FBF7F507FB151142EA014205FB0EF133
:100F9000914208D91CEB020205F1FF3816D29142AA
:100FA00014D9023D6244521A45EA004138E73146FD
:100FB000304608E73946E6E61046FBE64845A9D242
:100FC000B9EB020865EB0C0E013BA3E74546EAE7E7
:100FD0002B4694E74046D1E7D0467BE7023D62448A
:100FE00032E708460AE76444023842E7704700BF28
:100FF00038B50A490A480B4D094C02F0B9F90848BE
:1010000001F057FE2B460F220021204602F06AF91C
:10101000204601F05BFE0028F4D138BDE3ED000866
:10102000D4280020E8C600081FB5044603910A48EA
:101030000A4902F09DF90848012102F042FA1423FE
:101040000822CDE900320448039A6423214601F0C6
:1010500071FD04B010BD00BFD4280020E3ED0008EE
:101060002DE9F04F07469FB08348834DDFF82C925F
:10107000884601F01EFE46460121284602F021FA6C
:101080007A7EFB7E397E0093113ABB7EDFF810A298
:10109000D2B2284601F0F0FC7849284602F068F9FF
:1010A000328B3B8B9A4257D10021284602F009FA35
:1010B000316A05A807F04BFF2D2304A905A8ADF858
:1010C000103007F01BFE0024002836D101212846ED
:1010D00002F0F7F9366801F09FFA8368534540F053
:1010E000888001F099FA814524D001F095FA644B8B
:1010F000834252D001F090FA624B834200F0858027
:1011000001F08AFA604B834200F0828001F084FA99
:101110005E4B83427FD001F07FFA5D4B83427DD0EE
:1011200001F07AFA5B4B83427AD001F075FA5A4BA0
:10113000834277D00023002431E0727E317E224446
:101140000346D2B2284602F0D7F80F3404A9002093
:1011500007F0D4FDE4B2B7E70121284602F0B1F967
:10116000316A05A807F0F3FE2D2304A905A8ADF800
:10117000103007F0C3FD00240028ABD0727E317E12
:1011800022440346D2B2284602F0B6F80F3404A92E
:10119000002007F0B3FDE4B2EEE70023012404EBE6
:1011A00084040021284604EB84040393E4B202F093
:1011B00088F9039BDFF8ECB004F115021634D2B2C3
:1011C000E4B2002B3BD1DBF80030D900022BC9B2CE
:1011D0002ADC2531C9B20823284602F04CF9DBF895
:1011E0000010C900253108232246C9B2284602F062
:1011F00042F9B0457FF454AF284601F067FD00285E
:101200007FF43AAF1FB0BDE8F08F00230224C6E799
:1012100000230324C3E700230424C0E701238AE753
:101220000123BBE70123F1E72D31C9B2082328468A
:1012300002F021F9DBF80010C9002D31D3E7DBF80B
:101240000030D900022BC9B20ADC6339C9B20823C5
:10125000284602F010F9DBF80010C9006339C2E734
:101260005B39C9B20823284602F005F9DBF8001003
:10127000C9005B39B7E700BFD428002034F6000866
:10128000A0C80008C4C80008E8C800080CC90008C5
:1012900030C9000854C9000878C900087CC8000893
:1012A00058C80008C82800202DE9F04F2A4C2B4FC1
:1012B00026460FCE91B00BAD0FC56069A1693368AA
:1012C0002B6004AB03C3A28B1A80203494E80F0078
:1012D00007AD85E80F00224A224BCDE90223002604
:1012E000A9460DF108080024321B18BF012238F866
:1012F000021B59F8040B013402F056FF042CF3D101
:10130000F3B25C1C1133DBB20DF12C080DF11009A6
:10131000E4B2019358F804AB39F802BB5046594681
:1013200002F03CFF014670B9384603F0C1FE594651
:10133000504602F033FF0028F9D00B4B002138460D
:101340001C7003F0F5FE019B0434E4B29C42E1D131
:101350000136042EC4D1C2E7B8C6000878080020C0
:1013600000014000100001008C0700202DE9F04F23
:1013700085B00C469DF838C09DF93C809C428CBFDE
:10138000E61A1E1B6245824619464FF0000BF6B264
:1013900012D9A2EB0C05EDB2AE4218D32F468C4207
:1013A00035463E4605D917466246BC4627460C469A
:1013B00039464FF0000912E0ACEB0205EDB2AE4247
:1013C000ECD22746614614469C463A4605E017464D
:1013D000394627461A466446BC464FF00109624525
:1013E00032BF01234FF0FF339346FE2928BFFE2171
:1013F0000293CBB20393C8F1000345F3470701936F
:10140000039B9C4202D905B0BDE8F08FB9F1000FF3
:1014100028D1B8F1000F05D15A462146504602F0B6
:1014200038F805E0B8F1010F10D114F0010FF3D036
:10143000BF1BFAB27FB2002F05DA029B2A445B443D
:101440005FFA83FB57B20134E4B2D9E704DD94FBC1
:10145000F8F212F0010FEAE7019BB4FBF3F2D207B6
:10146000E6D5D9E7B8F1000F02D122465946D5E7B3
:10147000B8F1010F03D114F0010FD9D1F5E704DD64
:1014800094FBF8F212F0010FF7E7019BB4FBF3F2C3
:10149000D307CDD5E9E700002DE9F04F6248624C53
:1014A000624D91B0012102F00CF85F4801F001FC9F
:1014B0007823042200930A21DC23204601F0FEFA5F
:1014C0005B49204601F054FF28260127594B1E2274
:1014D0007321204601F006FF3246CDE90067E5237F
:1014E0000A212046FFF742FF6E220092E5230A21DF
:1014F00020460197FFF73AFF4E231946CDE90067D2
:1015000004222046FFF732FFCDE90067A2234A4EAE
:10151000204604221946FFF729FF3078A8B9474F23
:101520000146024640F2014C57F8043B01321818BC
:1015300041EBE3716245F7D1002340F20142FFF72E
:10154000A3FBC5E9000101233370D5E90032134341
:1015500057D01E2211463A4B204601F0CDFE394BA2
:101560001E22BE21204601F0C7FE374B50225521D6
:10157000204601F0B7FE354B5F222321204601F0C3
:10158000BBFE324B5F22B921204601F0B5FED5E902
:101590000001FEF7FBFF20A3D3E900238046894624
:1015A000FFF72AF80022002382468B46FFF78CFAC9
:1015B00028BB1BA3D3E9002340464946FFF71CF88C
:1015C0000022002380468946FFF77EFAB8B92049F9
:1015D00052465B4602A807F00BFB02AB50221421D7
:1015E000204601F089FE1A4942464B4609A807F0F9
:1015F000FFFA09AB5022A521204601F07DFE002311
:101600003370204601F062FB00287FF451AF11B027
:10161000BDE8F08FAFF300806EA301BC0512643FFC
:10162000BA490C022B87663FD42800206829002085
:1016300068CA0008EEC6000898070020C4180020F9
:10164000F0C60008F5C60008FAC600084EC7000834
:1016500002C70008000000002DE9F04F2DED028BBD
:10166000DFF800A118249FED3C8B00FB044400250B
:1016700083B00AEB040B2E465BF8040DFEF752FF15
:10168000804628468946FEF74DFFB0EE480AF0EE48
:10169000680A41EC110B05F095FB30468DED000B0F
:1016A000FEF740FFDDE9002306460F464046494667
:1016B000FEF7A2FF02460B4630463946FEF7E6FD2E
:1016C000FFF74AFA0135032D0646D5D19FED228B4F
:1016D000183C5444022500272846FEF723FFB0EEAD
:1016E000480AF0EE680A41EC110B54F804AB05F01F
:1016F00069FB59EC108B5046FEF714FF42464B46EF
:10170000FEF77AFF804638468946FEF70BFF024611
:101710000B4640464946FEF7B9FDFFF71DFA013D6D
:101720000746D9D23046FEF7FDFE0D4B0022FFF7EB
:101730008DF8044638460D46FEF7F4FE02460B4689
:1017400020462946FEF7A2FD41EC100B03B0BDEC8C
:10175000028BBDE8F08F00BF0000000000002440B5
:1017600000408F40C00200202DE9F04F2DED048B8A
:10177000A5B0A64C2378082B13D8DFE813F0F303A9
:101780000900140018008C029302B6020F038403B0
:1017900000F042FF056800F045FF0146284600F0D2
:1017A0004DFF002390E200F037FF4568F3E700F0BB
:1017B00033FF974B834240F017819648954C01F0D8
:1017C00078FA0121204601F07CFE934BDFF880A2DD
:1017D0001D68DFF880B2C5F13205EAB2DC230A21C8
:1017E000204601F048FE8D49204601F0C1FDDAF89F
:1017F00000208B4B192606FB02330A216C2220465F
:1018000001F070FDDBF80020864B642106FB0233FB
:101810002046854E6C2201F065FD844B6C22AF2181
:10182000204601F05FFD06F5805656F8040C0A22AA
:1018300009A906F061FA7E4909AA0FA807F0D8F9AC
:1018400030680A220BA906F057FA7A490BAA16A8A3
:1018500007F0CEF90A220DA9284606F04DFA76497E
:101860000DAA1DA807F0C4F90FAB76220A21204665
:1018700001F038FD16AB76226421204601F032FDDE
:101880001DAB7622AF21204601F02CFD652300938D
:101890000022DC230A21204601F010F91E26012532
:1018A00064230093314633460F36019500222046CB
:1018B000F6B2FFF75BFDE12EF2D112260125CDE94C
:1018C000006532461036E6230A212046F6B2FFF7BD
:1018D0004DFD622EF3D1642300227821204601F0D1
:1018E000D1FDDC2332220A21204601F0C4FD0A2763
:1018F000524D3E46524ADBF8003028689FED518A2F
:1019000002EBC303D3E900894F4ADAF8003002EB57
:101910008303D3ED008A40F21A620023C117FFF758
:10192000B3F9323861F10001FEF730FE42464B4612
:10193000FEF762FEFFF758F907EE900AF8EEE88A24
:1019400078EE677A55F8040F77EEA87A40F21A62BB
:10195000FDEEE77A0023C117CDED077AFFF794F982
:10196000323861F10001FEF711FE42464B46FEF7A8
:1019700043FEFFF739F907EE900A38EE678A079AB7
:1019800038EE288A642AFDEEC87A06F1010617EEC1
:10199000903A25DC642B0ADC002AC0F2ED82002B91
:1019A00020DBDBB200939DF81C20F3B206E0079A1F
:1019B000002A07DCDBB200930022F3B2F9B2204622
:1019C00001F0ACFDE62E07F1010793D1204601F0AE
:1019D0007DF900287FF4F5AE0A2003F02CFDC8E65F
:1019E000002BEFDC0023DDE700F016FE174B8342EF
:1019F00032D10848074C01F05CF9FFF74DFD204655
:101A000001F064F90028F8D1E6E700BF8C07002058
:101A1000C0C90008D4280020CC28002092E6000885
:101A20004400002098040020C418002009C70008C2
:101A300014C7000822C700082FC70008EC180020B0
:101A40005004002000004842000000209CC900080B
:101A5000F0010020BC02002000F0DEFDB84B8268DF
:101A60009A4240F01181B748B64C01F022F9204665
:101A700001F01FF90121204601F023FDB24D00269F
:101A80000A226F23114600932046DC2301F016F84A
:101A9000AE49204601F06CFC00F0BEFDAC4B834229
:101AA00000F0C78000F0B8FDAA4B834200F0C3806D
:101AB00000F0B2FDA84B834200F0BF8000F0ACFD07
:101AC000A64B834200F0BB8000F0A6FDA44B8342EE
:101AD00000F0B78000F0A0FDA24B834200F0B3807D
:101AE00000F09AFDA04B834200F0AF8000F094FD1F
:101AF0009E4B834240F0AB8007279D4918227A43D2
:101B00008B185869039018690290D86801909868FA
:101B100000908A585B6897491DA807F069F81DABCB
:101B20001E223221204601F0E7FB8EB99248314651
:101B3000324650F8043B01329E1941EBE371F12A21
:101B4000F7D1F12200233046FFF79EF8C5E90001E6
:101B50001E2328225A21009320463C2300F0AEFF8A
:101B60003846FFF779FDD5E900BA5146584657EC9B
:101B7000106BFEF70BFD6AA3D3E90023804689466C
:101B8000FEF73AFD68A3D3E9002341EC180B404669
:101B90004946FEF731FD5BEA0A0A41EC190B6FD0AA
:101BA00053EC182B30463946FEF7A2FF002850D0E0
:101BB0005FA3D3E9002340464946FEF71DFD0246D8
:101BC0000B4630463946FEF7A7FF002841D06B4B45
:101BD0003C226E21204601F08FFBDC2349220A21A2
:101BE000204601F048FC53EC182B654916A806F076
:101BF000FFFF53EC192B63491DA806F0F9FF16AB44
:101C00005A221E21204601F077FB1DAB6E221E21B9
:101C1000204601F071FB204601F058F8012600280B
:101C20007FF42EAF204601F051F800287FF41FAF5B
:101C3000D2E6002761E701275FE702275DE7032778
:101C40005BE7042759E7052757E7062755E70927E4
:101C50006BE753EC192B30463946FEF753FF78B14A
:101C600035A3D3E9002340464946FEF7C5FC0246AA
:101C70000B4630463946FEF731FF08B1424BA7E725
:101C8000424B3C227321A5E700F0C6FCC56800F07A
:101C9000C9FCC16882E500F0BFFC856800F0C2FCA9
:101CA00081687BE500F0B8FC394B83420ED1394A9C
:101CB0001368072B07DC01332248136000F0D8FFBC
:101CC000204800F0E0FF0323237085E600F0A4FC29
:101CD0001B4B82689A427FF47FAE2F4A1368042B15
:101CE0003FF75FAD013313605BE500F095FC284BD7
:101CF000834205D1274A1368002BE4DD013BDBE773
:101D000000F08AFC0E4B82689A427FF465AE224A4C
:101D10001368002B7FF745AD013BE4E7AFF300808C
:101D20006EA301BC0512643FBA490C022B87663FC3
:101D3000FA7E6ABC7493583F3BDF4F8D976E723FBB
:101D400058C80008D42800206029002068CA00086C
:101D50007CC80008A0C80008C4C80008E8C800087B
:101D60000CC9000830C9000854C9000878C9000827
:101D7000C00200203CC70008C4180020F0C60008BC
:101D800053C7000867C70008F5C60008EEC600087C
:101D9000C0C90008BC020020C828002000F03CFC9C
:101DA000774B834206D1774A7749136809688B429B
:101DB00089DA80E700F030FC744B82689A427FF445
:101DC0000BAE00F029FC724B724D834224D000F020
:101DD00023FC714B83424AD000F01EFC6F4B8342C0
:101DE00047D000F019FC6E4B834244D000F014FC45
:101DF0006C4B834241D000F00FFC6B4B83423ED0D2
:101E000000F00AFC694B83423BD000F005FC684BB4
:101E100083420FD1072300E00023664A126806219F
:101E200001FB032355F82320002AC4BF02F1FF322F
:101E300045F82320574DDFF884815F4FDFF880910C
:101E400000266B6904932B690393EB680293AB68DC
:101E500001936B68009308EB0602B81955F8183B1C
:101E60004946193606F0C4FEC82EEAD199E401238A
:101E7000D3E70223D1E70323CFE70423CDE70523EC
:101E8000CBE70623C9E700F0C7FB3D4B834201D1F6
:101E90003C4A30E700F0C0FB3C4B82689A427FF43A
:101EA0009BAD00F0B9FB3A4B3A4D834224D000F091
:101EB000B3FB394B834249D000F0AEFB374B834232
:101EC00046D000F0A9FB364B834243D000F0A4FB80
:101ED000344B834240D000F09FFB334B83423DD0D4
:101EE00000F09AFB314B83423AD000F095FB304B27
:101EF00083420ED1072300E000232E4A12680621F8
:101F000001FB032355F82320082ADCBF013245F8E2
:101F10002320204DDFF8A480274FDFF8A49000266F
:101F20006B6904932B690393EB680293AB6801938D
:101F30006B68009308EB0602B81955F8183B494640
:101F4000193606F055FEC82EEAD12AE40123D4E75B
:101F50000223D2E70323D0E70423CEE70523CCE70F
:101F60000623CAE700F058FB044600F05BFB01467D
:101F7000204600F063FB2FE5002BFFF623AD19E5AB
:101F8000C0C90008F00100208003002058C80008E4
:101F90007CC80008C0020020A0C80008C4C800080F
:101FA000E8C800080CC9000830C9000854C9000876
:101FB00078C90008C8280020F4010020840300200C
:101FC0007BC7000838B5054C05464FF480522146C2
:101FD000201F06F070FEC4F8FC5F38BDC818002052
:101FE000034B1B6800225A625A6A8242FCD3704734
:101FF000E8070020283908B5222921D8DFE801F0B8
:10200000122E2822302020202020202020202020B6
:10201000202020202020202032383B3D3F414345D6
:102020004A2047001C4801224FF4805102F0BCF8BE
:1020300019480122022102F0B7F8012003F0FBF950
:10204000012008BD0A20B2FBF0F0FFF7C9FFF7E757
:1020500002EB8202500000F0FE00F6E71046EDE7CA
:102060000020F2E74FF400710B4802F09DF8E7E71B
:102070004FF48071F8E78021F6E74021F4E7202152
:10208000F2E71021F0E70821EEE70421ECE74FF436
:102090000041E9E70221E7E70018024000000000E4
:1020A00038B5194A0368934224D1184D2A78012A79
:1020B00020D1586B164B0024C3E900042146FEF7DB
:1020C0006DFA0DA3D3E90023FEF796FA0CA3D3E92A
:1020D0000023FEF7BBFB41EC100B04F0EFFE0D4BB1
:1020E00051EC100B0022FEF7CFF8FEF735FDFFF79D
:1020F00069FF2C7038BD00BF0000000065CDCD41E8
:1021000000000000F40694410044014079050020DD
:1021100090070020006083400268054B9A4206D178
:10212000044B1B6800225A62034B01221A7070474D
:1021300000200040A00700207905002010B594B0D1
:10214000102200210AA806F0D0FD1422002103A8C5
:1021500006F0CBFD204B002101911A6C42F0805219
:102160001A641B6C03F080530193019B1B4B02917B
:102170001A6842F480421A601B6803F48043029399
:10218000029B01214FF480330224CDE908134FF460
:1021900080030620CDE90E43A823CDE910030423D4
:1021A00008A81294139302F013F808B172B6FEE770
:1021B0000F23CDE9033405904FF4A0524FF4805320
:1021C000052103A8CDE9062302F0DCF908B172B6B7
:1021D000FEE714B010BD00BF0038024000700040A0
:1021E0002DE9F04395B001F085FDFFF7A7FF14221C
:1021F00000210DA806F079FD0024A44B01941A6B70
:10220000A34842F010021A631A6B02F01002019206
:10221000019A02941A6B42F004021A631A6B02F0DC
:1022200004020292029A03941A6B42F020021A638B
:102230001A6B02F020020392039A04941A6B42F084
:1022400080021A631A6B02F080020492049A0594C9
:102250001A6B42F001021A631A6B02F00102059236
:10226000059A06941A6B42F002021A631A6B02F086
:1022700002020692069A07941A6B42F040021A6311
:102280001A6B02F040020792079A08941A6B42F008
:1022900008021A631B6B03F008030893224649F2F5
:1022A000FE31089B01F080FF22467A4840F251112E
:1022B00001F07AFF03254FF6DF7377480F940DA9DD
:1022C000CDE90D3501F090FE43F6FF7373480F948E
:1022D0000DA9CDE90D3501F087FE4FF6BF437048DB
:1022E0000F940DA9CDE90D3501F07EFE49F6FF737F
:1022F0006C480F940DA9CDE90D354FF6FF7601F02E
:1023000073FE69480F940DA9CDE90D6501F06CFECF
:1023100046F601435E480F940DA9CDE90D354FF007
:10232000010801F061FE49F2FE3359480DA9CDE9DB
:102330000D38CDE90F4401F057FE40F251135548D6
:102340000DA9CDE90D38CDE90F4401F04DFE40F661
:10235000AE2350480F940DA9CDE90D3501F044FE90
:102360004FF474434B48514DCDF83C800DA9CDE955
:102370000D3401F039FE102221460DA806F0B5FCFF
:102380004B4B2C6180272846C5E90034C5E902463D
:10239000AF6102F093FB08B172B6FEE7284602F087
:1023A000E5FB024608B172B6FEE7CDE90D08CDE9BE
:1023B0000F000DA9284602F0CFFC054608B172B601
:1023C000FEE70146102209A806F08FFC1C222946D0
:1023D0000DA806F08AFC374C374BA5604FF0530828
:1023E000C4E90038204640F2E733C4E90335A76169
:1023F00002F064FB08B172B6FEE74FF4805309A9FE
:102400002046099302F047FD08B172B6FEE7204668
:1024100002F080FB024608B172B6FEE7C8230F90B7
:102420004FF0600904270DA92046CDE90D931197BF
:1024300002F0FEFB054608B172B6FEE7204600F04A
:10244000E3F91E4C1C2229460DA806F04EFC1C4B3D
:1024500025612046C4E90038C4E90256A56102F0AE
:102460002DFB08B172B6FEE7204602F053FB024690
:1024700008B172B6FEE7CDE90D900F900DA9204688
:10248000119702F0D5FBE8B172B6FEE700380240C2
:1024900000180240000C02400010024000080240F8
:1024A000001402400000024000040240A007002087
:1024B000004401407808002000400140E807002067
:1024C000001C00403E483F4D3F4C00F09DF91C224F
:1024D00000210DA806F009FC00234DF6BF22C5E936
:1024E0000043C5E90323AB6028468023AB6102F0BB
:1024F000E5FA08B172B6FEE7284602F00BFB024689
:1025000008B172B6FEE760210A23CDE90D1302235C
:102510000F930DA904232846119302F089FB04466A
:1025200008B172B6FEE7284600F06EF9214628464B
:1025300002F000FE2146284602F076FE21462048A1
:1025400002F0B6FD2146214802F070FE40F2DC5058
:1025500001F0FCFB1E4B1F4A1F49204800F080FC85
:102560001E4801F057FB1D48214601F05CFB1C4949
:102570001C4800F07DF81A4800F05AF800F052F8B4
:102580000146174800F05AF8174B40F2014243F851
:10259000044B01349442FAD102F0DAFE134A144893
:1025A000002102F001FF134B134A18600021134869
:1025B00002F0FAFE124B186002F0DCFEFEE700BFEC
:1025C000E80700203008002000200040A00700207D
:1025D000F51F00089538000840100108D428002095
:1025E00058C8000861100008C008002008CA000888
:1025F00069170008D0280020E4C90008A9120008C3
:102600009C0700200268034B9A4201D101F08CBB69
:10261000704700BF00000140014B1868704700BFC1
:102620007C050020014B1868704700BF8005002022
:10263000014B1860704700BF8005002010B4084CA3
:10264000A0420AD048B1074B074C1960074B2060E5
:102650001B6813B15DF8044B18475DF8044B7047D5
:102660002CCA0008800500207C050020702900206D
:10267000014B1860704700BF7029002007B51F4B41
:1026800000220092596C41F480415964596C01F464
:102690008041009100990192196C41F080511964B8
:1026A0001B6C03F0805301930F216FF00100019B1D
:1026B00001F072FB00220521012001F06DFB0120D9
:1026C00001F09CFB00220521042001F065FB0420A1
:1026D00001F094FB05210846002201F05DFB052076
:1026E00001F08CFB00220521512001F055FB512007
:1026F00003B05DF804EB01F081BB00BF003802407D
:1027000010B514228AB0044600210DEB020006F039
:10271000ECFA2368364A934214D1364B00220092D9
:10272000596C41F4803159645B6C03F4803300933D
:1027300018200521009B01F02FFB182001F05EFB03
:102740000AB010BD2C4A934227D12A4B2B480024B3
:1027500001945A6C42F400325A645A6C02F400320A
:102760000192019A02941A6B42F020021A631B6BC9
:1027700003F0200302934022029B0223CDE90523AC
:1027800005A90323CDE9083301F02EFC19202246C8
:102790000F2101F001FB1920D0E7194A934211D112
:1027A000144B00220392196C41F0800119641B6CD8
:1027B00003F0800303932C200521039B01F0ECFA26
:1027C0002C20BBE70F4A9342BAD10A4B0022049255
:1027D000196C41F4807119641B6C03F480730493C9
:1027E0002D200521049B01F0D7FA2D20A6E700BF7C
:1027F0000040014000380240004401400014024003
:10280000001C00400020004010B5044688B014228F
:10281000002103A806F069FA2368244A934218D1DC
:1028200000230093224B1A6B42F010021A631B6BB9
:1028300003F0100300932020009B0223CDE9030343
:1028400006931C480323079303A901F0CDFB08B0AE
:1028500010BD194A934217D100230193144B1A6BF0
:1028600042F020021A631B6B03F020030193019BCB
:102870004FF4807303930223032104930923CDE9CA
:1028800006130E4803A9E0E70D4A9342DFD1002367
:102890000293074B1A6B42F020021A631B6B03F082
:1028A00020030293029B4FF40073E3E700400140D2
:1028B0000038024000100240001C0040001402409A
:1028C0000020004070B588B000241E4B02945A6C62
:1028D0001D4D42F001025A645B6C03F0010301A933
:1028E0000293064603A8029B01F0F6FE01F0E4FE07
:1028F000164B2B6040F2E733154AEB604300284645
:10290000B3FBF2F3013B2C61AC60AC616B6002F095
:10291000D5F8044680B9284601F08AFF044658B924
:10292000192001F06BFA0F2E09D8224631461920E2
:1029300001F032FA074B1E60204608B070BD01243A
:10294000FAE700BF0038024074290020000001406F
:1029500040420F008C050020FEE7FEE7FEE7FEE7A1
:10296000FEE7704701F026BC01F092BA7047000004
:10297000014801F09BBF00BF7808002008B504485B
:1029800001F094FFBDE80840024801F08FBF00BF8E
:1029900074290020A0070020014801F087BF00BF74
:1029A000E8070020014801F081BF00BF3008002087
:1029B00070470120704708B506F09CFA16230360A3
:1029C0004FF0FF3008BD08B506F094FA16230360F7
:1029D000FEE770B50D4614460E46731B9C4201DCA3
:1029E000204670BDAFF3008006F8010BF5E770B527
:1029F0000D4614460E46731B9C4201DC204670BDFA
:102A000016F8010BAFF30080F5E74FF0FF30704789
:102A10004FF400534B6000207047012070470020A6
:102A2000704700000B4A116810B5034609B90A49FE
:102A30001160106809490A4C0344091B8B4206D9EE
:102A400006F058FA0C2303604FF0FF3010BD1360FE
:102A5000FCE700BFBC290020103701200000022045
:102A600000400000034AD2F8883043F47003C2F8F3
:102A70008830704700ED00E02DE9F7439DF82850BD
:102A800015441F46EDB2CB180095DBB280460E46CA
:102A9000144600F02BFD18B14FF00009A54202D1F9
:102AA00003B0BDE8F0832246CDF800903B463146A6
:102AB0004046013400F077FCE4B2EFE72DE9F74F30
:102AC0009DF830A0CF1802EB0A06FFB2F6B2994685
:102AD00000963B4604460D46904600F007FD30B395
:102AE0000023009342464B46294620464FF0010BF7
:102AF00000F059FC5346424629462046CDF800B026
:102B000000F051FC791E534642462046CDF800B0F5
:102B1000C9B200F048FC721E00230C93D2B24B469F
:102B20002946204603B0BDE8F04F00F03CBC03B09E
:102B3000BDE8F08F2DE9F04F87B09A469DF8403000
:102B40000393039B9DF844400291D51801EB0A06BC
:102B5000F6B2EDB2009533468046934600F0C6FCCF
:102B600000285AD0029B0BEB04091F19FFB25FFA31
:102B700089F90223361B00934A46234639464046CC
:102B8000013E00F023F9F6B201232D1B31460093DC
:102B90004A4623464046013D00F018F9EDB20423B1
:102BA00000932A4623463946404600F00FF9082391
:102BB0003146660000932A4623464046F6B200F0AE
:102BC00005F9AAEB0603DBB2022B13D90134E4B2F8
:102BD0000137023BF9B2DBB25A46404600940593F6
:102BE0000491FFF749FF059B049900942A4640464B
:102BF000FFF742FF039B9B1BDBB2022B0DD9023B6D
:102C000009F10102DBB202991093D2B25346404659
:102C100007B0BDE8F04FFFF72FBF07B0BDE8F08F5A
:102C20002DE9F743036890F83C9090F83D7093F8D5
:102C30001180044600262368A06B1B7C13FB06F161
:102C4000C90089B2F5B2084457FA86F201350090FE
:102C5000D2B200212046EDB200F0C3FFA94504D94D
:102C60000136BB19DBB29845E5D803B0BDE8F08367
:102C700003681A7C90F83C30806B12FB03F2D200A0
:102C8000002106F032B810B50446FFF7C9FF204610
:102C9000BDE8104000F0D0BF10B5436B80F83D1088
:102CA00004461B689847636B20465B68BDE810408C
:102CB000184710B590F8873004460BB1FFF7D8FFDE
:102CC00020460021BDE81040FFF7E6BF38B50446B6
:102CD000FFF7A6FF94F83C3094F83D501D4423685C
:102CE0005B7CEDB2AB4204D8204600F0A5FF00208B
:102CF00038BD94F8873013B12046FFF7B9FF20465E
:102D00002946FFF7C9FF0120F2E72DE9F0479DF8BA
:102D100024909DF8208019F0010F07460C461646B6
:102D20001D4612D0531C6918A8EB0202DBB2D2B2C6
:102D3000C9B200F0A7FB631CA8EB0402A919DBB21F
:102D4000D2B2C9B2384600F09DFB19F0020F13D081
:102D5000731CA8EB0602291BDBB2D2B2C9B23846FB
:102D600000F090FB631CA8EB0402A91BDBB2D2B2FB
:102D7000C9B2384600F086FB19F0080F0FD0731C5B
:102D80002919DBB24246C9B2384600F07BFB631C0E
:102D9000A919DBB24246C9B2384600F073FB19F0FC
:102DA000040F11D0291B731C42463846DBB2C9B24E
:102DB00000F068FB0134A91BE3B242463846C9B2B1
:102DC000BDE8F04700F05EBBBDE8F0872DE9F74FA6
:102DD00091461C4609F10105013325440B44884600
:102DE000121B091BEDB20095DBB2D2B2C9B29DF83D
:102DF00030B0824600F07AFB88B1CDE9009B4346B3
:102E0000224600215046C4EBC417FFF77EFFC4F1F1
:102E100001057F006DB27FB20026B44202D803B034
:102E2000BDE8F08F002D06DBBB1C013C5FB255FAFC
:102E300083F3E4B25DB20136F6B205EB4605CDE9A7
:102E4000009B013543462246314650466DB2FFF79E
:102E50005CFFE2E70223037000487047C0290020AE
:102E600030B585B00D46009309491346094A04461A
:102E700000F008FF0DF10F00FFF7ECFF064B9DF887
:102E80000F2000950146204600F07BFC05B030BDC8
:102E90003D3B0008213A0008E53500084218435C34
:102EA000507800EB032080B27047012B05D0022B35
:102EB00005D033B91044C0B270470844FBE7801A0C
:102EC000F9E7401AF7E7012B05D0022B05D033B9FB
:102ED0000844C0B27047801AFBE7401AF9E7104473
:102EE000F7E70020704738B50B7803704B784370D4
:102EF0008B788370CB78C3700B7903714B794371F6
:102F00008B798371CB79C3710B7A03724B7A4372DD
:102F10008B7A8372CB7AC3720B7B03734B7B4373C5
:102F20008B7B8373CB7BC3730D460B7C037404468E
:102F300011212846FFF7B2FF132160822846FFF7D0
:102F4000ADFF1521A0822846FFF7A8FFE08238BD1B
:102F500070B5847A036862181D78D2B2072A45FAE0
:102F600004F507D8EBB282724FF0FF30884023EAB5
:102F7000000070BD5E1C06605B78C4F10804E4B21A
:102F8000A3402B43083ADBB2D2B2ECE738B50023BA
:102F900000F15805044680F86230816590F86C10A5
:102FA0002846FFF7D5FF94F86D1084F86000284696
:102FB000FFF7CEFF94F8863084F86430B3FA83F3D9
:102FC0005B0984F8610084F8653038BD10B5FFF7FF
:102FD000BFFF4C1EE4B20123A340C01A40B210BD93
:102FE0002DE9F04F85B090F85E5090F85F70039235
:102FF00004460E4694F860B094F85C00ABEB050311
:10300000DBB2B342029328BF33469A4694F85D3050
:103010004FFA87F94A4669B207EE903A94F866305B
:10302000FFF751FF804617EE900AFFF73EFF039926
:103030000246A9B194F8641084F8861000934146C2
:103040005346204600F0AFF9029B35449E42EDB254
:103050000DD3A5EB0B050137EEB2FFB20025C9E792
:1030600094F863100029EFD194F86510E4E784F830
:103070005E5084F85F9005B0BDE8F08F2DE9F74F02
:10308000044600F15807FFF781FF94F86E1094F999
:1030900061903846FFF79AFF94F86F1083463846E0
:1030A000FFF794FF94F8701006463846FFF78EFF3E
:1030B00094F960A0BAF1000F80464EDD56FA89F20D
:1030C000524252B294F8663094F85C005946FFF7C9
:1030D000FAFE84F85C00064694F85D00FFF7E5FE12
:1030E0005FFA89F5024684F85D00032B5BD8DFE8C0
:1030F00003F00238425006EB0A032918DBB2C9B2CA
:1031000000912046314600F0F1F930B30023A4F8D5
:103110005E3094F86A103846FFF71AFF94F86B1087
:1031200006463846FFF714FF054600223146204682
:10313000FFF756FF294620460122FFF751FF0121E4
:103140003846FFF705FF0028EFD194F95F304B4573
:10315000DFDB94F8643084F88630404603B0BDE885
:10316000F08FC5F10105731C354400EB0A01DBB299
:10317000C9B2EEB2C4E7CAF1010AC5F10105731C78
:10318000B2440544411CDBB2C9B2EAB25FFA8AF626
:10319000B6E7CAF1010A35448244411CEBB2C9B218
:1031A0005FFA8AF2ACE701463346A9E7036DFF29CF
:1031B00070B503F117030D4612D8602909D9B0F88C
:1031C0007C201344587818B11A78AA4206D1981C6A
:1031D00070BD4029F6D9B0F87A20F2E70344F1E750
:1031E000B0F87E209C18264600213046FFF756FE98
:1031F000022104443046FFF751FE854206F10406E1
:10320000F2D8208840BA80B20028E1D0854201D1AE
:10321000E01CDDE7A3781C44F3E7F8B51F4690F8FF
:10322000663004460E461546032B07D8DFE803F048
:1032300002151A1E436D98472844C5B284F85C6095
:1032400084F85D5039462046FFF7B0FF20B10146B3
:103250002046FFF713FFC0B2F8BD436D9847301A00
:10326000C6B2EBE7436D9847281AE6E7436D9847E7
:103270003044F5E72DE9F0471E4607460C46154653
:1032800000F0E7FA013E4FF0000A4FF6FF784FF6E4
:10329000FE797B6816F8011F38469847404503467B
:1032A0001CD04845F5D02A4621463846FFF7B5FFE1
:1032B00097F86630032B05D8DFE803F002090C0EFF
:1032C0000444E4B20AEB00025FFA82FAE1E7054443
:1032D000EDB2F7E7241AF4E72D1AF9E75046BDE8F6
:1032E000F087000010B4034C44605DF8044BFFF716
:1032F000C1BF00BFC137000810B4034C44605DF883
:10330000044BFFF7B7BF00BFD1370008036D10B5FE
:10331000CBB190F8813090F9754090F9761080F833
:10332000824080F8831073B1012B0DD190F9773072
:10333000A342B8BF234680F8823090F97830994292
:1033400001DD80F8833010BD90F9742090F972305F
:1033500013449C42B8BF80F882309142C8BF80F8C5
:103360008320F0E7014B4365704700BFE32E000860
:10337000026D8A4210B5044608D001656830FFF737
:10338000B2FD2046BDE81040FFF7C0BF10BD70B4CD
:1033900090F84060046B9DF80C500395921BA44676
:1033A000D2B270BC6047F0B490F880409DF81050E5
:1033B000002C3AD0002B38D0012B04D0022D2BD179
:1033C0000131C91AC9B215F0010530D190F8474052
:1033D00094422AD890F84840944226D90B44DCB253
:1033E0008C4290F8457090F846601CD28E4219D9F4
:1033F000741EE4B2A74218D2B94238BF3946A64279
:1034000094BFC1EB0603C1EB0403446B0495A468AD
:10341000DBB2A446F0BC6047032D02BF0132D21AD2
:10342000D2B2D0E739468E42E4D8F0BC704790F86B
:1034300045408C42F9D890F846408C42F5D9134467
:10344000DCB2944290F8477090F8486010D29642EF
:103450000DD9741EE4B2A742E7D2BA4238BF3A4649
:10346000A64294BFC2EB0603C2EB0403CDE73A4683
:103470009642F0D8D9E713B500240094FFF793FFE4
:1034800002B010BD13B501240094FFF78CFF02B009
:1034900010BD73B590F84760964210D890F8486018
:1034A00096420CD990F845508D4208D890F8463095
:1034B0008B4204D9002300930123FFF774FF02B06D
:1034C00070BD032928BF012180F8861070478A4209
:1034D00006D2834208D89A4294BF00200120704748
:1034E0008342F8D8002070470120704770B5044629
:1034F0000D461E4690F848109DF8103090F8470091
:10350000FFF7E5FF48B194F8461094F845003346BC
:103510002A46BDE87040FFF7DABF70BD2DE9F74FCE
:103520009DF8309099428CBFA1EB0308A3EB0108F2
:103530004A450C4615465FFA88F812D9A2EB0907EE
:10354000FFB2B84518D33A469C424746904605D943
:103550002A464D46914622461C4613464FF0000B24
:1035600010E0A9EB0207FFB2B845ECD21A462C4690
:103570004B460D46914603E01D464C461346894690
:103580004FF0010B4D4534BF4FF001094FF0FF39AB
:10359000FE2B28BFFE2347F3470ADEB2B44202D90E
:1035A00003B0BDE8F08FBBF1000F18D12A462146C9
:1035B000AAEB080A0190FFF76CFF5FFA8AF34FFA53
:1035C0008AFABAF1000FBCBF4D44DB1904F10104C3
:1035D0000198BCBFEDB24FFA83FAE4B2DEE72246AF
:1035E0002946E5E7F0B590F886509DF8147002F092
:1035F00007060124B440012DE4B215D8254615D0A4
:1036000002F0F80C026892F810E0826B0EFB0C11CD
:1036100011446FB90A78013B2A43624013F0FF035B
:1036200001F8012BF6D1F0BD0025E9E70024E7E71A
:103630000A7801362A436240013B16F007060A70F9
:10364000DBB20CD190F83E20114490F88620012A7C
:103650000AD80BD001242546002BE9D1E3E76D0001
:103660006400EDB2E4B2F7E70124F5E71546F3E7AD
:1036700070B590F83C10026890F83D50CB0080F88F
:103680003F30137C1F2B28BF1F23DB0080F83E3008
:10369000EB00DBB280F84030547C80F841304E19AA
:1036A000A642C4BF641BE1B203EBC10380F8423001
:1036B000F02380F84330918A994298BF0B4680F8F6
:1036C0004330D38A80F8443070BDFFF7D1BF10B4C7
:1036D0009DF8044001945DF8044BFFF758BE13B504
:1036E00090F84C30009390F84A3090F84B2090F8C6
:1036F00049100446FFF7FAFE18B984F8800002B0BA
:1037000010BD012394F8452084F8803094F84930A6
:103710009A4238BF84F8453094F8462094F84A30ED
:103720009A4288BF84F8463094F8472094F84B308A
:103730009A4238BF84F8473094F8482094F84C30C7
:103740009A4288BF84F84830D9E7002280F84520A3
:1037500090F8432080F8462090F8412080F84720D8
:1037600090F8422080F84820FFF7B9BF002280F887
:103770004920436BFF22A0F84A2080F84C205B6868
:10378000184770B5049E0363002540F2011380F8CA
:103790003C2080F83D5080F8635080F88550A0F8B8
:1037A0008630044681633368056546639847204642
:1037B000FFF7DCFF2046FFF7D5FD84F8665070BDAB
:1037C00019B10A2901D088B270474FF6FF707047CF
:1037D00000293BD00A2939D090F827302BBBFB2990
:1037E00008D901F001010523018480F827304FF644
:1037F000FE7118E0F72903D901F003010423F3E770
:10380000EF2903D901F007010323EDE7DF2903D9ED
:1038100001F00F010223E7E7BF2903D901F01F01DF
:103820000123E1E789B208467047028C01F03F01AD
:1038300041EA8211013BDBB289B24FF6FE7201848C
:1038400080F82730002B18BF1146ECE74FF6FF71C8
:10385000E9E7002380F82730704710B404690A466E
:10386000A44600235DF8044B2021604710B404698E
:103870001346A4460A465DF8044B1721604707B576
:103880008DF807100DF107020121FFF7EFFF03B0DC
:103890005DF804FB14392DE9F04104461F460C295C
:1038A0005ED8DFE801F0395D5D0746535D5D5D5D23
:1038B0005D5D4400BE18B74202D10120BDE8F08131
:1038C00017F8018B40252946013508F001022046F2
:1038D000EDB200F0BAF9482D4FEA5808F3D1236849
:1038E00020469A7B2C2100F0B0F929462046002280
:1038F00000F0ABF923682046DA7B2C2100F0A5F913
:1039000029462046012200F0A0F923682C219A7B49
:10391000204600F09AF9CEE7036849215A7800F072
:1039200094F901224821204600F08FF9C5E74A2189
:10393000F9E7036849211A7800F087F92268656978
:10394000927800232C212046A847B6E702684569F3
:10395000D27800232C21A847236849215A78E2E72E
:103960000020ABE710B4C4680A46A44600235DF803
:10397000044B1521604710B4C4680A46A4460023CE
:103980005DF8044B1621604710B4C4681346A44682
:103990000A465DF8044B1721604710B4C468002341
:1039A000A4461A465DF8044B1821604710B4C46859
:1039B0000023A4461A465DF8044B1921604773B5ED
:1039C00005460C46217819290DD8172919D80ED08B
:1039D00014290AD96278EE688DF80720002328465A
:1039E000B0470234EEE7FE2912D002B070BD637812
:1039F0008DF807300DF1070201212846FFF7C4FFBB
:103A0000EFE70023EE681A4628460134B047D9E7AD
:103A100062788DF807202921284600F016F9E0E7A2
:103A2000F7B51646A1F1140204460D46052A1CD826
:103A3000DFE802F01203030D12120021FFF70DFF61
:103A400031462046FFF71BFF012003B0F0BD0121E6
:103A50000193FFF702FF019B276932462946204662
:103A6000BC4603B0BDE8F04060470020EDE7000031
:103A70000B39F8B5044615461E46042953D8DFE82D
:103A800001F02F5238470300FFF787FF7179C90013
:103A9000CFB2204601F00801FFF764FF390941F079
:103AA00010012046FFF75EFFB17994F822301944E7
:103AB00001F00F0141F0B0012046FFF753FF3779C5
:103AC0003668FF00FFB2324639462046013DFFF717
:103AD0005BFF15F0FF05F6D12046FFF767FF04E016
:103AE0002AB912492046FFF76AFF0120F8BD1049A4
:103AF000F8E73AB90F49FFF762FF23689B7C84F827
:103B00002230F2E70C49FFF75AFF2368DB7CF6E727
:103B1000FFF743FF81212046FFF724FF2946204677
:103B2000FFF729FFD8E70020E0E700BF7710010882
:103B30007C1001086D1001087210010838B50446A8
:103B40000D46FFF795FF40B9092D02D00A2D06D08A
:103B500038BD0749204600F00FF80120F8E720465D
:103B600000F00FF803492046FFF729FFF5E700BFF3
:103B7000841001084C10010801608B7C80F8223011
:103B8000704738B5002304461A4645692821A847DE
:103B900000231A46E56814212046A8472046012242
:103BA0004B2100F052F8236820461A79292100F0B1
:103BB0004CF8204600224B2100F047F823682046AD
:103BC0001A79292100F041F8204601224B2100F00A
:103BD0003CF8236820465A792921BDE8384000F096
:103BE00034B813B58DF80430049B8DF805108DF8AA
:103BF0000620009384686B4601220F21A04702B083
:103C000010BD10B484680023A4461A465DF8044B26
:103C10000921604710B484680023A4461A465DF861
:103C2000044B0A21604710B484680A46A446002366
:103C30005DF8044B0B21604710B484680023A44650
:103C40001A465DF8044B1021604710B44469002304
:103C5000A4465DF8044B6047002070470023084AE3
:103C6000036080F82330C3848361FF23C0E902220C
:103C7000C0E9042280F8243080F82930704700BF62
:103C8000593C0008F8B5069F16461D46FFF7E6FFAB
:103C9000C0E90216C0E90457BDE8F840FFF7B1BF1C
:103CA000DFF834D00D480E490E4A002302E0D45804
:103CB000C4500433C4188C42F9D30B4A0B4C002374
:103CC00001E013600432A242FBD3FEF7CBFE05F005
:103CD00017F9FEF785FA7047000002200000002067
:103CE000700700209C150108700700200C37012088
:103CF000FEE7000008B50B4B1A6842F400721A6028
:103D00001A6842F480621A601A6842F480721A607B
:103D1000032000F02FF80F20FEF7D4FDFEF7AEFCD5
:103D2000002008BD003C0240034A044B11681B7888
:103D30000B441360704700BFA02B002088050020B3
:103D4000014B1868704700BFA02B002038B504460F
:103D5000FFF7F6FF631C1CBF054B1B78054618BF19
:103D6000E418FFF7EDFF431BA342FAD338BD00BFB1
:103D7000880500200749CA6822F4E06203021204A1
:103D800003F4E063120C134343F0BF6343F40033C6
:103D9000CB60704700ED00E0164B30B5DC68C4F333
:103DA0000224C4F10703251D042B28BF0423062D7C
:103DB0004FF0FF358CBF033C002405FA03F321EAE2
:103DC0000303A54022EA0502A340002843EA0203B8
:103DD000ACBF00F16040084A4FEA0313B8BF00F0DF
:103DE0000F00DBB2AABF00F56140135480F8003326
:103DF00030BD00BF00ED00E014ED00E0002807DB5F
:103E00004109044A00F01F000123834042F8213099
:103E1000704700BF00E100E01A4BDA68D20606D511
:103E20001949CA6942F01002CA611022DA60DA68E0
:103E3000900606D51449CA6942F00802CA612022D8
:103E4000DA60104BDA68510606D50F49CA6942F0AC
:103E50000402CA614022DA60DA68120606D50A490D
:103E6000CA6942F00202CA618022DA60054AD36858
:103E70009B0706D50449CB6943F02003CB6102239D
:103E8000D3607047003C0240A42B0020704770476D
:103E900038B52E4B2E4CDB6813F0F20F0DD0237883
:103EA000012B35D14FF0FF33E568E360FFF7B4FF36
:103EB0002846FFF7ECFF00232370244BDA68D20773
:103EC00013D50122DA602378934231D16368013B34
:103ED0006360636813B3E068FFF7D8FFE3680133FA
:103EE000E360E068217A00F035F8237803F0FF0101
:103EF0006BB9164B1A6922F0FF021A611A6922F097
:103F000080721A611A6922F000721A61217638BD36
:103F10002378022B0CBF25696569C7E74FF0FF3591
:103F2000E560237000F034F82846FFF7AFFFDCE7C8
:103F30002378022B07D100F02BF82069FFF7A6FFAA
:103F400000232370D1E76069F8E700BF003C02401E
:103F5000A42B00200D4B1A6922F440721A611A69D1
:103F6000022994BF09024FF440710A431A611A6989
:103F700022F0F8021A611A6942EAC00040F0020019
:103F800018611A6942F480321A617047003C02409D
:103F9000144B1A6891050FD51A6822F400721A6042
:103FA0001A6842F400621A601A6822F400621A6009
:103FB0001A6842F400721A600A4B1A6852050FD54B
:103FC0001A6822F480621A601A6842F480521A60F9
:103FD0001A6822F480521A601A6842F480621A60E9
:103FE000704700BF003C02402DE9F74FDFF8A89171
:103FF000674A00230D6801249C4004EA050CAC4389
:1040000040F0B1804D6805F003044FEA43080326F1
:10401000671E06FA08F6012F6FEA060634D887688D
:1040200007EA060ECF6807FA08F747EA0E07876027
:10403000476827EA0C0EC5F300179F4047EA0E07B2
:104040004760C76807EA060E8F6807FA08F747EA6D
:104050000E07022CC76019D14FEAD30A00EB8A0A77
:1040600003F0070BDAF820704FEA8B0B4FF00F0EBE
:104070000EFA0BFE27EA0E0E0F6907FA0BF747EA56
:104080000E07CAF8207001E0032CDAD1076804FAA1
:1040900008F437403C4315F4403F046063D04FF0D0
:1040A000000ACDF804A0D9F844603A4C46F48046A2
:1040B000C9F84460D9F8446006F480460196019E30
:1040C00023F0030606F1804606F59C3603F0030E46
:1040D000D6F808804FEA8E0E0F2707FA0EF7A04297
:1040E00028EA070746D004F58064A04244D004F5CE
:1040F0008064A04242D004F58064A04240D004F520
:104100008064A0423ED004F58064A0423CD004F517
:104110008064A0423AD004F58064A0420CBF07241A
:10412000082404FA0EF43C43B46094686FEA0C0669
:10413000EF0254BF34404CEA04049460D468AF02E8
:1041400054BF34404CEA0404D4605468AF0354BFF5
:1041500034404CEA040454601468ED0354BF344006
:104160004CEA040414600133102B7FF443AF03B016
:10417000BDE8F08F5446D4E70124D2E70224D0E70B
:104180000324CEE70424CCE70524CAE70624C8E7C5
:10419000003C01400000024000380240036919421F
:1041A00014BF0120002070470AB1816170470904E3
:1041B000FBE7704710B5054C6369DB0304D5FFF7D7
:1041C000F8FF4FF48033636110BD00BF003C014035
:1041D0002DE9F341044640B30368DD0710D423689A
:1041E00098075BD423681A0700F19D8023685B075A
:1041F00000F1BD80A069002840F0248100202CE05F
:104200008D4B9A6802F00C02042A07D09A6802F0DB
:104210000C02082A0BD15B68590208D5864B1B6833
:104220009A03DCD56368002BD9D1012015E06368BF
:10423000814DB3F5803F13D12B6843F480332B605D
:10424000FFF77EFD7C4E054633689B03C7D4FFF71E
:1042500077FD401B6428F7D9032002B0BDE8F08148
:10426000B3F5A02F04D12B6843F480232B60E3E740
:104270002A6822F480322A602A6822F480222A6086
:10428000002BDDD1FFF75CFD06462B689F03A6D50A
:10429000FFF756FD801B6428F7D9DDE7664B9A6867
:1042A00012F00C0F07D09A6802F00C02082A11D104
:1042B0005B685E020ED4604A13689D0702D5E3680E
:1042C000012BB2D11368216923F0F80343EAC1033B
:1042D000136087E7E268594BB2B101221A60FFF719
:1042E0002FFD554D06462B68980707D52B68226988
:1042F00023F0F80343EAC2032B6073E7FFF720FDC6
:10430000801B0228EFD9A7E71A60FFF719FD4A4E74
:104310000546336899077FF565AFFFF711FD401B30
:104320000228F6D998E76269444B82B10122C3F8AA
:10433000802EFFF705FD404E0546736F9F073FF542
:1043400055AFFFF7FDFC401B0228F6D984E7C3F800
:10435000802EFFF7F5FC384E0546736F98077FF502
:1043600045AFFFF7EDFC401B0228F6D974E7324B4E
:104370001A6C12F0805228D101921A6C42F08052CD
:104380001A641B6C03F080530193019B01272C4D91
:104390002B68D9051BD5A368274D012B27D12B6F7F
:1043A00043F001032B67FFF7CBFC234E054641F298
:1043B0008838336F9B0739D5002F3FF41BAF1E4A57
:1043C000136C23F08053136414E70027DFE72B6896
:1043D00043F480732B60FFF7B3FC06462B68DA05C5
:1043E000D9D4FFF7ADFC801B0228F7D934E7052BA1
:1043F00004D12B6F43F004032B67D0E72A6F22F020
:1044000001022A672A6F22F004022A67002BCAD110
:10441000FFF796FC41F2883806462B6F9807CBD5FC
:10442000FFF78EFC801B4045F7D915E7FFF788FCA6
:10443000401B4045BDD90FE700380240000047420D
:1044400000700040364DAB6803F00C03082B3DD0E4
:10445000344B002202281A662BD1FFF771FC064666
:104460002B6899011FD4D4E907321343626A43EAE7
:104470008213E26A43EA0263A26A5208013A43EAFB
:1044800002436B60274B264D01221A66FFF758FC4A
:1044900004462B689A013FF5B1AEFFF751FC001BB3
:1044A0000228F6D9D8E6FFF74BFC801B0228D7D9A3
:1044B000D2E6FFF745FC04462B689B017FF59EAED4
:1044C000FFF73EFC001B0228F6D9C5E601283FF4A1
:1044D000C4AE6B68E26903F4800191427FF4A5AE3B
:1044E000216A03F03F028A427FF49FAE616A47F679
:1044F000C0721A40B2EB811F7FF497AEA26A5208D5
:1045000003F44031013AB1EB024F7FF48EAEE26A20
:1045100003F07063B3EB026F3FF470AE85E600BF4B
:104520000038024000004742134908B58B6803F089
:104530000C03042B1CD0082B1CD14A684B6849681B
:1045400013F4800314BF0D480D48C1F3881118BF40
:10455000002302F03F02A1FB0001FCF795FB064B94
:104560005B68C3F3014301335B00B0FBF3F008BDAC
:104570000248FCE70248FAE700380240001BB70097
:104580000024F4002DE9F0410D46044610B9012045
:10459000BDE8F081434B1A6802F007028A4228D333
:1045A00021688F072DD4C80740D43E4B1A6802F00B
:1045B0000702AA4265D8226851076BD4130707D5B2
:1045C000394A2169936823F4604343EAC103936045
:1045D000FFF7AAFF344B354A9B68C3F30313D35C40
:1045E000D840334B1860334B1868FEF76BF9002046
:1045F000CEE7CAB21A701B6803F007038B42C6D11C
:10460000CEE7294B11F0040F1EBF9A6842F4E05226
:104610009A600E0742BF9A6842F460429A609A68B4
:10462000A06822F0F00202439A60BCE762681E4B69
:10463000012A1CD11B6813F4003FA8D01A4EB3689E
:1046400023F003031343B360FFF77AFB41F288388A
:104650000746B368626803F00C03B3EB820FA4D083
:10466000FFF76EFBC01B4045F3D9032090E7911E76
:1046700001291B6802D813F0007FDEE713F0020F58
:10468000DBE7EAB21A701B6803F00703AB427FF462
:104690007EAF90E70449E0688B6823F4E05303435E
:1046A0008B608BE7003C02400038024050CA000893
:1046B000840500208C050020044B054A9B68C3F349
:1046C0004233D35C034A1068D84070470038024038
:1046D00060CA0008840500200F2303600B4B9A6812
:1046E00002F0030242609A6802F0F00282609A6867
:1046F00002F4E052C2609B68DB0803F4E0530361FC
:10470000034B1B6803F007030B607047003802403F
:10471000003C0240036A23F001030362036A70B5A0
:10472000446882690D6822F073022A438D6823F081
:1047300002032B430E4DA84202D00E4EB04210D1C0
:10474000CE6823F008033343A84223F0040302D0C9
:10475000084DA84205D1D1E9055624F440743543EB
:104760002C43446082614A684263036270BD00BFAB
:104770000000014000040140036A23F480730362D7
:10478000036A70B54468C2690D6822F073022A4357
:104790008D6823F4007343EA0523114DA84203D02A
:1047A00005F58065A84214D1CD6823F4006343EA7F
:1047B00005230B4DA84223F4806303D005F58065E3
:1047C000A84206D1D1E9055624F44054354344EAC1
:1047D00005144460C2614A68C263036270BD00BFD1
:1047E00000000140036A23F480530362036A30B57A
:1047F0004468C2690D6822F4E64242EA05228D68E7
:1048000023F4005343EA0533084DA84203D005F5CD
:104810008065A84204D14D6924F4804444EA85149B
:104820004460C2614A680264036230BD0000014016
:1048300090F83D30012B30D1022380F83D300368E1
:10484000DA6842F00102DA60154A93421AD0B3F1F5
:10485000804F17D0A2F57C42934213D002F58062BC
:1048600093420FD002F5806293420BD002F578425A
:10487000934207D002F57052934203D0A2F59432CE
:10488000934204D19A6802F00702062A03D01A68FC
:1048900042F001021A60002070470120704700BFFB
:1048A00000000140704770477047704703681A69FD
:1048B000910710B504460ED5DA6892070BD56FF054
:1048C00002021A61012202779B699B0777D0FDF7EC
:1048D000E7FB0023237723681A69500710D5DA68AD
:1048E00051070DD56FF004021A61022222779B69ED
:1048F00013F4407F204668D0FDF7D2FB00232377D6
:1049000023681A6912070FD5DA6810070CD56FF003
:1049100008021A6104222277DB69990720465AD0DF
:10492000FDF7BEFB0023237723681A69D20610D552
:10493000DA68D0060DD56FF010021A6108222277CE
:10494000DB6913F4407F20464BD0FDF7A9FB002321
:10495000237723681A69D10708D5DA68D20705D505
:104960006FF001021A612046FDF74CFE23681A69B8
:10497000100608D5DA68110605D56FF080021A61B5
:10498000204600F0D6FC23681A69520608D5DA687A
:10499000500605D56FF040021A612046FFF785FFEB
:1049A00023681A69910622D5DA6892061FD56FF03E
:1049B000200220461A61BDE8104000F0B9BCFFF7A4
:1049C00073FF2046FDF7A8FB83E7FFF76DFF204646
:1049D000FDF7A2FB92E7FFF767FF2046FDF79CFB80
:1049E000A0E7FFF761FF2046FDF796FBAFE710BD9C
:1049F000304A0368904212D0B0F1804F0FD0A2F538
:104A00007C4290420BD002F58062904207D002F5C2
:104A10008062904203D002F57842904219D14A68F0
:104A200023F070031343234A904229D0B0F1804F02
:104A300026D0A2F57C42904222D002F580629042BC
:104A40001ED002F5806290421AD002F57842904260
:104A500016D0194A904213D002F5806290420FD0CE
:104A600002F5806290420BD0A2F59832904207D0B6
:104A700002F58062904203D002F58062904203D139
:104A8000CA6823F4407313434A6923F08003134335
:104A900003608B68C3620B688362064B984203D045
:104AA00003F58063984201D10B69036301234361DD
:104AB000704700BF000001400040014010B50446AF
:104AC00030B390F83D3003F0FF021BB980F83C2072
:104AD000FDF716FE0223206884F83D30211DFFF704
:104AE00087FF012384F84630002084F83E3084F8A4
:104AF0003F3084F8403084F8413084F8423084F804
:104B0000433084F8443084F8453084F83D3010BD9B
:104B10000120FCE710B5044630B390F83D3003F0B7
:104B2000FF021BB980F83C20FFF7BCFE022320687F
:104B300084F83D30211DFFF75BFF012384F84630E8
:104B4000002084F83E3084F83F3084F8403084F808
:104B5000413084F8423084F8433084F8443084F89B
:104B6000453084F83D3010BD0120FCE710B5044607
:104B700030B390F83D3003F0FF021BB980F83C20C1
:104B8000FFF791FE0223206884F83D30211DFFF7D6
:104B90002FFF012384F84630002084F83E3084F84B
:104BA0003F3084F8403084F8413084F8423084F853
:104BB000433084F8443084F8453084F83D3010BDEB
:104BC0000120FCE7036A23F010030362036A70B557
:104BD000446882690D6822F4E64242EA05228D6843
:104BE00023F0200343EA0513104DA84203D005F536
:104BF0008065A84214D1CD6823F0800343EA0513F1
:104C00000A4DA84223F0400303D005F58065A84271
:104C100006D1D1E9055624F44064354344EA8504BD
:104C2000446082614A688263036270BD0000014093
:104C300070B590F83C30012B054650D00123082A6E
:104C400080F83C303BD007D8C2B1042A27D01846A0
:104C5000002385F83C3070BD0C2AF8D10068FFF7BE
:104C6000C1FDC3690A6943F40063C361C36923F4E6
:104C70008063C361C36943EA02232EE00068FFF743
:104C800049FD83690A6943F008038361836923F05E
:104C9000040383618369134383610020D8E70068BC
:104CA000FFF790FF83690A6943F4006383618369B6
:104CB00023F480638361836943EA0223ECE700689D
:104CC000FFF75AFDC3690A6943F00803C361C3696A
:104CD00023F00403C361C3691343C361DDE702200A
:104CE000B9E7000070B5046A1A4E24F001040462AA
:104CF000B0428469056A29D0B0F1804F26D0A6F56C
:104D00007C46B04222D006F58066B0421ED006F541
:104D10008066B0421AD006F57846B04216D006F545
:104D20007056B04212D0A6F59436B0420ED044F080
:104D300001021B0122F0F002DBB2134301F00A0171
:104D400025F00A0211438361016270BD24F003045F
:104D50002243EEE700000140F8B590F83C30012B0B
:104D600005460C4600F08B80012380F83C3092B958
:104D70000068CB68D1E90012FFF7B4FF8369A2682D
:104D800023F00C03836183691343836100200023B4
:104D900085F83C30F8BD042A24D10368186A20F055
:104DA0001000D1E90027C968186298691E6A20F4CA
:104DB000407040EA0720090320F4704089B21201D4
:104DC000014302F0A00226F0A000024399611A629A
:104DD0009A69A16822F440629A619A6942EA0122C2
:104DE0009A61D3E7082A22D103681E6A26F48076E6
:104DF000D1E90020C9681E62DF691E6A27F0030737
:104E00003843090120F0F000C9B21202014302F454
:104E1000206226F420600243D9611A62DA69A1682F
:104E200022F00C02DA61DA690A43DA61AEE70C2A91
:104E300023D10368186A20F48050D1E90027C9689B
:104E40001862D8691E6A20F4407040EA07200903FE
:104E500020F4704089B21203014302F4204226F488
:104E600020400243D9611A62DA69A16822F44062E3
:104E7000DA61DA6942EA0122D7E7184687E70220B9
:104E800088E710B58468114324F47F4441EA032382
:104E90002343836010BD38B590F83C30012B0446A5
:104EA0004FF0020300F08E80012280F83D3080F840
:104EB0003C200068836823F47F4323F077038360FA
:104EC0000B68602B4FD032D8402B64D016D8202BE3
:104ED0000DD00AD833F0100109D0012384F83D30F9
:104EE000002384F83C30104638BD302BF5D1826861
:104EF00022F07002134343F0070328E0502BECD15B
:104F00004A68CD68016A036A23F00103036283697A
:104F100021F00A0123F0F00343EA05130A438361F9
:104F20000262836823F0700343F057030FE0B3F588
:104F3000805F0DD0B3F5005F0CD0702BCDD1CB6866
:104F4000D1E90121FFF79DFF836843F07703836078
:104F50000022C2E7CB68D1E90121FFF792FF836805
:104F600043F48043F3E7036A4D68C96823F01003F4
:104F700003628269036A22F4704223F0A00343EAC9
:104F8000051342EA013282610362836823F07003F1
:104F900043F06703DBE74A68CD68016A036A23F0E0
:104FA00001030362836921F00A0123F0F00343EA5D
:104FB00005130A4383610262836823F0700343F0A0
:104FC0004703C4E71A468EE7036A01F01F0110B5D4
:104FD00001248C4023EA04030362036A8A401A43D3
:104FE000026210BD08B529B990F83E30012B18D0E7
:104FF00001202CE004290DD190F83F30013B18BF6F
:105000000123002BF4D104294FF0020320D180F8B2
:105010003F3009E008290CBF90F8403090F841304B
:10502000ECE7022380F83E3000680122FFF7CCFF56
:105030001C4A904213D01C4B984210D0B0F1804FC4
:1050400014D1836803F00703062B26D1002008BD86
:1050500008290CBF80F8403080F84130E4E7436C09
:10506000904243F400434364EBD0E7E70F4B984290
:10507000E7D003F580639842E3D003F5806398425C
:10508000DFD003F578439842DBD003F570539842A4
:10509000D7D0A3F594339842D3D0036843F00103EB
:1050A0000360D3E700000140000401400004004019
:1050B000FFF798BF68B50022054600680E46FFF767
:1050C00083FF1A4B984203D003F5806398420DD1B9
:1050D000026A41F211131A4208D1026A40F24443B3
:1050E0001A4202BF436C23F400434364026A41F254
:1050F00011131A4208D1026A40F244431A4202BF15
:10510000036823F00103036001231EB985F83E30D4
:10511000002068BD042E02D185F83F30F8E7082E44
:105120000CBF85F8403085F84130F1E700000140C0
:10513000FFF7C0BF08B529B990F83E30012B1CD04D
:10514000012035E0042911D190F83F30013B18BF10
:105150000123002BF4D104294FF0020329D1026866
:1051600080F83F30D36843F004030DE008290CBFFA
:1051700090F8403090F84130E8E70223026880F868
:105180003E30D36843F002030068D3600122FFF78A
:105190001BFF224A90421ED0214B98421BD0B0F1F7
:1051A000804F1FD1836803F00703062B31D1002005
:1051B00008BD082906D1026880F84030D36843F062
:1051C0000803E1E70C2980F84130B9D10268D368BF
:1051D00043F01003D8E7436C904243F40043436428
:1051E000E0D0DCE70F4B9842DCD003F580639842B7
:1051F000D8D003F580639842D4D003F57843984221
:10520000D0D003F570539842CCD0A3F59433984294
:10521000C8D0036843F001030360C8E70000014001
:105220000004014000040040FFF784BF08B50346B6
:10523000002942D190F83E0093F84220C0B20128E4
:10524000D2B271D1012A70D1022200294BD1186843
:1052500083F83E2083F84220C26842F00202C26016
:1052600018680122FFF7B0FE304B98421AD0B0F117
:10527000804F17D0A3F57C43984213D003F5806389
:1052800098420FD003F5806398420BD003F5784322
:10529000984207D003F57053984203D0A3F5943396
:1052A000984204D1836803F00703062B03D00368F8
:1052B00043F001030360002037E0042905D190F892
:1052C0003F0093F84320C0B2B9E708290BBF90F81C
:1052D000400093F8410093F8442093F845200CBF18
:1052E000C0B2C0B2ABE7042908D1186883F83F20E8
:1052F00083F84320C26842F00402B0E7082908D1CD
:10530000186883F8402083F84420C26842F00802FD
:10531000A5E70C2983F8412083F8452005D11868BA
:10532000C26842F010029AE7012008BD0000014067
:105330007047704708B54FF0E0231B6901F058F83B
:10534000012803D0BDE8084001F064BB08BD00009F
:10535000EFF305832BB9064B186828B901221A60B0
:1053600070476FF0050070474FF0FF30704700BF87
:105370006C2E002010B5EFF305845CB9084B1A6859
:10538000012A0AD1074AD47702221A6000F09AFD56
:10539000204610BD6FF00500FBE74FF0FF30F8E747
:1053A0006C2E002000ED00E0F0B587B00B46002128
:1053B0000591EFF30584CCB9C0B16AB395698D420C
:1053C00008BF1825691E3729AC462AD85168C90775
:1053D00027D456696EB1B408D2E9027E116857B17C
:1053E000BEF1A70F02D9126902B1E6B9059807B05C
:1053F000F0BD8024F0E7BEF1000FF7D11269002A5A
:10540000F4D105AACDE900C2A2B200F02DFD012819
:105410001CBF00230593E9E711464FF0180C8024C8
:10542000EFE72046E3E7CDE901270095224600F0AB
:10543000E3FC0590DAE710B5EFF3058424B910B169
:1054400000F0A8FE204610BD6FF00500FBE700004D
:10545000034B0360034B0B6080231360704700BF56
:10546000C42D0020C42B0020034B0360034B0B60B2
:105470004FF480731360704770320020702E00204C
:1054800000F108034FF0FF32C0E9022343600361DB
:1054900000230360704700230361704743684B603B
:1054A0009A688A609A68516099600368086101335C
:1054B0000360704730B50C68631C0AD103695A68F1
:1054C0004A6091608B605960036808610133036032
:1054D00030BD00F10802134652681568A542FAD99A
:1054E000EDE7D0E9011203698A6051605968814291
:1054F00008BF5A60002202611A68013A1A601868EF
:10550000704710B5044601F01DFAA46B01F03AFA99
:10551000B4FA84F0400910BDF8B51546026C866BEC
:10552000044652B9076847BB806800F071FFA76066
:1055300005460136A6632846F8BD65B9406803F004
:105540000EFD6368226C1344A26863609342F0D33B
:1055500023686360EDE7C06803F001FD226CE36837
:1055600051429B1A2268E36093423EBFA3685B18D6
:10557000E360022D01D116B1013E0025D9E7354681
:10558000D7E7034610B41A6C08466AB1DC6899681C
:1055900014448C4228BF1968DC6028BFD960D968E0
:1055A0005DF8044B03F0DBBC5DF8044B704770B54D
:1055B000044601F0C7F994F8455004F124066DB291
:1055C000002D14DCFF2384F8453001F0DBF901F0F5
:1055D000B9F994F8445004F110066DB2002D12DCB4
:1055E000FF2384F84430BDE8704001F0CBB9636A12
:1055F000002BE7D0304600F069FE08B100F0F2FE63
:10560000013D6DB2DCE72369002BE9D0304600F0A4
:105610005DFE08B100F0E6FE013D6DB2DEE738B593
:105620000D46044640B94FF0500383F31188BFF391
:105630006F8FBFF34F8FFEE701F084F9D4E90F318C
:10564000226862604B43D0185B1A1A44A060FF23A3
:105650000020A063E26084F8443084F84530A5B9A6
:10566000236973B104F1100000F030FE48B14FF02F
:10567000E0234FF08052C3F8042DBFF34F8FBFF3E8
:105680006F8F01F07FF9012038BD04F11000FFF7A2
:10569000F7FE04F12400FFF7F3FEF2E713B51C4612
:1056A00040B94FF0500383F31188BFF36F8FBFF3FE
:1056B0004F8FFEE743B94FF0500383F31188BFF3D8
:1056C0006F8FBFF34F8FFEE74AB191B94FF0500390
:1056D00083F31188BFF36F8FBFF34F8FFEE741B1A4
:1056E0004FF0500383F31188BFF36F8FBFF34F8FD9
:1056F000FEE750230193019B502B08D04FF050033D
:1057000083F31188BFF36F8FBFF34F8FFEE700293C
:1057100008BF2246019B22600123C4E90F0184F8DF
:10572000463019462046FFF77AFF9DF8103084F87E
:105730004C30204602B010BD2DE9F04385B08846BC
:1057400001921F46044640B94FF0500383F311887D
:10575000BFF36F8FBFF34F8FFEE751B9036C43B1B7
:105760004FF0500383F31188BFF36F8FBFF34F8F58
:10577000FEE7022F0BD1E36B012B08D04FF0500353
:1057800083F31188BFF36F8FBFF34F8FFEE700F0F5
:105790002FFE064650B9019B4BB14FF0500383F3E7
:1057A0001188BFF36F8FBFF34F8FFEE700264FF0D6
:1057B000000937E0019D1DB901F0E4F8002052E036
:1057C00016B902A800F0C6FD01F0DCF800F0CAFB33
:1057D00001F0B8F894F84430FF2B08BF84F84490E7
:1057E00094F84530FF2B08BF84F8459001F0CAF8C3
:1057F00001A902A800F0BAFD00284AD101F0A2F8E0
:10580000A26BE36B9A4231D101F0BCF8019904F12B
:10581000100000F023FD2046FFF7C9FE00F046FC13
:1058200060B3012601F08EF8A26BE36B9A4201D3BC
:10583000022FBFD13A4641462046FFF76DFE636A0C
:105840001BB104F1240000F041FD48B14FF0E0230A
:105850004FF08052C3F8042DBFF34F8FBFF36F8F0B
:1058600001F090F8012005B0BDE8F08301F08AF85E
:105870002046FFF79CFE00F019FCD2E74FF0E02332
:105880004FF08052C3F8042DBFF34F8FBFF36F8FDB
:10589000C7E72046FFF78BFE00F008FC8EE72DE9F6
:1058A000F843894690461F46044640B94FF05003DE
:1058B00083F31188BFF36F8FBFF34F8FFEE751B9AA
:1058C000036C43B14FF0500383F31188BFF36F8F24
:1058D000BFF34F8FFEE7022F0BD1E36B012B08D0F4
:1058E0004FF0500383F31188BFF36F8FBFF34F8FD7
:1058F000FEE701F03DF9EFF311864FF0500383F31B
:105900001188BFF36F8FBFF34F8FA26BE36B9A4287
:1059100001D3022F23D194F84550A36B6DB23A46C0
:1059200049462046FFF7F8FD6B1C13D1636A0BB99B
:1059300001200BE004F1240000F0C8FC0028F7D09F
:10594000B8F1000FF4D00120C8F8000086F31188E8
:10595000BDE8F88301356DB284F84550E8E70020D2
:10596000F4E72DE9FF410F460192044640B94FF09C
:10597000500383F31188BFF36F8FBFF34F8FFEE7A0
:1059800051B9036C43B14FF0500383F31188BFF357
:105990006F8FBFF34F8FFEE700F02AFD064650B928
:1059A000019B4BB14FF0500383F31188BFF36F8F0E
:1059B000BFF34F8FFEE700264FF000083DE0019D4A
:1059C0001DB900F0DFFF002056E016B902A800F074
:1059D000C1FC00F0D7FF00F0C5FA00F0B3FF94F867
:1059E0004430FF2B08BF84F8448094F84530FF2BE7
:1059F00008BF84F8458000F0C5FF01A902A800F0A7
:105A0000B5FC002841D12046FFF77BFDB8B30199D2
:105A100004F1240000F022FC2046FFF7C8FD00F04E
:105A200045FB48B94FF0E0234FF08052C3F8042DF6
:105A3000BFF34F8FBFF36F8F012600F083FFA56B7D
:105A4000002DBCD039462046013DFFF79AFDA563E5
:105A5000236973B104F1100000F038FC48B14FF035
:105A6000E0234FF08052C3F8042DBFF34F8FBFF3F4
:105A70006F8F00F087FF012004B0BDE8F081204661
:105A8000FFF795FD00F012FBD6E72046FFF78FFDEC
:105A900000F00CFB2046FFF734FD0028CCD092E745
:105AA00010B5074A002352F833402CB942F833109E
:105AB00002EBC302506010BD0133082BF3D1FAE7AB
:105AC0001833002070B504460D46164600F03AFF24
:105AD00094F84430FF2B04BF002384F8443094F83A
